{
  "address": "0x1044E8b79B873f09Dc2c0665532c267D470c8E0c",
  "abi": [
    {
      "inputs": [
        {
          "internalType": "address",
          "name": "tracker",
          "type": "address"
        }
      ],
      "stateMutability": "nonpayable",
      "type": "constructor"
    },
    {
      "inputs": [],
      "name": "SwapRouter_tokensCantBeSwapped",
      "type": "error"
    },
    {
      "anonymous": false,
      "inputs": [
        {
          "indexed": false,
          "internalType": "address",
          "name": "userAddress",
          "type": "address"
        },
        {
          "indexed": false,
          "internalType": "address",
          "name": "address1",
          "type": "address"
        },
        {
          "indexed": false,
          "internalType": "address",
          "name": "address2",
          "type": "address"
        },
        {
          "indexed": false,
          "internalType": "uint256",
          "name": "address1Amount",
          "type": "uint256"
        },
        {
          "indexed": false,
          "internalType": "uint256",
          "name": "address2Amount",
          "type": "uint256"
        }
      ],
      "name": "swap",
      "type": "event"
    },
    {
      "stateMutability": "payable",
      "type": "fallback"
    },
    {
      "inputs": [
        {
          "internalType": "address",
          "name": "address1",
          "type": "address"
        },
        {
          "internalType": "address",
          "name": "address2",
          "type": "address"
        },
        {
          "internalType": "uint256",
          "name": "inputAmount",
          "type": "uint256"
        }
      ],
      "name": "getSwapAmount",
      "outputs": [
        {
          "internalType": "uint256",
          "name": "",
          "type": "uint256"
        }
      ],
      "stateMutability": "view",
      "type": "function"
    },
    {
      "inputs": [
        {
          "internalType": "address",
          "name": "address1",
          "type": "address"
        },
        {
          "internalType": "address",
          "name": "address2",
          "type": "address"
        },
        {
          "internalType": "uint256",
          "name": "inputAmount",
          "type": "uint256"
        }
      ],
      "name": "swapAsset",
      "outputs": [],
      "stateMutability": "payable",
      "type": "function"
    },
    {
      "stateMutability": "payable",
      "type": "receive"
    }
  ],
  "transactionHash": "0x4a3a235d06206a22080d652e9d5919390f2de80d41a50d74cc4a28eaa4f1b95e",
  "args": [
    "0xBCfe50560e5ab23Aa12c5B231fa91c9d113cbB70"
  ],
  "numDeployments": 1,
  "solcInputHash": "30e751f29dc882e93d446105100fc085",
  "bytecode": "0x60806040523480156200001157600080fd5b50604051620026ce380380620026ce8339818101604052810190620000379190620000e8565b806000806101000a81548173ffffffffffffffffffffffffffffffffffffffff021916908373ffffffffffffffffffffffffffffffffffffffff160217905550506200011a565b600080fd5b600073ffffffffffffffffffffffffffffffffffffffff82169050919050565b6000620000b08262000083565b9050919050565b620000c281620000a3565b8114620000ce57600080fd5b50565b600081519050620000e281620000b7565b92915050565b6000602082840312156200010157620001006200007e565b5b60006200011184828501620000d1565b91505092915050565b6125a4806200012a6000396000f3fe60806040526004361061002d5760003560e01c8063635bc0c214610036578063fe9f5c051461007357610034565b3661003457005b005b34801561004257600080fd5b5061005d60048036038101906100589190612146565b61008f565b60405161006a91906121a8565b60405180910390f35b61008d60048036038101906100889190612146565b6106d6565b005b60008060008054906101000a900473ffffffffffffffffffffffffffffffffffffffff1673ffffffffffffffffffffffffffffffffffffffff16637663f82286866040518363ffffffff1660e01b81526004016100ed9291906121d2565b60206040518083038186803b15801561010557600080fd5b505afa158015610119573d6000803e3d6000fd5b505050506040513d601f19601f8201168201806040525081019061013d9190612233565b156102855760008060009054906101000a900473ffffffffffffffffffffffffffffffffffffffff1673ffffffffffffffffffffffffffffffffffffffff16638b273a6887876040518363ffffffff1660e01b81526004016101a09291906121d2565b60206040518083038186803b1580156101b857600080fd5b505afa1580156101cc573d6000803e3d6000fd5b505050506040513d601f19601f820116820180604052508101906101f091906122b0565b90508073ffffffffffffffffffffffffffffffffffffffff166328da1aef87866040518363ffffffff1660e01b815260040161022d9291906122dd565b60206040518083038186803b15801561024557600080fd5b505afa158015610259573d6000803e3d6000fd5b505050506040513d601f19601f8201168201806040525081019061027d919061231b565b9150506106cb565b600073ffffffffffffffffffffffffffffffffffffffff1660008054906101000a900473ffffffffffffffffffffffffffffffffffffffff1673ffffffffffffffffffffffffffffffffffffffff16635553246087876040518363ffffffff1660e01b81526004016102f89291906121d2565b60206040518083038186803b15801561031057600080fd5b505afa158015610324573d6000803e3d6000fd5b505050506040513d601f19601f82011682018060405250810190610348919061235d565b73ffffffffffffffffffffffffffffffffffffffff16146106985760008060009054906101000a900473ffffffffffffffffffffffffffffffffffffffff1673ffffffffffffffffffffffffffffffffffffffff16635553246087876040518363ffffffff1660e01b81526004016103c19291906121d2565b60206040518083038186803b1580156103d957600080fd5b505afa1580156103ed573d6000803e3d6000fd5b505050506040513d601f19601f82011682018060405250810190610411919061235d565b905060008060009054906101000a900473ffffffffffffffffffffffffffffffffffffffff1673ffffffffffffffffffffffffffffffffffffffff16638b273a6888846040518363ffffffff1660e01b81526004016104719291906121d2565b60206040518083038186803b15801561048957600080fd5b505afa15801561049d573d6000803e3d6000fd5b505050506040513d601f19601f820116820180604052508101906104c191906122b0565b905060008060009054906101000a900473ffffffffffffffffffffffffffffffffffffffff1673ffffffffffffffffffffffffffffffffffffffff16638b273a6888856040518363ffffffff1660e01b81526004016105219291906121d2565b60206040518083038186803b15801561053957600080fd5b505afa15801561054d573d6000803e3d6000fd5b505050506040513d601f19601f8201168201806040525081019061057191906122b0565b905060008273ffffffffffffffffffffffffffffffffffffffff166328da1aef8a896040518363ffffffff1660e01b81526004016105b09291906122dd565b60206040518083038186803b1580156105c857600080fd5b505afa1580156105dc573d6000803e3d6000fd5b505050506040513d601f19601f82011682018060405250810190610600919061231b565b90508173ffffffffffffffffffffffffffffffffffffffff166328da1aef85836040518363ffffffff1660e01b815260040161063d9291906122dd565b60206040518083038186803b15801561065557600080fd5b505afa158015610669573d6000803e3d6000fd5b505050506040513d601f19601f8201168201806040525081019061068d919061231b565b9450505050506106ca565b6040517f8bb120b500000000000000000000000000000000000000000000000000000000815260040160405180910390fd5b5b809150509392505050565b600060149054906101000a900460ff1615610726576040517f08c379a000000000000000000000000000000000000000000000000000000000815260040161071d906123e7565b60405180910390fd5b6001600060146101000a81548160ff02191690831515021790555060008054906101000a900473ffffffffffffffffffffffffffffffffffffffff1673ffffffffffffffffffffffffffffffffffffffff16637663f82284846040518363ffffffff1660e01b815260040161079c9291906121d2565b60206040518083038186803b1580156107b457600080fd5b505afa1580156107c8573d6000803e3d6000fd5b505050506040513d601f19601f820116820180604052508101906107ec9190612233565b1561105c5760008060009054906101000a900473ffffffffffffffffffffffffffffffffffffffff1673ffffffffffffffffffffffffffffffffffffffff16638b273a6885856040518363ffffffff1660e01b815260040161084f9291906121d2565b60206040518083038186803b15801561086757600080fd5b505afa15801561087b573d6000803e3d6000fd5b505050506040513d601f19601f8201168201806040525081019061089f91906122b0565b905060008373ffffffffffffffffffffffffffffffffffffffff166370a08231306040518263ffffffff1660e01b81526004016108dc9190612407565b60206040518083038186803b1580156108f457600080fd5b505afa158015610908573d6000803e3d6000fd5b505050506040513d601f19601f8201168201806040525081019061092c919061231b565b90508473ffffffffffffffffffffffffffffffffffffffff168273ffffffffffffffffffffffffffffffffffffffff1663ce5efee36040518163ffffffff1660e01b815260040160206040518083038186803b15801561098b57600080fd5b505afa15801561099f573d6000803e3d6000fd5b505050506040513d601f19601f820116820180604052508101906109c3919061235d565b73ffffffffffffffffffffffffffffffffffffffff161415610beb578473ffffffffffffffffffffffffffffffffffffffff166323b872dd3330866040518463ffffffff1660e01b8152600401610a1c93929190612422565b602060405180830381600087803b158015610a3657600080fd5b505af1158015610a4a573d6000803e3d6000fd5b505050506040513d601f19601f82011682018060405250810190610a6e9190612233565b508473ffffffffffffffffffffffffffffffffffffffff1663095ea7b383856040518363ffffffff1660e01b8152600401610aaa9291906122dd565b602060405180830381600087803b158015610ac457600080fd5b505af1158015610ad8573d6000803e3d6000fd5b505050506040513d601f19601f82011682018060405250810190610afc9190612233565b508173ffffffffffffffffffffffffffffffffffffffff16634257dc4c8373ffffffffffffffffffffffffffffffffffffffff166354cf2aeb6040518163ffffffff1660e01b815260040160206040518083038186803b158015610b5f57600080fd5b505afa158015610b73573d6000803e3d6000fd5b505050506040513d601f19601f82011682018060405250810190610b97919061231b565b856040518363ffffffff1660e01b8152600401610bb491906121a8565b6000604051808303818588803b158015610bcd57600080fd5b505af1158015610be1573d6000803e3d6000fd5b5050505050610df3565b8473ffffffffffffffffffffffffffffffffffffffff166323b872dd3330866040518463ffffffff1660e01b8152600401610c2893929190612422565b602060405180830381600087803b158015610c4257600080fd5b505af1158015610c56573d6000803e3d6000fd5b505050506040513d601f19601f82011682018060405250810190610c7a9190612233565b508473ffffffffffffffffffffffffffffffffffffffff1663095ea7b383856040518363ffffffff1660e01b8152600401610cb69291906122dd565b602060405180830381600087803b158015610cd057600080fd5b505af1158015610ce4573d6000803e3d6000fd5b505050506040513d601f19601f82011682018060405250810190610d089190612233565b508173ffffffffffffffffffffffffffffffffffffffff1663dc1716248373ffffffffffffffffffffffffffffffffffffffff166354cf2aeb6040518163ffffffff1660e01b815260040160206040518083038186803b158015610d6b57600080fd5b505afa158015610d7f573d6000803e3d6000fd5b505050506040513d601f19601f82011682018060405250810190610da3919061231b565b856040518363ffffffff1660e01b8152600401610dc091906121a8565b6000604051808303818588803b158015610dd957600080fd5b505af1158015610ded573d6000803e3d6000fd5b50505050505b6000818573ffffffffffffffffffffffffffffffffffffffff166370a08231306040518263ffffffff1660e01b8152600401610e2f9190612407565b60206040518083038186803b158015610e4757600080fd5b505afa158015610e5b573d6000803e3d6000fd5b505050506040513d601f19601f82011682018060405250810190610e7f919061231b565b610e899190612488565b90508473ffffffffffffffffffffffffffffffffffffffff1663a9059cbb33836040518363ffffffff1660e01b8152600401610ec69291906122dd565b602060405180830381600087803b158015610ee057600080fd5b505af1158015610ef4573d6000803e3d6000fd5b505050506040513d601f19601f82011682018060405250810190610f189190612233565b5060008373ffffffffffffffffffffffffffffffffffffffff166354cf2aeb6040518163ffffffff1660e01b815260040160206040518083038186803b158015610f6157600080fd5b505afa158015610f75573d6000803e3d6000fd5b505050506040513d601f19601f82011682018060405250810190610f99919061231b565b34610fa49190612488565b905060003373ffffffffffffffffffffffffffffffffffffffff1682604051610fcc906124ed565b60006040518083038185875af1925050503d8060008114611009576040519150601f19603f3d011682016040523d82523d6000602084013e61100e565b606091505b5050905080611052576040517f08c379a00000000000000000000000000000000000000000000000000000000081526004016110499061254e565b60405180910390fd5b505050505061208e565b600073ffffffffffffffffffffffffffffffffffffffff1660008054906101000a900473ffffffffffffffffffffffffffffffffffffffff1673ffffffffffffffffffffffffffffffffffffffff16635553246085856040518363ffffffff1660e01b81526004016110cf9291906121d2565b60206040518083038186803b1580156110e757600080fd5b505afa1580156110fb573d6000803e3d6000fd5b505050506040513d601f19601f8201168201806040525081019061111f919061235d565b73ffffffffffffffffffffffffffffffffffffffff161461205b5760008060009054906101000a900473ffffffffffffffffffffffffffffffffffffffff1673ffffffffffffffffffffffffffffffffffffffff16635553246085856040518363ffffffff1660e01b81526004016111989291906121d2565b60206040518083038186803b1580156111b057600080fd5b505afa1580156111c4573d6000803e3d6000fd5b505050506040513d601f19601f820116820180604052508101906111e8919061235d565b905060008060009054906101000a900473ffffffffffffffffffffffffffffffffffffffff1673ffffffffffffffffffffffffffffffffffffffff16638b273a6886846040518363ffffffff1660e01b81526004016112489291906121d2565b60206040518083038186803b15801561126057600080fd5b505afa158015611274573d6000803e3d6000fd5b505050506040513d601f19601f8201168201806040525081019061129891906122b0565b905060008060009054906101000a900473ffffffffffffffffffffffffffffffffffffffff1673ffffffffffffffffffffffffffffffffffffffff16638b273a6886856040518363ffffffff1660e01b81526004016112f89291906121d2565b60206040518083038186803b15801561131057600080fd5b505afa158015611324573d6000803e3d6000fd5b505050506040513d601f19601f8201168201806040525081019061134891906122b0565b905060008373ffffffffffffffffffffffffffffffffffffffff166370a08231306040518263ffffffff1660e01b81526004016113859190612407565b60206040518083038186803b15801561139d57600080fd5b505afa1580156113b1573d6000803e3d6000fd5b505050506040513d601f19601f820116820180604052508101906113d5919061231b565b905060008673ffffffffffffffffffffffffffffffffffffffff166370a08231306040518263ffffffff1660e01b81526004016114129190612407565b60206040518083038186803b15801561142a57600080fd5b505afa15801561143e573d6000803e3d6000fd5b505050506040513d601f19601f82011682018060405250810190611462919061231b565b90508773ffffffffffffffffffffffffffffffffffffffff168473ffffffffffffffffffffffffffffffffffffffff1663ce5efee36040518163ffffffff1660e01b815260040160206040518083038186803b1580156114c157600080fd5b505afa1580156114d5573d6000803e3d6000fd5b505050506040513d601f19601f820116820180604052508101906114f9919061235d565b73ffffffffffffffffffffffffffffffffffffffff161415611721578773ffffffffffffffffffffffffffffffffffffffff166323b872dd3330896040518463ffffffff1660e01b815260040161155293929190612422565b602060405180830381600087803b15801561156c57600080fd5b505af1158015611580573d6000803e3d6000fd5b505050506040513d601f19601f820116820180604052508101906115a49190612233565b508773ffffffffffffffffffffffffffffffffffffffff1663095ea7b385886040518363ffffffff1660e01b81526004016115e09291906122dd565b602060405180830381600087803b1580156115fa57600080fd5b505af115801561160e573d6000803e3d6000fd5b505050506040513d601f19601f820116820180604052508101906116329190612233565b508373ffffffffffffffffffffffffffffffffffffffff16634257dc4c8573ffffffffffffffffffffffffffffffffffffffff166354cf2aeb6040518163ffffffff1660e01b815260040160206040518083038186803b15801561169557600080fd5b505afa1580156116a9573d6000803e3d6000fd5b505050506040513d601f19601f820116820180604052508101906116cd919061231b565b886040518363ffffffff1660e01b81526004016116ea91906121a8565b6000604051808303818588803b15801561170357600080fd5b505af1158015611717573d6000803e3d6000fd5b5050505050611929565b8773ffffffffffffffffffffffffffffffffffffffff166323b872dd3330896040518463ffffffff1660e01b815260040161175e93929190612422565b602060405180830381600087803b15801561177857600080fd5b505af115801561178c573d6000803e3d6000fd5b505050506040513d601f19601f820116820180604052508101906117b09190612233565b508773ffffffffffffffffffffffffffffffffffffffff1663095ea7b385886040518363ffffffff1660e01b81526004016117ec9291906122dd565b602060405180830381600087803b15801561180657600080fd5b505af115801561181a573d6000803e3d6000fd5b505050506040513d601f19601f8201168201806040525081019061183e9190612233565b508373ffffffffffffffffffffffffffffffffffffffff1663dc1716248573ffffffffffffffffffffffffffffffffffffffff166354cf2aeb6040518163ffffffff1660e01b815260040160206040518083038186803b1580156118a157600080fd5b505afa1580156118b5573d6000803e3d6000fd5b505050506040513d601f19601f820116820180604052508101906118d9919061231b565b886040518363ffffffff1660e01b81526004016118f691906121a8565b6000604051808303818588803b15801561190f57600080fd5b505af1158015611923573d6000803e3d6000fd5b50505050505b6000828673ffffffffffffffffffffffffffffffffffffffff166370a08231306040518263ffffffff1660e01b81526004016119659190612407565b60206040518083038186803b15801561197d57600080fd5b505afa158015611991573d6000803e3d6000fd5b505050506040513d601f19601f820116820180604052508101906119b5919061231b565b6119bf9190612488565b90508873ffffffffffffffffffffffffffffffffffffffff168473ffffffffffffffffffffffffffffffffffffffff1663ce5efee36040518163ffffffff1660e01b815260040160206040518083038186803b158015611a1e57600080fd5b505afa158015611a32573d6000803e3d6000fd5b505050506040513d601f19601f82011682018060405250810190611a56919061235d565b73ffffffffffffffffffffffffffffffffffffffff161415611bee578573ffffffffffffffffffffffffffffffffffffffff1663095ea7b385836040518363ffffffff1660e01b8152600401611aad9291906122dd565b602060405180830381600087803b158015611ac757600080fd5b505af1158015611adb573d6000803e3d6000fd5b505050506040513d601f19601f82011682018060405250810190611aff9190612233565b508373ffffffffffffffffffffffffffffffffffffffff16634257dc4c8573ffffffffffffffffffffffffffffffffffffffff166354cf2aeb6040518163ffffffff1660e01b815260040160206040518083038186803b158015611b6257600080fd5b505afa158015611b76573d6000803e3d6000fd5b505050506040513d601f19601f82011682018060405250810190611b9a919061231b565b836040518363ffffffff1660e01b8152600401611bb791906121a8565b6000604051808303818588803b158015611bd057600080fd5b505af1158015611be4573d6000803e3d6000fd5b5050505050611d66565b8573ffffffffffffffffffffffffffffffffffffffff1663095ea7b385836040518363ffffffff1660e01b8152600401611c299291906122dd565b602060405180830381600087803b158015611c4357600080fd5b505af1158015611c57573d6000803e3d6000fd5b505050506040513d601f19601f82011682018060405250810190611c7b9190612233565b508373ffffffffffffffffffffffffffffffffffffffff1663dc1716248573ffffffffffffffffffffffffffffffffffffffff166354cf2aeb6040518163ffffffff1660e01b815260040160206040518083038186803b158015611cde57600080fd5b505afa158015611cf2573d6000803e3d6000fd5b505050506040513d601f19601f82011682018060405250810190611d16919061231b565b836040518363ffffffff1660e01b8152600401611d3391906121a8565b6000604051808303818588803b158015611d4c57600080fd5b505af1158015611d60573d6000803e3d6000fd5b50505050505b6000828973ffffffffffffffffffffffffffffffffffffffff166370a08231306040518263ffffffff1660e01b8152600401611da29190612407565b60206040518083038186803b158015611dba57600080fd5b505afa158015611dce573d6000803e3d6000fd5b505050506040513d601f19601f82011682018060405250810190611df2919061231b565b611dfc9190612488565b90508873ffffffffffffffffffffffffffffffffffffffff1663a9059cbb33836040518363ffffffff1660e01b8152600401611e399291906122dd565b602060405180830381600087803b158015611e5357600080fd5b505af1158015611e67573d6000803e3d6000fd5b505050506040513d601f19601f82011682018060405250810190611e8b9190612233565b5060008573ffffffffffffffffffffffffffffffffffffffff166354cf2aeb6040518163ffffffff1660e01b815260040160206040518083038186803b158015611ed457600080fd5b505afa158015611ee8573d6000803e3d6000fd5b505050506040513d601f19601f82011682018060405250810190611f0c919061231b565b8773ffffffffffffffffffffffffffffffffffffffff166354cf2aeb6040518163ffffffff1660e01b815260040160206040518083038186803b158015611f5257600080fd5b505afa158015611f66573d6000803e3d6000fd5b505050506040513d601f19601f82011682018060405250810190611f8a919061231b565b34611f959190612488565b611f9f9190612488565b905060003373ffffffffffffffffffffffffffffffffffffffff1682604051611fc7906124ed565b60006040518083038185875af1925050503d8060008114612004576040519150601f19603f3d011682016040523d82523d6000602084013e612009565b606091505b505090508061204d576040517f08c379a00000000000000000000000000000000000000000000000000000000081526004016120449061254e565b60405180910390fd5b50505050505050505061208d565b6040517f8bb120b500000000000000000000000000000000000000000000000000000000815260040160405180910390fd5b5b60008060146101000a81548160ff021916908315150217905550505050565b600080fd5b600073ffffffffffffffffffffffffffffffffffffffff82169050919050565b60006120dd826120b2565b9050919050565b6120ed816120d2565b81146120f857600080fd5b50565b60008135905061210a816120e4565b92915050565b6000819050919050565b61212381612110565b811461212e57600080fd5b50565b6000813590506121408161211a565b92915050565b60008060006060848603121561215f5761215e6120ad565b5b600061216d868287016120fb565b935050602061217e868287016120fb565b925050604061218f86828701612131565b9150509250925092565b6121a281612110565b82525050565b60006020820190506121bd6000830184612199565b92915050565b6121cc816120d2565b82525050565b60006040820190506121e760008301856121c3565b6121f460208301846121c3565b9392505050565b60008115159050919050565b612210816121fb565b811461221b57600080fd5b50565b60008151905061222d81612207565b92915050565b600060208284031215612249576122486120ad565b5b60006122578482850161221e565b91505092915050565b600061226b826120b2565b9050919050565b600061227d82612260565b9050919050565b61228d81612272565b811461229857600080fd5b50565b6000815190506122aa81612284565b92915050565b6000602082840312156122c6576122c56120ad565b5b60006122d48482850161229b565b91505092915050565b60006040820190506122f260008301856121c3565b6122ff6020830184612199565b9392505050565b6000815190506123158161211a565b92915050565b600060208284031215612331576123306120ad565b5b600061233f84828501612306565b91505092915050565b600081519050612357816120e4565b92915050565b600060208284031215612373576123726120ad565b5b600061238184828501612348565b91505092915050565b600082825260208201905092915050565b7f4e6f2072652d656e7472616e6379000000000000000000000000000000000000600082015250565b60006123d1600e8361238a565b91506123dc8261239b565b602082019050919050565b60006020820190508181036000830152612400816123c4565b9050919050565b600060208201905061241c60008301846121c3565b92915050565b600060608201905061243760008301866121c3565b61244460208301856121c3565b6124516040830184612199565b949350505050565b7f4e487b7100000000000000000000000000000000000000000000000000000000600052601160045260246000fd5b600061249382612110565b915061249e83612110565b9250828210156124b1576124b0612459565b5b828203905092915050565b600081905092915050565b50565b60006124d76000836124bc565b91506124e2826124c7565b600082019050919050565b60006124f8826124ca565b9150819050919050565b7f4661696c656420746f2073656e64204574686572000000000000000000000000600082015250565b600061253860148361238a565b915061254382612502565b602082019050919050565b600060208201905081810360008301526125678161252b565b905091905056fea2646970667358221220d8a664d5a824f0d0b0773710e4e28005e2de6f1c973e60f16fa83acc8c9325ec64736f6c63430008090033",
  "devdoc": {
    "details": "Facilitates token swaps utilizing defined liquidity pools, offering direct swaps and routed swaps through an intermediary. Leverages the PoolTracker contract to access liquidity pool information and perform asset exchanges.",
    "kind": "dev",
    "methods": {
      "constructor": {
        "params": {
          "tracker": "Address of the PoolTracker contract instance."
        }
      },
      "getSwapAmount(address,address,uint256)": {
        "details": "Considers direct swaps and routed swaps through an intermediary token, utilizing PoolTracker for calculations.",
        "params": {
          "address1": "The token being sold.",
          "address2": "The token being bought.",
          "inputAmount": "The amount of `address1` tokens to swap."
        },
        "returns": {
          "_0": "output The estimated amount of `address2` tokens to be received."
        }
      },
      "swapAsset(address,address,uint256)": {
        "details": "This function supports direct swaps between tokens in a single pool or routed swaps through an intermediary token. Uses PoolTracker to determine the best swap path and perform the exchange.",
        "params": {
          "address1": "The token being sold by the user.",
          "address2": "The token being purchased by the user.",
          "inputAmount": "The amount of `address1` tokens to swap."
        }
      }
    },
    "title": "SwapRouter",
    "version": 1
  },
  "userdoc": {
    "kind": "user",
    "methods": {
      "getSwapAmount(address,address,uint256)": {
        "notice": "Estimates the output amount for a swap from `address1` to `address2` given an `inputAmount` of `address1`."
      },
      "swapAsset(address,address,uint256)": {
        "notice": "Swaps `inputAmount` of `address1` tokens for `address2` tokens."
      }
    },
    "version": 1
  },
  "storageLayout": {
    "storage": [
      {
        "astId": 2908,
        "contract": "contracts/Dex/WeaveSwap.sol:SwapRouter",
        "label": "poolTracker",
        "offset": 0,
        "slot": "0",
        "type": "t_contract(PoolTracker)2883"
      },
      {
        "astId": 2910,
        "contract": "contracts/Dex/WeaveSwap.sol:SwapRouter",
        "label": "locked",
        "offset": 20,
        "slot": "0",
        "type": "t_bool"
      }
    ],
    "types": {
      "t_bool": {
        "encoding": "inplace",
        "label": "bool",
        "numberOfBytes": "1"
      },
      "t_contract(PoolTracker)2883": {
        "encoding": "inplace",
        "label": "contract PoolTracker",
        "numberOfBytes": "20"
      }
    }
  }
}