{
  "address": "0x8A791620dd6260079BF849Dc5567aDC3F2FdC318",
  "abi": [
    {
      "inputs": [
        {
          "internalType": "address",
          "name": "_token",
          "type": "address"
        },
        {
          "internalType": "address",
          "name": "newBorrowingContract",
          "type": "address"
        }
      ],
      "stateMutability": "nonpayable",
      "type": "constructor"
    },
    {
      "inputs": [],
      "name": "lending_addressNotAllowed",
      "type": "error"
    },
    {
      "inputs": [],
      "name": "lending_notEnoughTimePassed",
      "type": "error"
    },
    {
      "inputs": [],
      "name": "lending_outOfReserve",
      "type": "error"
    },
    {
      "inputs": [],
      "name": "lending_reserveNotAvailable",
      "type": "error"
    },
    {
      "inputs": [],
      "name": "amoutLended",
      "outputs": [
        {
          "internalType": "uint256",
          "name": "",
          "type": "uint256"
        }
      ],
      "stateMutability": "view",
      "type": "function"
    },
    {
      "inputs": [
        {
          "internalType": "uint256",
          "name": "_yield",
          "type": "uint256"
        }
      ],
      "name": "bookYield",
      "outputs": [],
      "stateMutability": "nonpayable",
      "type": "function"
    },
    {
      "inputs": [
        {
          "internalType": "uint256",
          "name": "amount",
          "type": "uint256"
        }
      ],
      "name": "borrow",
      "outputs": [],
      "stateMutability": "nonpayable",
      "type": "function"
    },
    {
      "inputs": [],
      "name": "borrowingAPY",
      "outputs": [
        {
          "internalType": "uint256",
          "name": "",
          "type": "uint256"
        }
      ],
      "stateMutability": "view",
      "type": "function"
    },
    {
      "inputs": [],
      "name": "borrowingContract",
      "outputs": [
        {
          "internalType": "address",
          "name": "",
          "type": "address"
        }
      ],
      "stateMutability": "view",
      "type": "function"
    },
    {
      "inputs": [],
      "name": "farmedYield",
      "outputs": [
        {
          "internalType": "uint256",
          "name": "",
          "type": "uint256"
        }
      ],
      "stateMutability": "view",
      "type": "function"
    },
    {
      "inputs": [
        {
          "internalType": "address",
          "name": "user",
          "type": "address"
        },
        {
          "internalType": "uint256",
          "name": "tokenAmount",
          "type": "uint256"
        }
      ],
      "name": "getYield",
      "outputs": [
        {
          "internalType": "uint256",
          "name": "",
          "type": "uint256"
        }
      ],
      "stateMutability": "nonpayable",
      "type": "function"
    },
    {
      "inputs": [
        {
          "internalType": "address",
          "name": "",
          "type": "address"
        }
      ],
      "name": "lastYieldFarmedTime",
      "outputs": [
        {
          "internalType": "uint256",
          "name": "",
          "type": "uint256"
        }
      ],
      "stateMutability": "view",
      "type": "function"
    },
    {
      "inputs": [
        {
          "internalType": "uint256",
          "name": "amount",
          "type": "uint256"
        }
      ],
      "name": "lend",
      "outputs": [],
      "stateMutability": "nonpayable",
      "type": "function"
    },
    {
      "inputs": [],
      "name": "ownerContract",
      "outputs": [
        {
          "internalType": "address",
          "name": "",
          "type": "address"
        }
      ],
      "stateMutability": "view",
      "type": "function"
    },
    {
      "inputs": [],
      "name": "reserve",
      "outputs": [
        {
          "internalType": "uint256",
          "name": "",
          "type": "uint256"
        }
      ],
      "stateMutability": "view",
      "type": "function"
    },
    {
      "inputs": [
        {
          "internalType": "uint256",
          "name": "newAPY",
          "type": "uint256"
        }
      ],
      "name": "setBorrowingAPY",
      "outputs": [],
      "stateMutability": "nonpayable",
      "type": "function"
    },
    {
      "inputs": [],
      "name": "token",
      "outputs": [
        {
          "internalType": "contract IERC20",
          "name": "",
          "type": "address"
        }
      ],
      "stateMutability": "view",
      "type": "function"
    },
    {
      "inputs": [
        {
          "internalType": "uint256",
          "name": "amount",
          "type": "uint256"
        }
      ],
      "name": "withdraw",
      "outputs": [],
      "stateMutability": "nonpayable",
      "type": "function"
    },
    {
      "inputs": [],
      "name": "yield",
      "outputs": [
        {
          "internalType": "uint256",
          "name": "",
          "type": "uint256"
        }
      ],
      "stateMutability": "view",
      "type": "function"
    },
    {
      "inputs": [
        {
          "internalType": "address",
          "name": "",
          "type": "address"
        }
      ],
      "name": "yieldTaken",
      "outputs": [
        {
          "internalType": "uint256",
          "name": "",
          "type": "uint256"
        }
      ],
      "stateMutability": "view",
      "type": "function"
    }
  ],
  "transactionHash": "0x8ebee7c48eeba24c61d58400fb407c8830cc4e927cc2f0ea9517559f5de04bb3",
  "args": [
    "0x5FC8d32690cc91D4c39d9d3abcBD16989F875707",
    "0x2279B7A0a67DB372996a5FaB50D91eAA73d2eBe6"
  ],
  "numDeployments": 1,
  "solcInputHash": "620af41fcee51830ddf9fa8486a05bf7",
  "bytecode": "0x60806040523480156200001157600080fd5b50604051620015a3380380620015a383398181016040528101906200003791906200016b565b80600260006101000a81548173ffffffffffffffffffffffffffffffffffffffff021916908373ffffffffffffffffffffffffffffffffffffffff160217905550816000806101000a81548173ffffffffffffffffffffffffffffffffffffffff021916908373ffffffffffffffffffffffffffffffffffffffff16021790555033600160006101000a81548173ffffffffffffffffffffffffffffffffffffffff021916908373ffffffffffffffffffffffffffffffffffffffff1602179055505050620001b2565b600080fd5b600073ffffffffffffffffffffffffffffffffffffffff82169050919050565b6000620001338262000106565b9050919050565b620001458162000126565b81146200015157600080fd5b50565b60008151905062000165816200013a565b92915050565b6000806040838503121562000185576200018462000101565b5b6000620001958582860162000154565b9250506020620001a88582860162000154565b9150509250929050565b6113e180620001c26000396000f3fe608060405234801561001057600080fd5b50600436106101005760003560e01c8063a6aa57ce11610097578063ed433abc11610066578063ed433abc14610275578063f88cc4a214610293578063fc0c546a146102c3578063ffebfc8c146102e157610100565b8063a6aa57ce14610203578063c5ebeaec1461021f578063cd3293de1461023b578063cd6820601461025957610100565b806384a965ed116100d357806384a965ed1461017b5780639770b125146101995780639a61c36a146101b5578063a2b2c32a146101e557610100565b806328593984146101055780632e1a7d4d146101235780636140dfd01461013f5780637f74ac151461015d575b600080fd5b61010d610311565b60405161011a9190610f8b565b60405180910390f35b61013d60048036038101906101389190610fd7565b610317565b005b61014761050c565b6040516101549190610f8b565b60405180910390f35b610165610512565b6040516101729190611045565b60405180910390f35b610183610538565b6040516101909190611045565b60405180910390f35b6101b360048036038101906101ae9190610fd7565b61055e565b005b6101cf60048036038101906101ca919061108c565b61064b565b6040516101dc9190610f8b565b60405180910390f35b6101ed610663565b6040516101fa9190610f8b565b60405180910390f35b61021d60048036038101906102189190610fd7565b610669565b005b61023960048036038101906102349190610fd7565b610818565b005b6102436109f4565b6040516102509190610f8b565b60405180910390f35b610273600480360381019061026e9190610fd7565b6109fa565b005b61027d610af9565b60405161028a9190610f8b565b60405180910390f35b6102ad60048036038101906102a891906110b9565b610aff565b6040516102ba9190610f8b565b60405180910390f35b6102cb610e85565b6040516102d89190611158565b60405180910390f35b6102fb60048036038101906102f6919061108c565b610ea9565b6040516103089190610f8b565b60405180910390f35b60065481565b600160009054906101000a900473ffffffffffffffffffffffffffffffffffffffff1673ffffffffffffffffffffffffffffffffffffffff163373ffffffffffffffffffffffffffffffffffffffff16141580156103c35750600260009054906101000a900473ffffffffffffffffffffffffffffffffffffffff1673ffffffffffffffffffffffffffffffffffffffff163373ffffffffffffffffffffffffffffffffffffffff1614155b156103fa576040517feed3ab2300000000000000000000000000000000000000000000000000000000815260040160405180910390fd5b60008160045461040a91906111a2565b1015610442576040517f5a6c8ab300000000000000000000000000000000000000000000000000000000815260040160405180910390fd5b60008054906101000a900473ffffffffffffffffffffffffffffffffffffffff1673ffffffffffffffffffffffffffffffffffffffff1663a9059cbb33836040518363ffffffff1660e01b815260040161049d9291906111d6565b602060405180830381600087803b1580156104b757600080fd5b505af11580156104cb573d6000803e3d6000fd5b505050506040513d601f19601f820116820180604052508101906104ef9190611237565b50806004600082825461050291906111a2565b9250508190555050565b60055481565b600160009054906101000a900473ffffffffffffffffffffffffffffffffffffffff1681565b600260009054906101000a900473ffffffffffffffffffffffffffffffffffffffff1681565b600160009054906101000a900473ffffffffffffffffffffffffffffffffffffffff1673ffffffffffffffffffffffffffffffffffffffff163373ffffffffffffffffffffffffffffffffffffffff161415801561060a5750600260009054906101000a900473ffffffffffffffffffffffffffffffffffffffff1673ffffffffffffffffffffffffffffffffffffffff163373ffffffffffffffffffffffffffffffffffffffff1614155b15610641576040517feed3ab2300000000000000000000000000000000000000000000000000000000815260040160405180910390fd5b8060058190555050565b60096020528060005260406000206000915090505481565b60035481565b600160009054906101000a900473ffffffffffffffffffffffffffffffffffffffff1673ffffffffffffffffffffffffffffffffffffffff163373ffffffffffffffffffffffffffffffffffffffff16141580156107155750600260009054906101000a900473ffffffffffffffffffffffffffffffffffffffff1673ffffffffffffffffffffffffffffffffffffffff163373ffffffffffffffffffffffffffffffffffffffff1614155b1561074c576040517feed3ab2300000000000000000000000000000000000000000000000000000000815260040160405180910390fd5b60008054906101000a900473ffffffffffffffffffffffffffffffffffffffff1673ffffffffffffffffffffffffffffffffffffffff166323b872dd3330846040518463ffffffff1660e01b81526004016107a993929190611264565b602060405180830381600087803b1580156107c357600080fd5b505af11580156107d7573d6000803e3d6000fd5b505050506040513d601f19601f820116820180604052508101906107fb9190611237565b50806004600082825461080e919061129b565b9250508190555050565b600160009054906101000a900473ffffffffffffffffffffffffffffffffffffffff1673ffffffffffffffffffffffffffffffffffffffff163373ffffffffffffffffffffffffffffffffffffffff16141580156108c45750600260009054906101000a900473ffffffffffffffffffffffffffffffffffffffff1673ffffffffffffffffffffffffffffffffffffffff163373ffffffffffffffffffffffffffffffffffffffff1614155b156108fb576040517feed3ab2300000000000000000000000000000000000000000000000000000000815260040160405180910390fd5b60008160045461090b91906111a2565b1015610943576040517f810ffca300000000000000000000000000000000000000000000000000000000815260040160405180910390fd5b60008054906101000a900473ffffffffffffffffffffffffffffffffffffffff1673ffffffffffffffffffffffffffffffffffffffff1663a9059cbb33836040518363ffffffff1660e01b815260040161099e9291906111d6565b602060405180830381600087803b1580156109b857600080fd5b505af11580156109cc573d6000803e3d6000fd5b505050506040513d601f19601f820116820180604052508101906109f09190611237565b5050565b60045481565b600160009054906101000a900473ffffffffffffffffffffffffffffffffffffffff1673ffffffffffffffffffffffffffffffffffffffff163373ffffffffffffffffffffffffffffffffffffffff1614158015610aa65750600260009054906101000a900473ffffffffffffffffffffffffffffffffffffffff1673ffffffffffffffffffffffffffffffffffffffff163373ffffffffffffffffffffffffffffffffffffffff1614155b15610add576040517feed3ab2300000000000000000000000000000000000000000000000000000000815260040160405180910390fd5b8060066000828254610aef919061129b565b9250508190555050565b60075481565b6000600160009054906101000a900473ffffffffffffffffffffffffffffffffffffffff1673ffffffffffffffffffffffffffffffffffffffff163373ffffffffffffffffffffffffffffffffffffffff1614158015610bad5750600260009054906101000a900473ffffffffffffffffffffffffffffffffffffffff1673ffffffffffffffffffffffffffffffffffffffff163373ffffffffffffffffffffffffffffffffffffffff1614155b15610be4576040517feed3ab2300000000000000000000000000000000000000000000000000000000815260040160405180910390fd5b60001515610bf184610ec1565b15151415610c2b576040517f1fa8d33700000000000000000000000000000000000000000000000000000000815260040160405180910390fd5b42600860008573ffffffffffffffffffffffffffffffffffffffff1673ffffffffffffffffffffffffffffffffffffffff168152602001908152602001600020819055506000600960008573ffffffffffffffffffffffffffffffffffffffff1673ffffffffffffffffffffffffffffffffffffffff1681526020019081526020016000205490506000600354606485610cc591906112f1565b610ccf919061137a565b9050600060648283606486610ce491906112f1565b610cee919061137a565b600654610cfb91906111a2565b610d0591906112f1565b610d0f919061137a565b9050600754600654610d2191906111a2565b811115610d5a576040517f1fa8d33700000000000000000000000000000000000000000000000000000000815260040160405180910390fd5b80600960003373ffffffffffffffffffffffffffffffffffffffff1673ffffffffffffffffffffffffffffffffffffffff1681526020019081526020016000206000828254610da9919061129b565b925050819055508060076000828254610dc2919061129b565b9250508190555060008054906101000a900473ffffffffffffffffffffffffffffffffffffffff1673ffffffffffffffffffffffffffffffffffffffff1663a9059cbb876006546040518363ffffffff1660e01b8152600401610e269291906111d6565b602060405180830381600087803b158015610e4057600080fd5b505af1158015610e54573d6000803e3d6000fd5b505050506040513d601f19601f82011682018060405250810190610e789190611237565b5080935050505092915050565b60008054906101000a900473ffffffffffffffffffffffffffffffffffffffff1681565b60086020528060005260406000206000915090505481565b6000600860008373ffffffffffffffffffffffffffffffffffffffff1673ffffffffffffffffffffffffffffffffffffffff1681526020019081526020016000205060004290508062015180600860008673ffffffffffffffffffffffffffffffffffffffff1673ffffffffffffffffffffffffffffffffffffffff16815260200190815260200160002054610f57919061129b565b1015610f67576001915050610f6d565b60009150505b919050565b6000819050919050565b610f8581610f72565b82525050565b6000602082019050610fa06000830184610f7c565b92915050565b600080fd5b610fb481610f72565b8114610fbf57600080fd5b50565b600081359050610fd181610fab565b92915050565b600060208284031215610fed57610fec610fa6565b5b6000610ffb84828501610fc2565b91505092915050565b600073ffffffffffffffffffffffffffffffffffffffff82169050919050565b600061102f82611004565b9050919050565b61103f81611024565b82525050565b600060208201905061105a6000830184611036565b92915050565b61106981611024565b811461107457600080fd5b50565b60008135905061108681611060565b92915050565b6000602082840312156110a2576110a1610fa6565b5b60006110b084828501611077565b91505092915050565b600080604083850312156110d0576110cf610fa6565b5b60006110de85828601611077565b92505060206110ef85828601610fc2565b9150509250929050565b6000819050919050565b600061111e61111961111484611004565b6110f9565b611004565b9050919050565b600061113082611103565b9050919050565b600061114282611125565b9050919050565b61115281611137565b82525050565b600060208201905061116d6000830184611149565b92915050565b7f4e487b7100000000000000000000000000000000000000000000000000000000600052601160045260246000fd5b60006111ad82610f72565b91506111b883610f72565b9250828210156111cb576111ca611173565b5b828203905092915050565b60006040820190506111eb6000830185611036565b6111f86020830184610f7c565b9392505050565b60008115159050919050565b611214816111ff565b811461121f57600080fd5b50565b6000815190506112318161120b565b92915050565b60006020828403121561124d5761124c610fa6565b5b600061125b84828501611222565b91505092915050565b60006060820190506112796000830186611036565b6112866020830185611036565b6112936040830184610f7c565b949350505050565b60006112a682610f72565b91506112b183610f72565b9250827fffffffffffffffffffffffffffffffffffffffffffffffffffffffffffffffff038211156112e6576112e5611173565b5b828201905092915050565b60006112fc82610f72565b915061130783610f72565b9250817fffffffffffffffffffffffffffffffffffffffffffffffffffffffffffffffff04831182151516156113405761133f611173565b5b828202905092915050565b7f4e487b7100000000000000000000000000000000000000000000000000000000600052601260045260246000fd5b600061138582610f72565b915061139083610f72565b9250826113a05761139f61134b565b5b82820490509291505056fea264697066735822122070816982cf46c98d5d6b509116dbd91734dd3741035358c4ede140a9d61d5b5564736f6c63430008090033",
  "devdoc": {
    "details": "Implements lending and yield farming functionalities for a specific ERC20 token. This contract allows tokens to be lent out and borrowed, tracks yield farming activities, and allows for the accumulation and withdrawal of yield based on predefined APY.",
    "kind": "dev",
    "methods": {
      "borrow(uint256)": {
        "params": {
          "amount": "The amount of tokens to borrow."
        }
      },
      "constructor": {
        "params": {
          "_token": "The ERC20 token address for lending and borrowing."
        }
      },
      "getYield(address,uint256)": {
        "params": {
          "tokenAmount": "The amount of tokens used for calculating the user's share of the yield.",
          "user": "The address of the user farming yield."
        },
        "returns": {
          "_0": "uint256 The amount of yield available for the user."
        }
      },
      "lend(uint256)": {
        "params": {
          "amount": "The amount of tokens to lend."
        }
      },
      "setBorrowingAPY(uint256)": {
        "params": {
          "newAPY": "The new APY value."
        }
      },
      "withdraw(uint256)": {
        "params": {
          "amount": "The amount of tokens to withdraw from the reserve."
        }
      }
    },
    "title": "Lending",
    "version": 1
  },
  "userdoc": {
    "kind": "user",
    "methods": {
      "borrow(uint256)": {
        "notice": "Allows the owner to borrow tokens from the reserve."
      },
      "getYield(address,uint256)": {
        "notice": "Calculates and returns the available yield for a user. This function updates the yield taken and farmed yield accordingly."
      },
      "lend(uint256)": {
        "notice": "Allows the owner to lend tokens to the contract."
      },
      "setBorrowingAPY(uint256)": {
        "notice": "Sets the borrowing APY."
      },
      "withdraw(uint256)": {
        "notice": "Withdraws tokens from the reserve. This function allows the owner to withdraw tokens from the available reserve, reducing the reserve balance."
      }
    },
    "version": 1
  },
  "storageLayout": {
    "storage": [
      {
        "astId": 5432,
        "contract": "contracts/Lending/Pool.sol:Pool",
        "label": "token",
        "offset": 0,
        "slot": "0",
        "type": "t_contract(IERC20)126"
      },
      {
        "astId": 5434,
        "contract": "contracts/Lending/Pool.sol:Pool",
        "label": "ownerContract",
        "offset": 0,
        "slot": "1",
        "type": "t_address"
      },
      {
        "astId": 5436,
        "contract": "contracts/Lending/Pool.sol:Pool",
        "label": "borrowingContract",
        "offset": 0,
        "slot": "2",
        "type": "t_address"
      },
      {
        "astId": 5438,
        "contract": "contracts/Lending/Pool.sol:Pool",
        "label": "amoutLended",
        "offset": 0,
        "slot": "3",
        "type": "t_uint256"
      },
      {
        "astId": 5440,
        "contract": "contracts/Lending/Pool.sol:Pool",
        "label": "reserve",
        "offset": 0,
        "slot": "4",
        "type": "t_uint256"
      },
      {
        "astId": 5442,
        "contract": "contracts/Lending/Pool.sol:Pool",
        "label": "borrowingAPY",
        "offset": 0,
        "slot": "5",
        "type": "t_uint256"
      },
      {
        "astId": 5444,
        "contract": "contracts/Lending/Pool.sol:Pool",
        "label": "yield",
        "offset": 0,
        "slot": "6",
        "type": "t_uint256"
      },
      {
        "astId": 5446,
        "contract": "contracts/Lending/Pool.sol:Pool",
        "label": "farmedYield",
        "offset": 0,
        "slot": "7",
        "type": "t_uint256"
      },
      {
        "astId": 5450,
        "contract": "contracts/Lending/Pool.sol:Pool",
        "label": "lastYieldFarmedTime",
        "offset": 0,
        "slot": "8",
        "type": "t_mapping(t_address,t_uint256)"
      },
      {
        "astId": 5454,
        "contract": "contracts/Lending/Pool.sol:Pool",
        "label": "yieldTaken",
        "offset": 0,
        "slot": "9",
        "type": "t_mapping(t_address,t_uint256)"
      }
    ],
    "types": {
      "t_address": {
        "encoding": "inplace",
        "label": "address",
        "numberOfBytes": "20"
      },
      "t_contract(IERC20)126": {
        "encoding": "inplace",
        "label": "contract IERC20",
        "numberOfBytes": "20"
      },
      "t_mapping(t_address,t_uint256)": {
        "encoding": "mapping",
        "key": "t_address",
        "label": "mapping(address => uint256)",
        "numberOfBytes": "32",
        "value": "t_uint256"
      },
      "t_uint256": {
        "encoding": "inplace",
        "label": "uint256",
        "numberOfBytes": "32"
      }
    }
  }
}