{
  "address": "0x9fE46736679d2D9a65F0992F2272dE9f3c7fa6e0",
  "abi": [
    {
      "inputs": [],
      "stateMutability": "nonpayable",
      "type": "constructor"
    },
    {
      "inputs": [],
      "name": "PoolTracker_addressNotAllowed",
      "type": "error"
    },
    {
      "inputs": [],
      "name": "PoolTracker_cantSwapSameToken",
      "type": "error"
    },
    {
      "inputs": [],
      "name": "PoolTracker_pairAlreadyExists",
      "type": "error"
    },
    {
      "anonymous": false,
      "inputs": [
        {
          "indexed": false,
          "internalType": "contract LiquidityPool",
          "name": "pool",
          "type": "address"
        },
        {
          "indexed": false,
          "internalType": "address",
          "name": "assetOne",
          "type": "address"
        },
        {
          "indexed": false,
          "internalType": "address",
          "name": "assetTwo",
          "type": "address"
        }
      ],
      "name": "poolCreated",
      "type": "event"
    },
    {
      "inputs": [
        {
          "internalType": "address",
          "name": "tokenAddress",
          "type": "address"
        },
        {
          "internalType": "address",
          "name": "priceFeed",
          "type": "address"
        }
      ],
      "name": "addRoutingAddress",
      "outputs": [],
      "stateMutability": "nonpayable",
      "type": "function"
    },
    {
      "inputs": [
        {
          "internalType": "address",
          "name": "_assetOneAddress",
          "type": "address"
        },
        {
          "internalType": "address",
          "name": "_assetTwoAddress",
          "type": "address"
        },
        {
          "internalType": "uint256",
          "name": "amountOne",
          "type": "uint256"
        },
        {
          "internalType": "uint256",
          "name": "amountTwo",
          "type": "uint256"
        }
      ],
      "name": "createPool",
      "outputs": [],
      "stateMutability": "nonpayable",
      "type": "function"
    },
    {
      "inputs": [
        {
          "internalType": "address",
          "name": "token1",
          "type": "address"
        },
        {
          "internalType": "address",
          "name": "token2",
          "type": "address"
        }
      ],
      "name": "exists",
      "outputs": [
        {
          "internalType": "bool",
          "name": "",
          "type": "bool"
        }
      ],
      "stateMutability": "view",
      "type": "function"
    },
    {
      "inputs": [
        {
          "internalType": "address",
          "name": "",
          "type": "address"
        },
        {
          "internalType": "address",
          "name": "",
          "type": "address"
        }
      ],
      "name": "pairToPool",
      "outputs": [
        {
          "internalType": "contract LiquidityPool",
          "name": "",
          "type": "address"
        }
      ],
      "stateMutability": "view",
      "type": "function"
    },
    {
      "inputs": [
        {
          "internalType": "address",
          "name": "",
          "type": "address"
        },
        {
          "internalType": "uint256",
          "name": "",
          "type": "uint256"
        }
      ],
      "name": "poolOwner",
      "outputs": [
        {
          "internalType": "contract LiquidityPool",
          "name": "",
          "type": "address"
        }
      ],
      "stateMutability": "view",
      "type": "function"
    },
    {
      "inputs": [
        {
          "internalType": "address",
          "name": "",
          "type": "address"
        },
        {
          "internalType": "uint256",
          "name": "",
          "type": "uint256"
        }
      ],
      "name": "poolPairs",
      "outputs": [
        {
          "internalType": "address",
          "name": "",
          "type": "address"
        }
      ],
      "stateMutability": "view",
      "type": "function"
    },
    {
      "inputs": [
        {
          "internalType": "uint256",
          "name": "",
          "type": "uint256"
        }
      ],
      "name": "routingAddresses",
      "outputs": [
        {
          "internalType": "address",
          "name": "tokenAddress",
          "type": "address"
        },
        {
          "internalType": "address",
          "name": "priceFeed",
          "type": "address"
        }
      ],
      "stateMutability": "view",
      "type": "function"
    },
    {
      "inputs": [
        {
          "internalType": "address",
          "name": "tokenAddress",
          "type": "address"
        }
      ],
      "name": "tokenExists",
      "outputs": [
        {
          "internalType": "bool",
          "name": "",
          "type": "bool"
        }
      ],
      "stateMutability": "view",
      "type": "function"
    },
    {
      "inputs": [],
      "name": "tokenList",
      "outputs": [
        {
          "internalType": "address[]",
          "name": "",
          "type": "address[]"
        }
      ],
      "stateMutability": "view",
      "type": "function"
    },
    {
      "inputs": [
        {
          "internalType": "address",
          "name": "address1",
          "type": "address"
        },
        {
          "internalType": "address",
          "name": "address2",
          "type": "address"
        }
      ],
      "name": "tokenToRoute",
      "outputs": [
        {
          "internalType": "address",
          "name": "",
          "type": "address"
        }
      ],
      "stateMutability": "view",
      "type": "function"
    },
    {
      "inputs": [
        {
          "internalType": "uint256",
          "name": "",
          "type": "uint256"
        }
      ],
      "name": "tokens",
      "outputs": [
        {
          "internalType": "address",
          "name": "",
          "type": "address"
        }
      ],
      "stateMutability": "view",
      "type": "function"
    }
  ],
  "transactionHash": "0xe8893c0c5c80cb4fd48a507179f78f8a7c5e5493cfbfc1a6198b1461fb52f284",
  "args": [],
  "numDeployments": 1,
  "solcInputHash": "30e751f29dc882e93d446105100fc085",
  "bytecode": "0x608060405234801561001057600080fd5b50336000806101000a81548173ffffffffffffffffffffffffffffffffffffffff021916908373ffffffffffffffffffffffffffffffffffffffff160217905550615547806100606000396000f3fe60806040523480156200001157600080fd5b5060043610620000b85760003560e01c80638aad070f116200007b5780638aad070f146200019f5780638b273a6814620001d55780638c75d89d146200020b578063930186f214620002415780639e2c58ca1462000278578063b33f78ca146200029a57620000b8565b80634f64b2be14620000bd5780635553246014620000f35780636fbe6fea14620001295780637663f8221462000149578063884db063146200017f575b600080fd5b620000db6004803603810190620000d5919062001c38565b620002d0565b604051620000ea919062001caf565b60405180910390f35b6200011160048036038101906200010b919062001cfd565b62000310565b60405162000120919062001caf565b60405180910390f35b62000147600480360381019062000141919062001cfd565b62000b6e565b005b62000167600480360381019062000161919062001cfd565b62000fc5565b60405162000176919062001d61565b60405180910390f35b6200019d600480360381019062000197919062001d7e565b620010ef565b005b620001bd6004803603810190620001b7919062001df0565b62001951565b604051620001cc919062001ea2565b60405180910390f35b620001f36004803603810190620001ed919062001cfd565b620019a0565b60405162000202919062001ea2565b60405180910390f35b62000229600480360381019062000223919062001df0565b620019e2565b60405162000238919062001caf565b60405180910390f35b6200025f600480360381019062000259919062001c38565b62001a31565b6040516200026f92919062001ebf565b60405180910390f35b6200028262001aa6565b60405162000291919062001fba565b60405180910390f35b620002b86004803603810190620002b2919062001fde565b62001b36565b604051620002c7919062001d61565b60405180910390f35b60038181548110620002e157600080fd5b906000526020600020016000915054906101000a900473ffffffffffffffffffffffffffffffffffffffff1681565b60008173ffffffffffffffffffffffffffffffffffffffff168373ffffffffffffffffffffffffffffffffffffffff16141562000379576040517fef107d8100000000000000000000000000000000000000000000000000000000815260040160405180910390fd5b6000600160008573ffffffffffffffffffffffffffffffffffffffff1673ffffffffffffffffffffffffffffffffffffffff1681526020019081526020016000208054806020026020016040519081016040528092919081815260200182805480156200043c57602002820191906000526020600020905b8160009054906101000a900473ffffffffffffffffffffffffffffffffffffffff1673ffffffffffffffffffffffffffffffffffffffff1681526020019060010190808311620003f1575b505050505090506000600160008573ffffffffffffffffffffffffffffffffffffffff1673ffffffffffffffffffffffffffffffffffffffff1681526020019081526020016000208054806020026020016040519081016040528092919081815260200182805480156200050657602002820191906000526020600020905b8160009054906101000a900473ffffffffffffffffffffffffffffffffffffffff1673ffffffffffffffffffffffffffffffffffffffff1681526020019060010190808311620004bb575b5050505050905060008060005b845181101562000b605760005b845181101562000b495784818151811062000540576200053f62002010565b5b602002602001015173ffffffffffffffffffffffffffffffffffffffff1686838151811062000574576200057362002010565b5b602002602001015173ffffffffffffffffffffffffffffffffffffffff16141562000b335760005b60058054905081101562000b3157868381518110620005c057620005bf62002010565b5b602002602001015173ffffffffffffffffffffffffffffffffffffffff1660058281548110620005f557620005f462002010565b5b906000526020600020906002020160000160009054906101000a900473ffffffffffffffffffffffffffffffffffffffff1673ffffffffffffffffffffffffffffffffffffffff16141562000b1b576000600582815481106200065d576200065c62002010565b5b906000526020600020906002020160010160009054906101000a900473ffffffffffffffffffffffffffffffffffffffff1673ffffffffffffffffffffffffffffffffffffffff1663feaf968c6040518163ffffffff1660e01b815260040160a06040518083038186803b158015620006d557600080fd5b505afa158015620006ea573d6000803e3d6000fd5b505050506040513d601f19601f82011682018060405250810190620007109190620020d8565b505050915050600080600260008e73ffffffffffffffffffffffffffffffffffffffff1673ffffffffffffffffffffffffffffffffffffffff16815260200190815260200160002060006005868154811062000771576200077062002010565b5b906000526020600020906002020160000160009054906101000a900473ffffffffffffffffffffffffffffffffffffffff1673ffffffffffffffffffffffffffffffffffffffff1673ffffffffffffffffffffffffffffffffffffffff16815260200190815260200160002060009054906101000a900473ffffffffffffffffffffffffffffffffffffffff1690506000600260008e73ffffffffffffffffffffffffffffffffffffffff1673ffffffffffffffffffffffffffffffffffffffff1681526020019081526020016000206000600587815481106200085a576200085962002010565b5b906000526020600020906002020160000160009054906101000a900473ffffffffffffffffffffffffffffffffffffffff1673ffffffffffffffffffffffffffffffffffffffff1673ffffffffffffffffffffffffffffffffffffffff16815260200190815260200160002060009054906101000a900473ffffffffffffffffffffffffffffffffffffffff16905060006005868154811062000902576200090162002010565b5b906000526020600020906002020160000160009054906101000a900473ffffffffffffffffffffffffffffffffffffffff1673ffffffffffffffffffffffffffffffffffffffff166370a08231846040518263ffffffff1660e01b81526004016200096e919062001caf565b60206040518083038186803b1580156200098757600080fd5b505afa1580156200099c573d6000803e3d6000fd5b505050506040513d601f19601f82011682018060405250810190620009c2919062002160565b9050600060058781548110620009dd57620009dc62002010565b5b906000526020600020906002020160000160009054906101000a900473ffffffffffffffffffffffffffffffffffffffff1673ffffffffffffffffffffffffffffffffffffffff166370a08231846040518263ffffffff1660e01b815260040162000a49919062001caf565b60206040518083038186803b15801562000a6257600080fd5b505afa15801562000a77573d6000803e3d6000fd5b505050506040513d601f19601f8201168201806040525081019062000a9d919062002160565b905085818362000aae9190620021c1565b62000aba91906200225f565b94508985131562000b14576005878154811062000adc5762000adb62002010565b5b906000526020600020906002020160000160009054906101000a900473ffffffffffffffffffffffffffffffffffffffff169a508499505b5050505050505b808062000b289062002386565b9150506200059c565b505b808062000b409062002386565b91505062000520565b50808062000b579062002386565b91505062000513565b508194505050505092915050565b60008054906101000a900473ffffffffffffffffffffffffffffffffffffffff1673ffffffffffffffffffffffffffffffffffffffff163373ffffffffffffffffffffffffffffffffffffffff161462000bf4576040517fa3da448900000000000000000000000000000000000000000000000000000000815260040160405180910390fd5b6000600580549050141562000d0557600560405180604001604052808473ffffffffffffffffffffffffffffffffffffffff1681526020018373ffffffffffffffffffffffffffffffffffffffff16815250908060018154018082558091505060019003906000526020600020906002020160009091909190915060008201518160000160006101000a81548173ffffffffffffffffffffffffffffffffffffffff021916908373ffffffffffffffffffffffffffffffffffffffff16021790555060208201518160010160006101000a81548173ffffffffffffffffffffffffffffffffffffffff021916908373ffffffffffffffffffffffffffffffffffffffff160217905550505062000fc1565b60005b60058054905081101562000fbf578273ffffffffffffffffffffffffffffffffffffffff166005828154811062000d445762000d4362002010565b5b906000526020600020906002020160000160009054906101000a900473ffffffffffffffffffffffffffffffffffffffff1673ffffffffffffffffffffffffffffffffffffffff16141562000e905760405180604001604052808473ffffffffffffffffffffffffffffffffffffffff1681526020018373ffffffffffffffffffffffffffffffffffffffff168152506005828154811062000deb5762000dea62002010565b5b906000526020600020906002020160008201518160000160006101000a81548173ffffffffffffffffffffffffffffffffffffffff021916908373ffffffffffffffffffffffffffffffffffffffff16021790555060208201518160010160006101000a81548173ffffffffffffffffffffffffffffffffffffffff021916908373ffffffffffffffffffffffffffffffffffffffff16021790555090505062000fbf565b600160058054905062000ea49190620023d4565b81141562000fa957600560405180604001604052808573ffffffffffffffffffffffffffffffffffffffff1681526020018473ffffffffffffffffffffffffffffffffffffffff16815250908060018154018082558091505060019003906000526020600020906002020160009091909190915060008201518160000160006101000a81548173ffffffffffffffffffffffffffffffffffffffff021916908373ffffffffffffffffffffffffffffffffffffffff16021790555060208201518160010160006101000a81548173ffffffffffffffffffffffffffffffffffffffff021916908373ffffffffffffffffffffffffffffffffffffffff16021790555050505b808062000fb69062002386565b91505062000d08565b505b5050565b60008060005b600160008673ffffffffffffffffffffffffffffffffffffffff1673ffffffffffffffffffffffffffffffffffffffff16815260200190815260200160002080549050811015620010e4578373ffffffffffffffffffffffffffffffffffffffff16600160008773ffffffffffffffffffffffffffffffffffffffff1673ffffffffffffffffffffffffffffffffffffffff168152602001908152602001600020828154811062001081576200108062002010565b5b9060005260206000200160009054906101000a900473ffffffffffffffffffffffffffffffffffffffff1673ffffffffffffffffffffffffffffffffffffffff161415620010ce57600191505b8080620010db9062002386565b91505062000fcb565b508091505092915050565b600060149054906101000a900460ff161562001142576040517f08c379a0000000000000000000000000000000000000000000000000000000008152600401620011399062002470565b60405180910390fd5b6001600060146101000a81548160ff02191690831515021790555062001169848462000fc5565b15620011a1576040517f2f5f48b800000000000000000000000000000000000000000000000000000000815260040160405180910390fd5b8373ffffffffffffffffffffffffffffffffffffffff166323b872dd3330856040518463ffffffff1660e01b8152600401620011e093929190620024a3565b602060405180830381600087803b158015620011fb57600080fd5b505af115801562001210573d6000803e3d6000fd5b505050506040513d601f19601f8201168201806040525081019062001236919062002511565b508273ffffffffffffffffffffffffffffffffffffffff166323b872dd3330846040518463ffffffff1660e01b81526004016200127693929190620024a3565b602060405180830381600087803b1580156200129157600080fd5b505af1158015620012a6573d6000803e3d6000fd5b505050506040513d601f19601f82011682018060405250810190620012cc919062002511565b5060008484604051620012df9062001bea565b620012ec92919062001ebf565b604051809103906000f08015801562001309573d6000803e3d6000fd5b5090508473ffffffffffffffffffffffffffffffffffffffff1663095ea7b382856040518363ffffffff1660e01b81526004016200134992919062002543565b602060405180830381600087803b1580156200136457600080fd5b505af115801562001379573d6000803e3d6000fd5b505050506040513d601f19601f820116820180604052508101906200139f919062002511565b508373ffffffffffffffffffffffffffffffffffffffff1663095ea7b382846040518363ffffffff1660e01b8152600401620013dd92919062002543565b602060405180830381600087803b158015620013f857600080fd5b505af11580156200140d573d6000803e3d6000fd5b505050506040513d601f19601f8201168201806040525081019062001433919062002511565b508073ffffffffffffffffffffffffffffffffffffffff1663a40f4fa184846040518363ffffffff1660e01b81526004016200147192919062002570565b600060405180830381600087803b1580156200148c57600080fd5b505af1158015620014a1573d6000803e3d6000fd5b50505050600460003373ffffffffffffffffffffffffffffffffffffffff1673ffffffffffffffffffffffffffffffffffffffff168152602001908152602001600020819080600181540180825580915050600190039060005260206000200160009091909190916101000a81548173ffffffffffffffffffffffffffffffffffffffff021916908373ffffffffffffffffffffffffffffffffffffffff160217905550600160008673ffffffffffffffffffffffffffffffffffffffff1673ffffffffffffffffffffffffffffffffffffffff168152602001908152602001600020849080600181540180825580915050600190039060005260206000200160009091909190916101000a81548173ffffffffffffffffffffffffffffffffffffffff021916908373ffffffffffffffffffffffffffffffffffffffff160217905550600160008573ffffffffffffffffffffffffffffffffffffffff1673ffffffffffffffffffffffffffffffffffffffff168152602001908152602001600020859080600181540180825580915050600190039060005260206000200160009091909190916101000a81548173ffffffffffffffffffffffffffffffffffffffff021916908373ffffffffffffffffffffffffffffffffffffffff16021790555080600260008773ffffffffffffffffffffffffffffffffffffffff1673ffffffffffffffffffffffffffffffffffffffff16815260200190815260200160002060008673ffffffffffffffffffffffffffffffffffffffff1673ffffffffffffffffffffffffffffffffffffffff16815260200190815260200160002060006101000a81548173ffffffffffffffffffffffffffffffffffffffff021916908373ffffffffffffffffffffffffffffffffffffffff16021790555080600260008673ffffffffffffffffffffffffffffffffffffffff1673ffffffffffffffffffffffffffffffffffffffff16815260200190815260200160002060008773ffffffffffffffffffffffffffffffffffffffff1673ffffffffffffffffffffffffffffffffffffffff16815260200190815260200160002060006101000a81548173ffffffffffffffffffffffffffffffffffffffff021916908373ffffffffffffffffffffffffffffffffffffffff160217905550600015156200180a8662001b36565b1515141562001877576003859080600181540180825580915050600190039060005260206000200160009091909190916101000a81548173ffffffffffffffffffffffffffffffffffffffff021916908373ffffffffffffffffffffffffffffffffffffffff1602179055505b60001515620018868562001b36565b15151415620018f3576003849080600181540180825580915050600190039060005260206000200160009091909190916101000a81548173ffffffffffffffffffffffffffffffffffffffff021916908373ffffffffffffffffffffffffffffffffffffffff1602179055505b7f1bfa76d353829689440900638fb4e4d604519997726fa1ee0f885e3df12ed7f881868660405162001928939291906200259d565b60405180910390a15060008060146101000a81548160ff02191690831515021790555050505050565b600460205281600052604060002081815481106200196e57600080fd5b906000526020600020016000915091509054906101000a900473ffffffffffffffffffffffffffffffffffffffff1681565b60026020528160005260406000206020528060005260406000206000915091509054906101000a900473ffffffffffffffffffffffffffffffffffffffff1681565b60016020528160005260406000208181548110620019ff57600080fd5b906000526020600020016000915091509054906101000a900473ffffffffffffffffffffffffffffffffffffffff1681565b6005818154811062001a4257600080fd5b90600052602060002090600202016000915090508060000160009054906101000a900473ffffffffffffffffffffffffffffffffffffffff16908060010160009054906101000a900473ffffffffffffffffffffffffffffffffffffffff16905082565b6060600380548060200260200160405190810160405280929190818152602001828054801562001b2c57602002820191906000526020600020905b8160009054906101000a900473ffffffffffffffffffffffffffffffffffffffff1673ffffffffffffffffffffffffffffffffffffffff168152602001906001019080831162001ae1575b5050505050905090565b60008060005b60038054905081101562001be0576003818154811062001b615762001b6062002010565b5b9060005260206000200160009054906101000a900473ffffffffffffffffffffffffffffffffffffffff1673ffffffffffffffffffffffffffffffffffffffff168473ffffffffffffffffffffffffffffffffffffffff16141562001bca576001915062001be0565b808062001bd79062002386565b91505062001b3c565b5080915050919050565b612f3780620025db83390190565b600080fd5b6000819050919050565b62001c128162001bfd565b811462001c1e57600080fd5b50565b60008135905062001c328162001c07565b92915050565b60006020828403121562001c515762001c5062001bf8565b5b600062001c618482850162001c21565b91505092915050565b600073ffffffffffffffffffffffffffffffffffffffff82169050919050565b600062001c978262001c6a565b9050919050565b62001ca98162001c8a565b82525050565b600060208201905062001cc6600083018462001c9e565b92915050565b62001cd78162001c8a565b811462001ce357600080fd5b50565b60008135905062001cf78162001ccc565b92915050565b6000806040838503121562001d175762001d1662001bf8565b5b600062001d278582860162001ce6565b925050602062001d3a8582860162001ce6565b9150509250929050565b60008115159050919050565b62001d5b8162001d44565b82525050565b600060208201905062001d78600083018462001d50565b92915050565b6000806000806080858703121562001d9b5762001d9a62001bf8565b5b600062001dab8782880162001ce6565b945050602062001dbe8782880162001ce6565b935050604062001dd18782880162001c21565b925050606062001de48782880162001c21565b91505092959194509250565b6000806040838503121562001e0a5762001e0962001bf8565b5b600062001e1a8582860162001ce6565b925050602062001e2d8582860162001c21565b9150509250929050565b6000819050919050565b600062001e6262001e5c62001e568462001c6a565b62001e37565b62001c6a565b9050919050565b600062001e768262001e41565b9050919050565b600062001e8a8262001e69565b9050919050565b62001e9c8162001e7d565b82525050565b600060208201905062001eb9600083018462001e91565b92915050565b600060408201905062001ed6600083018562001c9e565b62001ee5602083018462001c9e565b9392505050565b600081519050919050565b600082825260208201905092915050565b6000819050602082019050919050565b62001f238162001c8a565b82525050565b600062001f37838362001f18565b60208301905092915050565b6000602082019050919050565b600062001f5d8262001eec565b62001f69818562001ef7565b935062001f768362001f08565b8060005b8381101562001fad57815162001f91888262001f29565b975062001f9e8362001f43565b92505060018101905062001f7a565b5085935050505092915050565b6000602082019050818103600083015262001fd6818462001f50565b905092915050565b60006020828403121562001ff75762001ff662001bf8565b5b6000620020078482850162001ce6565b91505092915050565b7f4e487b7100000000000000000000000000000000000000000000000000000000600052603260045260246000fd5b600069ffffffffffffffffffff82169050919050565b62002060816200203f565b81146200206c57600080fd5b50565b600081519050620020808162002055565b92915050565b6000819050919050565b6200209b8162002086565b8114620020a757600080fd5b50565b600081519050620020bb8162002090565b92915050565b600081519050620020d28162001c07565b92915050565b600080600080600060a08688031215620020f757620020f662001bf8565b5b600062002107888289016200206f565b95505060206200211a88828901620020aa565b94505060406200212d88828901620020c1565b93505060606200214088828901620020c1565b925050608062002153888289016200206f565b9150509295509295909350565b60006020828403121562002179576200217862001bf8565b5b60006200218984828501620020c1565b91505092915050565b7f4e487b7100000000000000000000000000000000000000000000000000000000600052601160045260246000fd5b6000620021ce8262002086565b9150620021db8362002086565b9250817f7fffffffffffffffffffffffffffffffffffffffffffffffffffffffffffffff0383136000831215161562002219576200221862002192565b5b817f800000000000000000000000000000000000000000000000000000000000000003831260008312161562002254576200225362002192565b5b828201905092915050565b60006200226c8262002086565b9150620022798362002086565b9250827f7fffffffffffffffffffffffffffffffffffffffffffffffffffffffffffffff0482116000841360008413161615620022bb57620022ba62002192565b5b817f80000000000000000000000000000000000000000000000000000000000000000583126000841260008413161615620022fb57620022fa62002192565b5b827f800000000000000000000000000000000000000000000000000000000000000005821260008413600084121616156200233b576200233a62002192565b5b827f7fffffffffffffffffffffffffffffffffffffffffffffffffffffffffffffff05821260008412600084121616156200237b576200237a62002192565b5b828202905092915050565b6000620023938262001bfd565b91507fffffffffffffffffffffffffffffffffffffffffffffffffffffffffffffffff821415620023c957620023c862002192565b5b600182019050919050565b6000620023e18262001bfd565b9150620023ee8362001bfd565b92508282101562002404576200240362002192565b5b828203905092915050565b600082825260208201905092915050565b7f4e6f2072652d656e7472616e6379000000000000000000000000000000000000600082015250565b600062002458600e836200240f565b9150620024658262002420565b602082019050919050565b600060208201905081810360008301526200248b8162002449565b9050919050565b6200249d8162001bfd565b82525050565b6000606082019050620024ba600083018662001c9e565b620024c9602083018562001c9e565b620024d8604083018462002492565b949350505050565b620024eb8162001d44565b8114620024f757600080fd5b50565b6000815190506200250b81620024e0565b92915050565b6000602082840312156200252a576200252962001bf8565b5b60006200253a84828501620024fa565b91505092915050565b60006040820190506200255a600083018562001c9e565b62002569602083018462002492565b9392505050565b600060408201905062002587600083018562002492565b62002596602083018462002492565b9392505050565b6000606082019050620025b4600083018662001e91565b620025c3602083018562001c9e565b620025d2604083018462001c9e565b94935050505056fe608060405266038d7ea4c680006005553480156200001c57600080fd5b5060405162002f3738038062002f37833981810160405281019062000042919062000184565b816000806101000a81548173ffffffffffffffffffffffffffffffffffffffff021916908373ffffffffffffffffffffffffffffffffffffffff16021790555080600160006101000a81548173ffffffffffffffffffffffffffffffffffffffff021916908373ffffffffffffffffffffffffffffffffffffffff16021790555033600660006101000a81548173ffffffffffffffffffffffffffffffffffffffff021916908373ffffffffffffffffffffffffffffffffffffffff16021790555066038d7ea4c680006005819055505050620001cb565b600080fd5b600073ffffffffffffffffffffffffffffffffffffffff82169050919050565b60006200014c826200011f565b9050919050565b6200015e816200013f565b81146200016a57600080fd5b50565b6000815190506200017e8162000153565b92915050565b600080604083850312156200019e576200019d6200011a565b5b6000620001ae858286016200016d565b9250506020620001c1858286016200016d565b9150509250929050565b612d5c80620001db6000396000f3fe6080604052600436106101e75760003560e01c80638da5cb5b11610102578063aa03f2ed11610095578063e35ba8ab11610064578063e35ba8ab1461074a578063e4a7672614610775578063f318e5571461079e578063ffebfc8c146107c95761021e565b8063aa03f2ed146106ad578063ce5efee3146106d8578063d4cadf6814610703578063dc1716241461072e5761021e565b8063a04f6639116100d1578063a04f663914610603578063a40f4fa11461062e578063a875480314610657578063a97533b8146106825761021e565b80638da5cb5b1461053557806395cc4c5e146105605780639a61c36a1461059d5780639c8f9f23146105da5761021e565b806340702adc1161017a578063696c613111610149578063696c61311461047b5780637c262871146104a457806381bace7d146104bb5780638477a634146104f85761021e565b806340702adc146103de5780634257dc4c146104095780634d2d757c1461042557806354cf2aeb146104505761021e565b806328593984116101b6578063285939841461030e57806328da1aef146103395780632d4ce66914610376578063405eae91146103b35761021e565b80630910a51014610250578063131a6f011461027b5780631a686502146102a657806324aabb92146102d15761021e565b3661021e576040517fdfaf840900000000000000000000000000000000000000000000000000000000815260040160405180910390fd5b6040517fdfaf840900000000000000000000000000000000000000000000000000000000815260040160405180910390fd5b34801561025c57600080fd5b50610265610806565b6040516102729190612729565b60405180910390f35b34801561028757600080fd5b50610290610810565b60405161029d9190612729565b60405180910390f35b3480156102b257600080fd5b506102bb6108c2565b6040516102c89190612729565b60405180910390f35b3480156102dd57600080fd5b506102f860048036038101906102f391906127a7565b6108c8565b6040516103059190612729565b60405180910390f35b34801561031a57600080fd5b506103236108e0565b6040516103309190612729565b60405180910390f35b34801561034557600080fd5b50610360600480360381019061035b9190612800565b6108e6565b60405161036d9190612729565b60405180910390f35b34801561038257600080fd5b5061039d600480360381019061039891906127a7565b610a55565b6040516103aa9190612729565b60405180910390f35b3480156103bf57600080fd5b506103c8610ae7565b6040516103d5919061285b565b60405180910390f35b3480156103ea57600080fd5b506103f3610b96565b6040516104009190612729565b60405180910390f35b610423600480360381019061041e9190612876565b610b9c565b005b34801561043157600080fd5b5061043a61102e565b604051610447919061285b565b60405180910390f35b34801561045c57600080fd5b50610465611097565b6040516104729190612729565b60405180910390f35b34801561048757600080fd5b506104a2600480360381019061049d9190612876565b61109d565b005b3480156104b057600080fd5b506104b96110b5565b005b3480156104c757600080fd5b506104e260048036038101906104dd91906127a7565b61134a565b6040516104ef9190612729565b60405180910390f35b34801561050457600080fd5b5061051f600480360381019061051a91906127a7565b611453565b60405161052c9190612729565b60405180910390f35b34801561054157600080fd5b5061054a61146b565b60405161055791906128b2565b60405180910390f35b34801561056c57600080fd5b5061058760048036038101906105829190612800565b611491565b6040516105949190612729565b60405180910390f35b3480156105a957600080fd5b506105c460048036038101906105bf91906127a7565b61157a565b6040516105d19190612729565b60405180910390f35b3480156105e657600080fd5b5061060160048036038101906105fc9190612876565b611592565b005b34801561060f57600080fd5b50610618611b3e565b6040516106259190612729565b60405180910390f35b34801561063a57600080fd5b50610655600480360381019061065091906128cd565b611b48565b005b34801561066357600080fd5b5061066c611e4d565b60405161067991906128b2565b60405180910390f35b34801561068e57600080fd5b50610697611e73565b6040516106a49190612729565b60405180910390f35b3480156106b957600080fd5b506106c2611ea7565b6040516106cf9190612729565b60405180910390f35b3480156106e457600080fd5b506106ed611f58565b6040516106fa91906128b2565b60405180910390f35b34801561070f57600080fd5b50610718611f7c565b6040516107259190612729565b60405180910390f35b61074860048036038101906107439190612876565b611f86565b005b34801561075657600080fd5b5061075f612418565b60405161076c9190612729565b60405180910390f35b34801561078157600080fd5b5061079c6004803603810190610797919061290d565b61244c565b005b3480156107aa57600080fd5b506107b36126f0565b6040516107c09190612729565b60405180910390f35b3480156107d557600080fd5b506107f060048036038101906107eb91906127a7565b6126f8565b6040516107fd9190612729565b60405180910390f35b6000600354905090565b6000600160009054906101000a900473ffffffffffffffffffffffffffffffffffffffff1673ffffffffffffffffffffffffffffffffffffffff166370a08231306040518263ffffffff1660e01b815260040161086d91906128b2565b60206040518083038186803b15801561088557600080fd5b505afa158015610899573d6000803e3d6000fd5b505050506040513d601f19601f820116820180604052508101906108bd9190612975565b905090565b60035481565b60076020528060005260406000206000915090505481565b60045481565b60008060009054906101000a900473ffffffffffffffffffffffffffffffffffffffff1673ffffffffffffffffffffffffffffffffffffffff168373ffffffffffffffffffffffffffffffffffffffff16141561098257600082610948611ea7565b61095291906129d1565b90506000816003546109649190612a56565b90508061096f610810565b6109799190612a87565b92505050610a4f565b600160009054906101000a900473ffffffffffffffffffffffffffffffffffffffff1673ffffffffffffffffffffffffffffffffffffffff168373ffffffffffffffffffffffffffffffffffffffff161415610a1d576000826109e3610810565b6109ed91906129d1565b90506000816003546109ff9190612a56565b905080610a0a611ea7565b610a149190612a87565b92505050610a4f565b6040517fd526485500000000000000000000000000000000000000000000000000000000815260040160405180910390fd5b92915050565b60008173ffffffffffffffffffffffffffffffffffffffff166370a08231306040518263ffffffff1660e01b8152600401610a9091906128b2565b60206040518083038186803b158015610aa857600080fd5b505afa158015610abc573d6000803e3d6000fd5b505050506040513d601f19601f82011682018060405250810190610ae09190612975565b9050919050565b6000600960003373ffffffffffffffffffffffffffffffffffffffff1673ffffffffffffffffffffffffffffffffffffffff1681526020019081526020016000205060004290508062015180600960003373ffffffffffffffffffffffffffffffffffffffff1673ffffffffffffffffffffffffffffffffffffffff16815260200190815260200160002054610b7d91906129d1565b1015610b8d576001915050610b93565b60009150505b90565b60025481565b600660149054906101000a900460ff1615610bec576040517f08c379a0000000000000000000000000000000000000000000000000000000008152600401610be390612b18565b60405180910390fd5b6001600660146101000a81548160ff021916908315150217905550610c0f611ea7565b8110610c8e573373ffffffffffffffffffffffffffffffffffffffff166108fc349081150290604051600060405180830381858888f19350505050158015610c5b573d6000803e3d6000fd5b506040517fe45bfdc700000000000000000000000000000000000000000000000000000000815260040160405180910390fd5b600554341015610cca576040517fb08ede0900000000000000000000000000000000000000000000000000000000815260040160405180910390fd5b60055460046000828254610cde91906129d1565b92505081905550600060055434610cf59190612a87565b90506000610d01610810565b9050600083610d0e611ea7565b610d1891906129d1565b9050600081600354610d2a9190612a56565b905060008184610d3a9190612a87565b905060008054906101000a900473ffffffffffffffffffffffffffffffffffffffff1673ffffffffffffffffffffffffffffffffffffffff166323b872dd3330896040518463ffffffff1660e01b8152600401610d9993929190612b38565b602060405180830381600087803b158015610db357600080fd5b505af1158015610dc7573d6000803e3d6000fd5b505050506040513d601f19601f82011682018060405250810190610deb9190612b9b565b50600160009054906101000a900473ffffffffffffffffffffffffffffffffffffffff1673ffffffffffffffffffffffffffffffffffffffff1663a9059cbb33836040518363ffffffff1660e01b8152600401610e49929190612bc8565b602060405180830381600087803b158015610e6357600080fd5b505af1158015610e77573d6000803e3d6000fd5b505050506040513d601f19601f82011682018060405250810190610e9b9190612b9b565b5060003373ffffffffffffffffffffffffffffffffffffffff1686604051610ec290612c22565b60006040518083038185875af1925050503d8060008114610eff576040519150601f19603f3d011682016040523d82523d6000602084013e610f04565b606091505b5050905080610f48576040517f08c379a0000000000000000000000000000000000000000000000000000000008152600401610f3f90612c83565b60405180910390fd5b7f6f32bb515641ec539b66bf327d21765de8c4200f94d348cee1dc835bb7532ab160008054906101000a900473ffffffffffffffffffffffffffffffffffffffff16610f92611e73565b604051610fa0929190612bc8565b60405180910390a17f6f32bb515641ec539b66bf327d21765de8c4200f94d348cee1dc835bb7532ab1600160009054906101000a900473ffffffffffffffffffffffffffffffffffffffff16610ff4612418565b604051611002929190612bc8565b60405180910390a15050505050506000600660146101000a81548160ff02191690831515021790555050565b60006301e13380600a60003373ffffffffffffffffffffffffffffffffffffffff1673ffffffffffffffffffffffffffffffffffffffff1681526020019081526020016000205461107f91906129d1565b42111561108f5760019050611094565b600090505b90565b60055481565b600660009054906101000a9050508060058190555050565b600015156110c1610ae7565b151514156110fb576040517ffdbfe33900000000000000000000000000000000000000000000000000000000815260040160405180910390fd5b42600960003373ffffffffffffffffffffffffffffffffffffffff1673ffffffffffffffffffffffffffffffffffffffff168152602001908152602001600020819055506000600860003373ffffffffffffffffffffffffffffffffffffffff1673ffffffffffffffffffffffffffffffffffffffff16815260200190815260200160002054905060006003546064600760003373ffffffffffffffffffffffffffffffffffffffff1673ffffffffffffffffffffffffffffffffffffffff168152602001908152602001600020546111d49190612ca3565b6111de9190612a56565b90506000606482836064866111f39190612ca3565b6111fd9190612a56565b60045461120a9190612a87565b6112149190612ca3565b61121e9190612a56565b90504781111561125a576040517fbf0ebd8400000000000000000000000000000000000000000000000000000000815260040160405180910390fd5b80600860003373ffffffffffffffffffffffffffffffffffffffff1673ffffffffffffffffffffffffffffffffffffffff16815260200190815260200160002060008282546112a991906129d1565b925050819055503373ffffffffffffffffffffffffffffffffffffffff166108fc829081150290604051600060405180830381858888f193505050501580156112f6573d6000803e3d6000fd5b503373ffffffffffffffffffffffffffffffffffffffff167fbf630ce062dbeaeb6c23a21390208b25de2ac16fb8502eab6054a70d9e34b8ec8260405161133d9190612729565b60405180910390a2505050565b6000600660009054906101000a900473ffffffffffffffffffffffffffffffffffffffff1673ffffffffffffffffffffffffffffffffffffffff163373ffffffffffffffffffffffffffffffffffffffff16141580156113d557503373ffffffffffffffffffffffffffffffffffffffff168273ffffffffffffffffffffffffffffffffffffffff16145b1561140c576040517f2ffae41300000000000000000000000000000000000000000000000000000000815260040160405180910390fd5b600760008373ffffffffffffffffffffffffffffffffffffffff1673ffffffffffffffffffffffffffffffffffffffff168152602001908152602001600020549050919050565b600a6020528060005260406000206000915090505481565b600660009054906101000a900473ffffffffffffffffffffffffffffffffffffffff1681565b60008060008054906101000a900473ffffffffffffffffffffffffffffffffffffffff1673ffffffffffffffffffffffffffffffffffffffff168473ffffffffffffffffffffffffffffffffffffffff16141561151c576114f0611ea7565b670de0b6b3a7640000611501610810565b61150b9190612ca3565b6115159190612a56565b905061154c565b611524610810565b670de0b6b3a7640000611535611ea7565b61153f9190612ca3565b6115499190612a56565b90505b6000670de0b6b3a764000082856115639190612ca3565b61156d9190612a56565b9050809250505092915050565b60086020528060005260406000206000915090505481565b600660149054906101000a900460ff16156115e2576040517f08c379a00000000000000000000000000000000000000000000000000000000081526004016115d990612b18565b60405180910390fd5b6001600660146101000a81548160ff0219169083151502179055506000600760003373ffffffffffffffffffffffffffffffffffffffff1673ffffffffffffffffffffffffffffffffffffffff1681526020019081526020016000205490506000600354670de0b6b3a76400008361165a9190612ca3565b6116649190612a56565b90506000606484836116769190612ca3565b6116809190612a56565b90506000670de0b6b3a7640000611695611ea7565b836116a09190612ca3565b6116aa9190612a56565b90506000670de0b6b3a76400006116bf610810565b846116ca9190612ca3565b6116d49190612a56565b9050600660009054906101000a900473ffffffffffffffffffffffffffffffffffffffff1673ffffffffffffffffffffffffffffffffffffffff163373ffffffffffffffffffffffffffffffffffffffff1614801561173e57506000151561173a61102e565b1515145b80156117a0575060025481836117549190612ca3565b600760003373ffffffffffffffffffffffffffffffffffffffff1673ffffffffffffffffffffffffffffffffffffffff1681526020019081526020016000205461179e9190612a87565b105b156117d7576040517fbf0ebd8400000000000000000000000000000000000000000000000000000000815260040160405180910390fd5b8160008054906101000a900473ffffffffffffffffffffffffffffffffffffffff1673ffffffffffffffffffffffffffffffffffffffff166370a08231306040518263ffffffff1660e01b815260040161183191906128b2565b60206040518083038186803b15801561184957600080fd5b505afa15801561185d573d6000803e3d6000fd5b505050506040513d601f19601f820116820180604052508101906118819190612975565b1080611936575080600160009054906101000a900473ffffffffffffffffffffffffffffffffffffffff1673ffffffffffffffffffffffffffffffffffffffff166370a08231306040518263ffffffff1660e01b81526004016118e491906128b2565b60206040518083038186803b1580156118fc57600080fd5b505afa158015611910573d6000803e3d6000fd5b505050506040513d601f19601f820116820180604052508101906119349190612975565b105b1561196d576040517fbf0ebd8400000000000000000000000000000000000000000000000000000000815260040160405180910390fd5b60008054906101000a900473ffffffffffffffffffffffffffffffffffffffff1673ffffffffffffffffffffffffffffffffffffffff1663a9059cbb33846040518363ffffffff1660e01b81526004016119c8929190612bc8565b602060405180830381600087803b1580156119e257600080fd5b505af11580156119f6573d6000803e3d6000fd5b505050506040513d601f19601f82011682018060405250810190611a1a9190612b9b565b50600160009054906101000a900473ffffffffffffffffffffffffffffffffffffffff1673ffffffffffffffffffffffffffffffffffffffff1663a9059cbb33836040518363ffffffff1660e01b8152600401611a78929190612bc8565b602060405180830381600087803b158015611a9257600080fd5b505af1158015611aa6573d6000803e3d6000fd5b505050506040513d601f19601f82011682018060405250810190611aca9190612b9b565b503373ffffffffffffffffffffffffffffffffffffffff167fbad053f5b243c76f17611a28d4554167bd09e3491be13032dd4af620e8e228728383604051611b13929190612cfd565b60405180910390a250505050506000600660146101000a81548160ff02191690831515021790555050565b6000600454905090565b600660009054906101000a9050506000600a6000600660009054906101000a900473ffffffffffffffffffffffffffffffffffffffff1673ffffffffffffffffffffffffffffffffffffffff1673ffffffffffffffffffffffffffffffffffffffff168152602001908152602001600020541115611bf2576040517f17ebf42200000000000000000000000000000000000000000000000000000000815260040160405180910390fd5b42600a60003373ffffffffffffffffffffffffffffffffffffffff1673ffffffffffffffffffffffffffffffffffffffff1681526020019081526020016000208190555060008054906101000a900473ffffffffffffffffffffffffffffffffffffffff1673ffffffffffffffffffffffffffffffffffffffff166323b872dd3330856040518463ffffffff1660e01b8152600401611c9393929190612b38565b602060405180830381600087803b158015611cad57600080fd5b505af1158015611cc1573d6000803e3d6000fd5b505050506040513d601f19601f82011682018060405250810190611ce59190612b9b565b50600160009054906101000a900473ffffffffffffffffffffffffffffffffffffffff1673ffffffffffffffffffffffffffffffffffffffff166323b872dd3330846040518463ffffffff1660e01b8152600401611d4593929190612b38565b602060405180830381600087803b158015611d5f57600080fd5b505af1158015611d73573d6000803e3d6000fd5b505050506040513d601f19601f82011682018060405250810190611d979190612b9b565b508082611da49190612ca3565b600281905550600254600381905550600254600760003373ffffffffffffffffffffffffffffffffffffffff1673ffffffffffffffffffffffffffffffffffffffff168152602001908152602001600020819055503373ffffffffffffffffffffffffffffffffffffffff167fb27d7e2f60a2022903d49f653fbb6f06e4fd14fd5f2291655fb7c499645ba6148383604051611e41929190612cfd565b60405180910390a25050565b600160009054906101000a900473ffffffffffffffffffffffffffffffffffffffff1681565b6000611e7d611ea7565b670de0b6b3a7640000611e8e610810565b611e989190612ca3565b611ea29190612a56565b905090565b60008060009054906101000a900473ffffffffffffffffffffffffffffffffffffffff1673ffffffffffffffffffffffffffffffffffffffff166370a08231306040518263ffffffff1660e01b8152600401611f0391906128b2565b60206040518083038186803b158015611f1b57600080fd5b505afa158015611f2f573d6000803e3d6000fd5b505050506040513d601f19601f82011682018060405250810190611f539190612975565b905090565b60008054906101000a900473ffffffffffffffffffffffffffffffffffffffff1681565b6000600554905090565b600660149054906101000a900460ff1615611fd6576040517f08c379a0000000000000000000000000000000000000000000000000000000008152600401611fcd90612b18565b60405180910390fd5b6001600660146101000a81548160ff021916908315150217905550611ff9610810565b8110612078573373ffffffffffffffffffffffffffffffffffffffff166108fc349081150290604051600060405180830381858888f19350505050158015612045573d6000803e3d6000fd5b506040517fe45bfdc700000000000000000000000000000000000000000000000000000000815260040160405180910390fd5b6005543410156120b4576040517fb08ede0900000000000000000000000000000000000000000000000000000000815260040160405180910390fd5b600554600460008282546120c891906129d1565b925050819055506000600554346120df9190612a87565b905060006120eb611ea7565b90506000836120f8610810565b61210291906129d1565b90506000816003546121149190612a56565b9050600081846121249190612a87565b9050600160009054906101000a900473ffffffffffffffffffffffffffffffffffffffff1673ffffffffffffffffffffffffffffffffffffffff166323b872dd3330896040518463ffffffff1660e01b815260040161218593929190612b38565b602060405180830381600087803b15801561219f57600080fd5b505af11580156121b3573d6000803e3d6000fd5b505050506040513d601f19601f820116820180604052508101906121d79190612b9b565b5060008054906101000a900473ffffffffffffffffffffffffffffffffffffffff1673ffffffffffffffffffffffffffffffffffffffff1663a9059cbb33836040518363ffffffff1660e01b8152600401612233929190612bc8565b602060405180830381600087803b15801561224d57600080fd5b505af1158015612261573d6000803e3d6000fd5b505050506040513d601f19601f820116820180604052508101906122859190612b9b565b5060003373ffffffffffffffffffffffffffffffffffffffff16866040516122ac90612c22565b60006040518083038185875af1925050503d80600081146122e9576040519150601f19603f3d011682016040523d82523d6000602084013e6122ee565b606091505b5050905080612332576040517f08c379a000000000000000000000000000000000000000000000000000000000815260040161232990612c83565b60405180910390fd5b7f6f32bb515641ec539b66bf327d21765de8c4200f94d348cee1dc835bb7532ab160008054906101000a900473ffffffffffffffffffffffffffffffffffffffff1661237c611e73565b60405161238a929190612bc8565b60405180910390a17f6f32bb515641ec539b66bf327d21765de8c4200f94d348cee1dc835bb7532ab1600160009054906101000a900473ffffffffffffffffffffffffffffffffffffffff166123de612418565b6040516123ec929190612bc8565b60405180910390a15050505050506000600660146101000a81548160ff02191690831515021790555050565b6000612422610810565b670de0b6b3a7640000612433611ea7565b61243d9190612ca3565b6124479190612a56565b905090565b600660149054906101000a900460ff161561249c576040517f08c379a000000000000000000000000000000000000000000000000000000000815260040161249390612b18565b60405180910390fd5b6001600660146101000a81548160ff0219169083151502179055508173ffffffffffffffffffffffffffffffffffffffff166323b872dd33306124df8786611491565b6040518463ffffffff1660e01b81526004016124fd93929190612b38565b602060405180830381600087803b15801561251757600080fd5b505af115801561252b573d6000803e3d6000fd5b505050506040513d601f19601f8201168201806040525081019061254f9190612b9b565b508273ffffffffffffffffffffffffffffffffffffffff166323b872dd3330846040518463ffffffff1660e01b815260040161258d93929190612b38565b602060405180830381600087803b1580156125a757600080fd5b505af11580156125bb573d6000803e3d6000fd5b505050506040513d601f19601f820116820180604052508101906125df9190612b9b565b506125ea8382611491565b816125f59190612ca3565b600760003373ffffffffffffffffffffffffffffffffffffffff1673ffffffffffffffffffffffffffffffffffffffff168152602001908152602001600020600082825461264391906129d1565b925050819055506126548382611491565b8161265f9190612ca3565b6003600082825461267091906129d1565b925050819055503373ffffffffffffffffffffffffffffffffffffffff167fb27d7e2f60a2022903d49f653fbb6f06e4fd14fd5f2291655fb7c499645ba6146126b98584611491565b836040516126c8929190612cfd565b60405180910390a26000600660146101000a81548160ff021916908315150217905550505050565b600047905090565b60096020528060005260406000206000915090505481565b6000819050919050565b61272381612710565b82525050565b600060208201905061273e600083018461271a565b92915050565b600080fd5b600073ffffffffffffffffffffffffffffffffffffffff82169050919050565b600061277482612749565b9050919050565b61278481612769565b811461278f57600080fd5b50565b6000813590506127a18161277b565b92915050565b6000602082840312156127bd576127bc612744565b5b60006127cb84828501612792565b91505092915050565b6127dd81612710565b81146127e857600080fd5b50565b6000813590506127fa816127d4565b92915050565b6000806040838503121561281757612816612744565b5b600061282585828601612792565b9250506020612836858286016127eb565b9150509250929050565b60008115159050919050565b61285581612840565b82525050565b6000602082019050612870600083018461284c565b92915050565b60006020828403121561288c5761288b612744565b5b600061289a848285016127eb565b91505092915050565b6128ac81612769565b82525050565b60006020820190506128c760008301846128a3565b92915050565b600080604083850312156128e4576128e3612744565b5b60006128f2858286016127eb565b9250506020612903858286016127eb565b9150509250929050565b60008060006060848603121561292657612925612744565b5b600061293486828701612792565b935050602061294586828701612792565b9250506040612956868287016127eb565b9150509250925092565b60008151905061296f816127d4565b92915050565b60006020828403121561298b5761298a612744565b5b600061299984828501612960565b91505092915050565b7f4e487b7100000000000000000000000000000000000000000000000000000000600052601160045260246000fd5b60006129dc82612710565b91506129e783612710565b9250827fffffffffffffffffffffffffffffffffffffffffffffffffffffffffffffffff03821115612a1c57612a1b6129a2565b5b828201905092915050565b7f4e487b7100000000000000000000000000000000000000000000000000000000600052601260045260246000fd5b6000612a6182612710565b9150612a6c83612710565b925082612a7c57612a7b612a27565b5b828204905092915050565b6000612a9282612710565b9150612a9d83612710565b925082821015612ab057612aaf6129a2565b5b828203905092915050565b600082825260208201905092915050565b7f4e6f2072652d656e7472616e6379000000000000000000000000000000000000600082015250565b6000612b02600e83612abb565b9150612b0d82612acc565b602082019050919050565b60006020820190508181036000830152612b3181612af5565b9050919050565b6000606082019050612b4d60008301866128a3565b612b5a60208301856128a3565b612b67604083018461271a565b949350505050565b612b7881612840565b8114612b8357600080fd5b50565b600081519050612b9581612b6f565b92915050565b600060208284031215612bb157612bb0612744565b5b6000612bbf84828501612b86565b91505092915050565b6000604082019050612bdd60008301856128a3565b612bea602083018461271a565b9392505050565b600081905092915050565b50565b6000612c0c600083612bf1565b9150612c1782612bfc565b600082019050919050565b6000612c2d82612bff565b9150819050919050565b7f4661696c656420746f2073656e64204574686572000000000000000000000000600082015250565b6000612c6d601483612abb565b9150612c7882612c37565b602082019050919050565b60006020820190508181036000830152612c9c81612c60565b9050919050565b6000612cae82612710565b9150612cb983612710565b9250817fffffffffffffffffffffffffffffffffffffffffffffffffffffffffffffffff0483118215151615612cf257612cf16129a2565b5b828202905092915050565b6000604082019050612d12600083018561271a565b612d1f602083018461271a565b939250505056fea2646970667358221220ae1800e6dc35bda83e1522b7503410c1b9093f516e365d432465b384dfd4240b64736f6c63430008090033a2646970667358221220d85e3e876aa72b34f923ee779abf2eae92324bc976eb76bd1cdedea76f030d3064736f6c63430008090033",
  "devdoc": {
    "details": "Manages the creation and tracking of liquidity pools within a decentralized finance ecosystem. Utilizes Chainlink for accurate price feeds and OpenZeppelin's ERC20 for token interactions. Implements reentrancy guards to mitigate potential security vulnerabilities in contract interactions.",
    "kind": "dev",
    "methods": {
      "addRoutingAddress(address,address)": {
        "details": "Allows the contract owner to add or update the routing address for a token. This is used for token swaps and price feed lookups.",
        "params": {
          "priceFeed": "The Chainlink price feed address for the token.",
          "tokenAddress": "The token for which to set the routing."
        }
      },
      "createPool(address,address,uint256,uint256)": {
        "details": "Creates a liquidity pool for a given pair of ERC20 tokens. This function handles the initial transfer of token amounts from the caller, sets up the liquidity pool, and updates internal mappings. Emits a PoolCreated event upon successful creation. Requirements: - The token pair must not already have an existing pool. - The caller must have approved the contract to spend the necessary token amounts.",
        "params": {
          "_assetOneAddress": "The address of the first token in the pair.",
          "_assetTwoAddress": "The address of the second token in the pair.",
          "amountOne": "The amount of the first token to add to the pool.",
          "amountTwo": "The amount of the second token to add to the pool."
        }
      },
      "exists(address,address)": {
        "details": "Checks if a liquidity pool exists for a given pair of tokens.",
        "params": {
          "token1": "The address of the first token.",
          "token2": "The address of the second token."
        },
        "returns": {
          "_0": "bool Returns true if the pool exists, false otherwise."
        }
      },
      "tokenExists(address)": {
        "details": "Checks if a token is already tracked by the contract.",
        "params": {
          "tokenAddress": "The address of the token to check."
        },
        "returns": {
          "_0": "bool Returns true if the token is tracked, false otherwise."
        }
      },
      "tokenList()": {
        "details": "Returns all array of all tradable tokens on the platform",
        "returns": {
          "_0": "array Returns tokens array."
        }
      },
      "tokenToRoute(address,address)": {
        "details": "Determines the optimal routing token for a swap between two tokens, based on available liquidity and price feeds.",
        "params": {
          "address1": "The address of the first token.",
          "address2": "The address of the second token."
        },
        "returns": {
          "_0": "address The address of the optimal routing token."
        }
      }
    },
    "title": "PoolTracker",
    "version": 1
  },
  "userdoc": {
    "kind": "user",
    "methods": {},
    "version": 1
  },
  "storageLayout": {
    "storage": [
      {
        "astId": 2282,
        "contract": "contracts/Dex/PoolTracker.sol:PoolTracker",
        "label": "owner",
        "offset": 0,
        "slot": "0",
        "type": "t_address"
      },
      {
        "astId": 2293,
        "contract": "contracts/Dex/PoolTracker.sol:PoolTracker",
        "label": "locked",
        "offset": 20,
        "slot": "0",
        "type": "t_bool"
      },
      {
        "astId": 2326,
        "contract": "contracts/Dex/PoolTracker.sol:PoolTracker",
        "label": "poolPairs",
        "offset": 0,
        "slot": "1",
        "type": "t_mapping(t_address,t_array(t_address)dyn_storage)"
      },
      {
        "astId": 2333,
        "contract": "contracts/Dex/PoolTracker.sol:PoolTracker",
        "label": "pairToPool",
        "offset": 0,
        "slot": "2",
        "type": "t_mapping(t_address,t_mapping(t_address,t_contract(LiquidityPool)2266))"
      },
      {
        "astId": 2336,
        "contract": "contracts/Dex/PoolTracker.sol:PoolTracker",
        "label": "tokens",
        "offset": 0,
        "slot": "3",
        "type": "t_array(t_address)dyn_storage"
      },
      {
        "astId": 2342,
        "contract": "contracts/Dex/PoolTracker.sol:PoolTracker",
        "label": "poolOwner",
        "offset": 0,
        "slot": "4",
        "type": "t_mapping(t_address,t_array(t_contract(LiquidityPool)2266)dyn_storage)"
      },
      {
        "astId": 2591,
        "contract": "contracts/Dex/PoolTracker.sol:PoolTracker",
        "label": "routingAddresses",
        "offset": 0,
        "slot": "5",
        "type": "t_array(t_struct(routingAddress)2587_storage)dyn_storage"
      }
    ],
    "types": {
      "t_address": {
        "encoding": "inplace",
        "label": "address",
        "numberOfBytes": "20"
      },
      "t_array(t_address)dyn_storage": {
        "base": "t_address",
        "encoding": "dynamic_array",
        "label": "address[]",
        "numberOfBytes": "32"
      },
      "t_array(t_contract(LiquidityPool)2266)dyn_storage": {
        "base": "t_contract(LiquidityPool)2266",
        "encoding": "dynamic_array",
        "label": "contract LiquidityPool[]",
        "numberOfBytes": "32"
      },
      "t_array(t_struct(routingAddress)2587_storage)dyn_storage": {
        "base": "t_struct(routingAddress)2587_storage",
        "encoding": "dynamic_array",
        "label": "struct PoolTracker.routingAddress[]",
        "numberOfBytes": "32"
      },
      "t_bool": {
        "encoding": "inplace",
        "label": "bool",
        "numberOfBytes": "1"
      },
      "t_contract(LiquidityPool)2266": {
        "encoding": "inplace",
        "label": "contract LiquidityPool",
        "numberOfBytes": "20"
      },
      "t_mapping(t_address,t_array(t_address)dyn_storage)": {
        "encoding": "mapping",
        "key": "t_address",
        "label": "mapping(address => address[])",
        "numberOfBytes": "32",
        "value": "t_array(t_address)dyn_storage"
      },
      "t_mapping(t_address,t_array(t_contract(LiquidityPool)2266)dyn_storage)": {
        "encoding": "mapping",
        "key": "t_address",
        "label": "mapping(address => contract LiquidityPool[])",
        "numberOfBytes": "32",
        "value": "t_array(t_contract(LiquidityPool)2266)dyn_storage"
      },
      "t_mapping(t_address,t_contract(LiquidityPool)2266)": {
        "encoding": "mapping",
        "key": "t_address",
        "label": "mapping(address => contract LiquidityPool)",
        "numberOfBytes": "32",
        "value": "t_contract(LiquidityPool)2266"
      },
      "t_mapping(t_address,t_mapping(t_address,t_contract(LiquidityPool)2266))": {
        "encoding": "mapping",
        "key": "t_address",
        "label": "mapping(address => mapping(address => contract LiquidityPool))",
        "numberOfBytes": "32",
        "value": "t_mapping(t_address,t_contract(LiquidityPool)2266)"
      },
      "t_struct(routingAddress)2587_storage": {
        "encoding": "inplace",
        "label": "struct PoolTracker.routingAddress",
        "members": [
          {
            "astId": 2584,
            "contract": "contracts/Dex/PoolTracker.sol:PoolTracker",
            "label": "tokenAddress",
            "offset": 0,
            "slot": "0",
            "type": "t_address"
          },
          {
            "astId": 2586,
            "contract": "contracts/Dex/PoolTracker.sol:PoolTracker",
            "label": "priceFeed",
            "offset": 0,
            "slot": "1",
            "type": "t_address"
          }
        ],
        "numberOfBytes": "64"
      }
    }
  }
}