{
  "address": "0xDc64a140Aa3E981100a9becA4E685f962f0cF6C9",
  "abi": [
    {
      "inputs": [
        {
          "internalType": "address",
          "name": "tracker",
          "type": "address"
        }
      ],
      "stateMutability": "nonpayable",
      "type": "constructor"
    },
    {
      "inputs": [],
      "name": "SwapRouter_tokensCantBeSwapped",
      "type": "error"
    },
    {
      "anonymous": false,
      "inputs": [
        {
          "indexed": false,
          "internalType": "address",
          "name": "userAddress",
          "type": "address"
        },
        {
          "indexed": false,
          "internalType": "address",
          "name": "address1",
          "type": "address"
        },
        {
          "indexed": false,
          "internalType": "address",
          "name": "address2",
          "type": "address"
        },
        {
          "indexed": false,
          "internalType": "uint256",
          "name": "address1Amount",
          "type": "uint256"
        },
        {
          "indexed": false,
          "internalType": "uint256",
          "name": "address2Amount",
          "type": "uint256"
        }
      ],
      "name": "swap",
      "type": "event"
    },
    {
      "stateMutability": "payable",
      "type": "fallback"
    },
    {
      "inputs": [
        {
          "internalType": "address",
          "name": "address1",
          "type": "address"
        },
        {
          "internalType": "address",
          "name": "address2",
          "type": "address"
        },
        {
          "internalType": "uint256",
          "name": "inputAmount",
          "type": "uint256"
        }
      ],
      "name": "getSwapAmount",
      "outputs": [
        {
          "internalType": "uint256",
          "name": "",
          "type": "uint256"
        }
      ],
      "stateMutability": "view",
      "type": "function"
    },
    {
      "inputs": [
        {
          "internalType": "address",
          "name": "address1",
          "type": "address"
        },
        {
          "internalType": "address",
          "name": "address2",
          "type": "address"
        }
      ],
      "name": "getSwapFee",
      "outputs": [
        {
          "internalType": "uint256",
          "name": "",
          "type": "uint256"
        }
      ],
      "stateMutability": "view",
      "type": "function"
    },
    {
      "inputs": [
        {
          "internalType": "address",
          "name": "address1",
          "type": "address"
        },
        {
          "internalType": "address",
          "name": "address2",
          "type": "address"
        },
        {
          "internalType": "uint256",
          "name": "inputAmount",
          "type": "uint256"
        }
      ],
      "name": "swapAsset",
      "outputs": [],
      "stateMutability": "payable",
      "type": "function"
    },
    {
      "stateMutability": "payable",
      "type": "receive"
    }
  ],
  "transactionHash": "0x0e84d9a5bbd113573008104415b159844bcad2880e0d2fd3aabc04de9df8680c",
  "args": [
    "0xCf7Ed3AccA5a467e9e704C703E8D87F634fB0Fc9"
  ],
  "numDeployments": 1,
  "solcInputHash": "48cb509c8d796d601f6af2caafafc13b",
  "bytecode": "0x60806040523480156200001157600080fd5b5060405162002abf38038062002abf8339818101604052810190620000379190620000e8565b806000806101000a81548173ffffffffffffffffffffffffffffffffffffffff021916908373ffffffffffffffffffffffffffffffffffffffff160217905550506200011a565b600080fd5b600073ffffffffffffffffffffffffffffffffffffffff82169050919050565b6000620000b08262000083565b9050919050565b620000c281620000a3565b8114620000ce57600080fd5b50565b600081519050620000e281620000b7565b92915050565b6000602082840312156200010157620001006200007e565b5b60006200011184828501620000d1565b91505092915050565b612995806200012a6000396000f3fe6080604052600436106100385760003560e01c80632de192dc14610041578063635bc0c21461007e578063fe9f5c05146100bb5761003f565b3661003f57005b005b34801561004d57600080fd5b506100686004803603810190610063919061246b565b6100d7565b60405161007591906124c4565b60405180910390f35b34801561008a57600080fd5b506100a560048036038101906100a0919061250b565b610714565b6040516100b291906124c4565b60405180910390f35b6100d560048036038101906100d0919061250b565b610d5b565b005b60008060008054906101000a900473ffffffffffffffffffffffffffffffffffffffff1673ffffffffffffffffffffffffffffffffffffffff16637663f82285856040518363ffffffff1660e01b815260040161013592919061256d565b60206040518083038186803b15801561014d57600080fd5b505afa158015610161573d6000803e3d6000fd5b505050506040513d601f19601f8201168201806040525081019061018591906125ce565b156102cb5760008060009054906101000a900473ffffffffffffffffffffffffffffffffffffffff1673ffffffffffffffffffffffffffffffffffffffff16638b273a6886866040518363ffffffff1660e01b81526004016101e892919061256d565b60206040518083038186803b15801561020057600080fd5b505afa158015610214573d6000803e3d6000fd5b505050506040513d601f19601f82011682018060405250810190610238919061264b565b90508073ffffffffffffffffffffffffffffffffffffffff166354cf2aeb6040518163ffffffff1660e01b815260040160206040518083038186803b15801561028057600080fd5b505afa158015610294573d6000803e3d6000fd5b505050506040513d601f19601f820116820180604052508101906102b8919061268d565b826102c391906126e9565b91505061070a565b600073ffffffffffffffffffffffffffffffffffffffff1660008054906101000a900473ffffffffffffffffffffffffffffffffffffffff1673ffffffffffffffffffffffffffffffffffffffff16635553246086866040518363ffffffff1660e01b815260040161033e92919061256d565b60206040518083038186803b15801561035657600080fd5b505afa15801561036a573d6000803e3d6000fd5b505050506040513d601f19601f8201168201806040525081019061038e9190612754565b73ffffffffffffffffffffffffffffffffffffffff16146106d75760008060009054906101000a900473ffffffffffffffffffffffffffffffffffffffff1673ffffffffffffffffffffffffffffffffffffffff16635553246086866040518363ffffffff1660e01b815260040161040792919061256d565b60206040518083038186803b15801561041f57600080fd5b505afa158015610433573d6000803e3d6000fd5b505050506040513d601f19601f820116820180604052508101906104579190612754565b905060008060009054906101000a900473ffffffffffffffffffffffffffffffffffffffff1673ffffffffffffffffffffffffffffffffffffffff16638b273a6887846040518363ffffffff1660e01b81526004016104b792919061256d565b60206040518083038186803b1580156104cf57600080fd5b505afa1580156104e3573d6000803e3d6000fd5b505050506040513d601f19601f82011682018060405250810190610507919061264b565b905060008060009054906101000a900473ffffffffffffffffffffffffffffffffffffffff1673ffffffffffffffffffffffffffffffffffffffff16638b273a6887856040518363ffffffff1660e01b815260040161056792919061256d565b60206040518083038186803b15801561057f57600080fd5b505afa158015610593573d6000803e3d6000fd5b505050506040513d601f19601f820116820180604052508101906105b7919061264b565b90508173ffffffffffffffffffffffffffffffffffffffff166354cf2aeb6040518163ffffffff1660e01b815260040160206040518083038186803b1580156105ff57600080fd5b505afa158015610613573d6000803e3d6000fd5b505050506040513d601f19601f82011682018060405250810190610637919061268d565b8461064291906126e9565b93508073ffffffffffffffffffffffffffffffffffffffff166354cf2aeb6040518163ffffffff1660e01b815260040160206040518083038186803b15801561068a57600080fd5b505afa15801561069e573d6000803e3d6000fd5b505050506040513d601f19601f820116820180604052508101906106c2919061268d565b846106cd91906126e9565b9350505050610709565b6040517f8bb120b500000000000000000000000000000000000000000000000000000000815260040160405180910390fd5b5b8091505092915050565b60008060008054906101000a900473ffffffffffffffffffffffffffffffffffffffff1673ffffffffffffffffffffffffffffffffffffffff16637663f82286866040518363ffffffff1660e01b815260040161077292919061256d565b60206040518083038186803b15801561078a57600080fd5b505afa15801561079e573d6000803e3d6000fd5b505050506040513d601f19601f820116820180604052508101906107c291906125ce565b1561090a5760008060009054906101000a900473ffffffffffffffffffffffffffffffffffffffff1673ffffffffffffffffffffffffffffffffffffffff16638b273a6887876040518363ffffffff1660e01b815260040161082592919061256d565b60206040518083038186803b15801561083d57600080fd5b505afa158015610851573d6000803e3d6000fd5b505050506040513d601f19601f82011682018060405250810190610875919061264b565b90508073ffffffffffffffffffffffffffffffffffffffff166328da1aef87866040518363ffffffff1660e01b81526004016108b2929190612781565b60206040518083038186803b1580156108ca57600080fd5b505afa1580156108de573d6000803e3d6000fd5b505050506040513d601f19601f82011682018060405250810190610902919061268d565b915050610d50565b600073ffffffffffffffffffffffffffffffffffffffff1660008054906101000a900473ffffffffffffffffffffffffffffffffffffffff1673ffffffffffffffffffffffffffffffffffffffff16635553246087876040518363ffffffff1660e01b815260040161097d92919061256d565b60206040518083038186803b15801561099557600080fd5b505afa1580156109a9573d6000803e3d6000fd5b505050506040513d601f19601f820116820180604052508101906109cd9190612754565b73ffffffffffffffffffffffffffffffffffffffff1614610d1d5760008060009054906101000a900473ffffffffffffffffffffffffffffffffffffffff1673ffffffffffffffffffffffffffffffffffffffff16635553246087876040518363ffffffff1660e01b8152600401610a4692919061256d565b60206040518083038186803b158015610a5e57600080fd5b505afa158015610a72573d6000803e3d6000fd5b505050506040513d601f19601f82011682018060405250810190610a969190612754565b905060008060009054906101000a900473ffffffffffffffffffffffffffffffffffffffff1673ffffffffffffffffffffffffffffffffffffffff16638b273a6888846040518363ffffffff1660e01b8152600401610af692919061256d565b60206040518083038186803b158015610b0e57600080fd5b505afa158015610b22573d6000803e3d6000fd5b505050506040513d601f19601f82011682018060405250810190610b46919061264b565b905060008060009054906101000a900473ffffffffffffffffffffffffffffffffffffffff1673ffffffffffffffffffffffffffffffffffffffff16638b273a6888856040518363ffffffff1660e01b8152600401610ba692919061256d565b60206040518083038186803b158015610bbe57600080fd5b505afa158015610bd2573d6000803e3d6000fd5b505050506040513d601f19601f82011682018060405250810190610bf6919061264b565b905060008273ffffffffffffffffffffffffffffffffffffffff166328da1aef8a896040518363ffffffff1660e01b8152600401610c35929190612781565b60206040518083038186803b158015610c4d57600080fd5b505afa158015610c61573d6000803e3d6000fd5b505050506040513d601f19601f82011682018060405250810190610c85919061268d565b90508173ffffffffffffffffffffffffffffffffffffffff166328da1aef85836040518363ffffffff1660e01b8152600401610cc2929190612781565b60206040518083038186803b158015610cda57600080fd5b505afa158015610cee573d6000803e3d6000fd5b505050506040513d601f19601f82011682018060405250810190610d12919061268d565b945050505050610d4f565b6040517f8bb120b500000000000000000000000000000000000000000000000000000000815260040160405180910390fd5b5b809150509392505050565b600060149054906101000a900460ff1615610dab576040517f08c379a0000000000000000000000000000000000000000000000000000000008152600401610da290612807565b60405180910390fd5b6001600060146101000a81548160ff02191690831515021790555060008054906101000a900473ffffffffffffffffffffffffffffffffffffffff1673ffffffffffffffffffffffffffffffffffffffff16637663f82284846040518363ffffffff1660e01b8152600401610e2192919061256d565b60206040518083038186803b158015610e3957600080fd5b505afa158015610e4d573d6000803e3d6000fd5b505050506040513d601f19601f82011682018060405250810190610e7191906125ce565b156117235760008060009054906101000a900473ffffffffffffffffffffffffffffffffffffffff1673ffffffffffffffffffffffffffffffffffffffff16638b273a6885856040518363ffffffff1660e01b8152600401610ed492919061256d565b60206040518083038186803b158015610eec57600080fd5b505afa158015610f00573d6000803e3d6000fd5b505050506040513d601f19601f82011682018060405250810190610f24919061264b565b905060008373ffffffffffffffffffffffffffffffffffffffff166370a08231306040518263ffffffff1660e01b8152600401610f619190612827565b60206040518083038186803b158015610f7957600080fd5b505afa158015610f8d573d6000803e3d6000fd5b505050506040513d601f19601f82011682018060405250810190610fb1919061268d565b90508473ffffffffffffffffffffffffffffffffffffffff168273ffffffffffffffffffffffffffffffffffffffff1663ce5efee36040518163ffffffff1660e01b815260040160206040518083038186803b15801561101057600080fd5b505afa158015611024573d6000803e3d6000fd5b505050506040513d601f19601f820116820180604052508101906110489190612754565b73ffffffffffffffffffffffffffffffffffffffff161415611291578473ffffffffffffffffffffffffffffffffffffffff166323b872dd3330866040518463ffffffff1660e01b81526004016110a193929190612842565b602060405180830381600087803b1580156110bb57600080fd5b505af11580156110cf573d6000803e3d6000fd5b505050506040513d601f19601f820116820180604052508101906110f391906125ce565b508473ffffffffffffffffffffffffffffffffffffffff1663095ea7b383856040518363ffffffff1660e01b815260040161112f929190612781565b602060405180830381600087803b15801561114957600080fd5b505af115801561115d573d6000803e3d6000fd5b505050506040513d601f19601f8201168201806040525081019061118191906125ce565b508173ffffffffffffffffffffffffffffffffffffffff16634257dc4c8373ffffffffffffffffffffffffffffffffffffffff166354cf2aeb6040518163ffffffff1660e01b815260040160206040518083038186803b1580156111e457600080fd5b505afa1580156111f8573d6000803e3d6000fd5b505050506040513d601f19601f8201168201806040525081019061121c919061268d565b856040518363ffffffff1660e01b815260040161123991906124c4565b6020604051808303818588803b15801561125257600080fd5b505af1158015611266573d6000803e3d6000fd5b50505050506040513d601f19601f8201168201806040525081019061128b919061268d565b506114ba565b8473ffffffffffffffffffffffffffffffffffffffff166323b872dd3330866040518463ffffffff1660e01b81526004016112ce93929190612842565b602060405180830381600087803b1580156112e857600080fd5b505af11580156112fc573d6000803e3d6000fd5b505050506040513d601f19601f8201168201806040525081019061132091906125ce565b508473ffffffffffffffffffffffffffffffffffffffff1663095ea7b383856040518363ffffffff1660e01b815260040161135c929190612781565b602060405180830381600087803b15801561137657600080fd5b505af115801561138a573d6000803e3d6000fd5b505050506040513d601f19601f820116820180604052508101906113ae91906125ce565b508173ffffffffffffffffffffffffffffffffffffffff1663dc1716248373ffffffffffffffffffffffffffffffffffffffff166354cf2aeb6040518163ffffffff1660e01b815260040160206040518083038186803b15801561141157600080fd5b505afa158015611425573d6000803e3d6000fd5b505050506040513d601f19601f82011682018060405250810190611449919061268d565b856040518363ffffffff1660e01b815260040161146691906124c4565b6020604051808303818588803b15801561147f57600080fd5b505af1158015611493573d6000803e3d6000fd5b50505050506040513d601f19601f820116820180604052508101906114b8919061268d565b505b6000818573ffffffffffffffffffffffffffffffffffffffff166370a08231306040518263ffffffff1660e01b81526004016114f69190612827565b60206040518083038186803b15801561150e57600080fd5b505afa158015611522573d6000803e3d6000fd5b505050506040513d601f19601f82011682018060405250810190611546919061268d565b6115509190612879565b90508473ffffffffffffffffffffffffffffffffffffffff1663a9059cbb33836040518363ffffffff1660e01b815260040161158d929190612781565b602060405180830381600087803b1580156115a757600080fd5b505af11580156115bb573d6000803e3d6000fd5b505050506040513d601f19601f820116820180604052508101906115df91906125ce565b5060008373ffffffffffffffffffffffffffffffffffffffff166354cf2aeb6040518163ffffffff1660e01b815260040160206040518083038186803b15801561162857600080fd5b505afa15801561163c573d6000803e3d6000fd5b505050506040513d601f19601f82011682018060405250810190611660919061268d565b3461166b9190612879565b905060003373ffffffffffffffffffffffffffffffffffffffff1682604051611693906128de565b60006040518083038185875af1925050503d80600081146116d0576040519150601f19603f3d011682016040523d82523d6000602084013e6116d5565b606091505b5050905080611719576040517f08c379a00000000000000000000000000000000000000000000000000000000081526004016117109061293f565b60405180910390fd5b50505050506123e9565b600073ffffffffffffffffffffffffffffffffffffffff1660008054906101000a900473ffffffffffffffffffffffffffffffffffffffff1673ffffffffffffffffffffffffffffffffffffffff16635553246085856040518363ffffffff1660e01b815260040161179692919061256d565b60206040518083038186803b1580156117ae57600080fd5b505afa1580156117c2573d6000803e3d6000fd5b505050506040513d601f19601f820116820180604052508101906117e69190612754565b73ffffffffffffffffffffffffffffffffffffffff16146123b65760008060009054906101000a900473ffffffffffffffffffffffffffffffffffffffff1673ffffffffffffffffffffffffffffffffffffffff16635553246085856040518363ffffffff1660e01b815260040161185f92919061256d565b60206040518083038186803b15801561187757600080fd5b505afa15801561188b573d6000803e3d6000fd5b505050506040513d601f19601f820116820180604052508101906118af9190612754565b905060008060009054906101000a900473ffffffffffffffffffffffffffffffffffffffff1673ffffffffffffffffffffffffffffffffffffffff16638b273a6886846040518363ffffffff1660e01b815260040161190f92919061256d565b60206040518083038186803b15801561192757600080fd5b505afa15801561193b573d6000803e3d6000fd5b505050506040513d601f19601f8201168201806040525081019061195f919061264b565b905060008060009054906101000a900473ffffffffffffffffffffffffffffffffffffffff1673ffffffffffffffffffffffffffffffffffffffff16638b273a6886856040518363ffffffff1660e01b81526004016119bf92919061256d565b60206040518083038186803b1580156119d757600080fd5b505afa1580156119eb573d6000803e3d6000fd5b505050506040513d601f19601f82011682018060405250810190611a0f919061264b565b905060008673ffffffffffffffffffffffffffffffffffffffff166323b872dd3330886040518463ffffffff1660e01b8152600401611a5093929190612842565b602060405180830381600087803b158015611a6a57600080fd5b505af1158015611a7e573d6000803e3d6000fd5b505050506040513d601f19601f82011682018060405250810190611aa291906125ce565b508673ffffffffffffffffffffffffffffffffffffffff1663095ea7b384876040518363ffffffff1660e01b8152600401611ade929190612781565b602060405180830381600087803b158015611af857600080fd5b505af1158015611b0c573d6000803e3d6000fd5b505050506040513d601f19601f82011682018060405250810190611b3091906125ce565b508673ffffffffffffffffffffffffffffffffffffffff168373ffffffffffffffffffffffffffffffffffffffff1663ce5efee36040518163ffffffff1660e01b815260040160206040518083038186803b158015611b8e57600080fd5b505afa158015611ba2573d6000803e3d6000fd5b505050506040513d601f19601f82011682018060405250810190611bc69190612754565b73ffffffffffffffffffffffffffffffffffffffff161415611cf2578273ffffffffffffffffffffffffffffffffffffffff16634257dc4c8473ffffffffffffffffffffffffffffffffffffffff166354cf2aeb6040518163ffffffff1660e01b815260040160206040518083038186803b158015611c4457600080fd5b505afa158015611c58573d6000803e3d6000fd5b505050506040513d601f19601f82011682018060405250810190611c7c919061268d565b876040518363ffffffff1660e01b8152600401611c9991906124c4565b6020604051808303818588803b158015611cb257600080fd5b505af1158015611cc6573d6000803e3d6000fd5b50505050506040513d601f19601f82011682018060405250810190611ceb919061268d565b9050611dfe565b8273ffffffffffffffffffffffffffffffffffffffff1663dc1716248473ffffffffffffffffffffffffffffffffffffffff166354cf2aeb6040518163ffffffff1660e01b815260040160206040518083038186803b158015611d5457600080fd5b505afa158015611d68573d6000803e3d6000fd5b505050506040513d601f19601f82011682018060405250810190611d8c919061268d565b876040518363ffffffff1660e01b8152600401611da991906124c4565b6020604051808303818588803b158015611dc257600080fd5b505af1158015611dd6573d6000803e3d6000fd5b50505050506040513d601f19601f82011682018060405250810190611dfb919061268d565b90505b60008473ffffffffffffffffffffffffffffffffffffffff1663095ea7b384846040518363ffffffff1660e01b8152600401611e3b929190612781565b602060405180830381600087803b158015611e5557600080fd5b505af1158015611e69573d6000803e3d6000fd5b505050506040513d601f19601f82011682018060405250810190611e8d91906125ce565b508473ffffffffffffffffffffffffffffffffffffffff168373ffffffffffffffffffffffffffffffffffffffff1663ce5efee36040518163ffffffff1660e01b815260040160206040518083038186803b158015611eeb57600080fd5b505afa158015611eff573d6000803e3d6000fd5b505050506040513d601f19601f82011682018060405250810190611f239190612754565b73ffffffffffffffffffffffffffffffffffffffff16141561204f578273ffffffffffffffffffffffffffffffffffffffff16634257dc4c8473ffffffffffffffffffffffffffffffffffffffff166354cf2aeb6040518163ffffffff1660e01b815260040160206040518083038186803b158015611fa157600080fd5b505afa158015611fb5573d6000803e3d6000fd5b505050506040513d601f19601f82011682018060405250810190611fd9919061268d565b846040518363ffffffff1660e01b8152600401611ff691906124c4565b6020604051808303818588803b15801561200f57600080fd5b505af1158015612023573d6000803e3d6000fd5b50505050506040513d601f19601f82011682018060405250810190612048919061268d565b905061215b565b8273ffffffffffffffffffffffffffffffffffffffff1663dc1716248473ffffffffffffffffffffffffffffffffffffffff166354cf2aeb6040518163ffffffff1660e01b815260040160206040518083038186803b1580156120b157600080fd5b505afa1580156120c5573d6000803e3d6000fd5b505050506040513d601f19601f820116820180604052508101906120e9919061268d565b846040518363ffffffff1660e01b815260040161210691906124c4565b6020604051808303818588803b15801561211f57600080fd5b505af1158015612133573d6000803e3d6000fd5b50505050506040513d601f19601f82011682018060405250810190612158919061268d565b90505b8673ffffffffffffffffffffffffffffffffffffffff1663a9059cbb33836040518363ffffffff1660e01b8152600401612196929190612781565b602060405180830381600087803b1580156121b057600080fd5b505af11580156121c4573d6000803e3d6000fd5b505050506040513d601f19601f820116820180604052508101906121e891906125ce565b5060008373ffffffffffffffffffffffffffffffffffffffff166354cf2aeb6040518163ffffffff1660e01b815260040160206040518083038186803b15801561223157600080fd5b505afa158015612245573d6000803e3d6000fd5b505050506040513d601f19601f82011682018060405250810190612269919061268d565b8573ffffffffffffffffffffffffffffffffffffffff166354cf2aeb6040518163ffffffff1660e01b815260040160206040518083038186803b1580156122af57600080fd5b505afa1580156122c3573d6000803e3d6000fd5b505050506040513d601f19601f820116820180604052508101906122e7919061268d565b346122f29190612879565b6122fc9190612879565b905060003373ffffffffffffffffffffffffffffffffffffffff1682604051612324906128de565b60006040518083038185875af1925050503d8060008114612361576040519150601f19603f3d011682016040523d82523d6000602084013e612366565b606091505b50509050806123aa576040517f08c379a00000000000000000000000000000000000000000000000000000000081526004016123a19061293f565b60405180910390fd5b505050505050506123e8565b6040517f8bb120b500000000000000000000000000000000000000000000000000000000815260040160405180910390fd5b5b60008060146101000a81548160ff021916908315150217905550505050565b600080fd5b600073ffffffffffffffffffffffffffffffffffffffff82169050919050565b60006124388261240d565b9050919050565b6124488161242d565b811461245357600080fd5b50565b6000813590506124658161243f565b92915050565b6000806040838503121561248257612481612408565b5b600061249085828601612456565b92505060206124a185828601612456565b9150509250929050565b6000819050919050565b6124be816124ab565b82525050565b60006020820190506124d960008301846124b5565b92915050565b6124e8816124ab565b81146124f357600080fd5b50565b600081359050612505816124df565b92915050565b60008060006060848603121561252457612523612408565b5b600061253286828701612456565b935050602061254386828701612456565b9250506040612554868287016124f6565b9150509250925092565b6125678161242d565b82525050565b6000604082019050612582600083018561255e565b61258f602083018461255e565b9392505050565b60008115159050919050565b6125ab81612596565b81146125b657600080fd5b50565b6000815190506125c8816125a2565b92915050565b6000602082840312156125e4576125e3612408565b5b60006125f2848285016125b9565b91505092915050565b60006126068261240d565b9050919050565b6000612618826125fb565b9050919050565b6126288161260d565b811461263357600080fd5b50565b6000815190506126458161261f565b92915050565b60006020828403121561266157612660612408565b5b600061266f84828501612636565b91505092915050565b600081519050612687816124df565b92915050565b6000602082840312156126a3576126a2612408565b5b60006126b184828501612678565b91505092915050565b7f4e487b7100000000000000000000000000000000000000000000000000000000600052601160045260246000fd5b60006126f4826124ab565b91506126ff836124ab565b9250827fffffffffffffffffffffffffffffffffffffffffffffffffffffffffffffffff03821115612734576127336126ba565b5b828201905092915050565b60008151905061274e8161243f565b92915050565b60006020828403121561276a57612769612408565b5b60006127788482850161273f565b91505092915050565b6000604082019050612796600083018561255e565b6127a360208301846124b5565b9392505050565b600082825260208201905092915050565b7f4e6f2072652d656e7472616e6379000000000000000000000000000000000000600082015250565b60006127f1600e836127aa565b91506127fc826127bb565b602082019050919050565b60006020820190508181036000830152612820816127e4565b9050919050565b600060208201905061283c600083018461255e565b92915050565b6000606082019050612857600083018661255e565b612864602083018561255e565b61287160408301846124b5565b949350505050565b6000612884826124ab565b915061288f836124ab565b9250828210156128a2576128a16126ba565b5b828203905092915050565b600081905092915050565b50565b60006128c86000836128ad565b91506128d3826128b8565b600082019050919050565b60006128e9826128bb565b9150819050919050565b7f4661696c656420746f2073656e64204574686572000000000000000000000000600082015250565b60006129296014836127aa565b9150612934826128f3565b602082019050919050565b600060208201905081810360008301526129588161291c565b905091905056fea26469706673582212208dbae85c45bf4d8b81c47c7d3ccf56043ae2588e8a05b9e6b1bfdc0a89ab70dc64736f6c63430008090033",
  "devdoc": {
    "details": "This contract facilitates token swaps by interacting with liquidity pools. It supports direct swaps between two tokens in a single pool, or routed swaps through an intermediary token. Utilizes the PoolTracker contract to find liquidity pools and perform the necessary asset exchanges.",
    "kind": "dev",
    "methods": {
      "constructor": {
        "params": {
          "tracker": "The PoolTracker contract address."
        }
      },
      "getSwapAmount(address,address,uint256)": {
        "details": "Considers direct swaps and routed swaps through an intermediary token, utilizing PoolTracker for calculations.",
        "params": {
          "address1": "The token being sold.",
          "address2": "The token being bought.",
          "inputAmount": "The amount of `address1` tokens to swap."
        },
        "returns": {
          "_0": "output The estimated amount of `address2` tokens to be received."
        }
      },
      "getSwapFee(address,address)": {
        "details": "Calculates the total swap fee, accounting for both direct and routed swaps, by querying the associated pools.",
        "params": {
          "address1": "The source token address.",
          "address2": "The destination token address."
        },
        "returns": {
          "_0": "fee The total swap fee for the transaction."
        }
      },
      "swapAsset(address,address,uint256)": {
        "details": "This function supports direct swaps between tokens in a single pool or routed swaps through an intermediary token. Uses PoolTracker to determine the best swap path and perform the exchange.",
        "params": {
          "address1": "The token being sold by the user.",
          "address2": "The token being purchased by the user.",
          "inputAmount": "The amount of `address1` tokens to swap."
        }
      }
    },
    "title": "SwapRouter",
    "version": 1
  },
  "userdoc": {
    "kind": "user",
    "methods": {
      "constructor": {
        "notice": "Constructs the SwapRouter and initializes the PoolTracker reference."
      },
      "getSwapAmount(address,address,uint256)": {
        "notice": "Estimates the output amount for a swap from `address1` to `address2` given an `inputAmount` of `address1`."
      },
      "getSwapFee(address,address)": {
        "notice": "Retrieves the swap fee required for a swap between `address1` and `address2`."
      },
      "swapAsset(address,address,uint256)": {
        "notice": "Swaps `inputAmount` of `address1` tokens for `address2` tokens."
      }
    },
    "version": 1
  },
  "storageLayout": {
    "storage": [
      {
        "astId": 2464,
        "contract": "contracts/Dex/WeaveSwap.sol:SwapRouter",
        "label": "poolTracker",
        "offset": 0,
        "slot": "0",
        "type": "t_contract(PoolTracker)2439"
      },
      {
        "astId": 2466,
        "contract": "contracts/Dex/WeaveSwap.sol:SwapRouter",
        "label": "locked",
        "offset": 20,
        "slot": "0",
        "type": "t_bool"
      }
    ],
    "types": {
      "t_bool": {
        "encoding": "inplace",
        "label": "bool",
        "numberOfBytes": "1"
      },
      "t_contract(PoolTracker)2439": {
        "encoding": "inplace",
        "label": "contract PoolTracker",
        "numberOfBytes": "20"
      }
    }
  }
}