{
  "address": "0xe7f1725E7734CE288F8367e1Bb143E90bb3F0512",
  "abi": [
    {
      "inputs": [
        {
          "internalType": "address",
          "name": "_zkBridge",
          "type": "address"
        }
      ],
      "stateMutability": "nonpayable",
      "type": "constructor"
    },
    {
      "inputs": [
        {
          "internalType": "uint16",
          "name": "srcChainId",
          "type": "uint16"
        },
        {
          "internalType": "address",
          "name": "srcAddress",
          "type": "address"
        },
        {
          "internalType": "uint64",
          "name": "nonce",
          "type": "uint64"
        },
        {
          "internalType": "bytes",
          "name": "payload",
          "type": "bytes"
        }
      ],
      "name": "zkReceive",
      "outputs": [],
      "stateMutability": "nonpayable",
      "type": "function"
    }
  ],
  "transactionHash": "0x3e715a92c617e188ff62706668d6aaad53e411792a67f67d7e9364b3ceafe0d9",
  "args": [
    "0x143db3CEEfbdfe5631aDD3E50f7614B6ba708BA7"
  ],
  "numDeployments": 1,
  "solcInputHash": "48cb509c8d796d601f6af2caafafc13b",
  "bytecode": "0x608060405234801561001057600080fd5b50604051610b0c380380610b0c833981810160405281019061003291906100db565b806000806101000a81548173ffffffffffffffffffffffffffffffffffffffff021916908373ffffffffffffffffffffffffffffffffffffffff16021790555050610108565b600080fd5b600073ffffffffffffffffffffffffffffffffffffffff82169050919050565b60006100a88261007d565b9050919050565b6100b88161009d565b81146100c357600080fd5b50565b6000815190506100d5816100af565b92915050565b6000602082840312156100f1576100f0610078565b5b60006100ff848285016100c6565b91505092915050565b6109f5806101176000396000f3fe608060405234801561001057600080fd5b506004361061002b5760003560e01c80632de9952a14610030575b600080fd5b61004a600480360381019061004591906105a7565b61004c565b005b6000828281019061005d919061066d565b9050600085905060008173ffffffffffffffffffffffffffffffffffffffff16639a61c36a846040518263ffffffff1660e01b815260040161009f91906106a9565b60206040518083038186803b1580156100b757600080fd5b505afa1580156100cb573d6000803e3d6000fd5b505050506040513d601f19601f820116820180604052508101906100ef91906106fa565b905060008273ffffffffffffffffffffffffffffffffffffffff16631a6865026040518163ffffffff1660e01b815260040160206040518083038186803b15801561013957600080fd5b505afa15801561014d573d6000803e3d6000fd5b505050506040513d601f19601f8201168201806040525081019061017191906106fa565b60648473ffffffffffffffffffffffffffffffffffffffff166324aabb92876040518263ffffffff1660e01b81526004016101ac91906106a9565b60206040518083038186803b1580156101c457600080fd5b505afa1580156101d8573d6000803e3d6000fd5b505050506040513d601f19601f820116820180604052508101906101fc91906106fa565b6102069190610756565b61021091906107df565b90506000606482836064866102259190610756565b61022f91906107df565b8673ffffffffffffffffffffffffffffffffffffffff1663285939846040518163ffffffff1660e01b815260040160206040518083038186803b15801561027557600080fd5b505afa158015610289573d6000803e3d6000fd5b505050506040513d601f19601f820116820180604052508101906102ad91906106fa565b6102b79190610810565b6102c19190610756565b6102cb91906107df565b9050600081866040516020016102e2929190610853565b604051602081830303815290604052905060008060009054906101000a900473ffffffffffffffffffffffffffffffffffffffff1673ffffffffffffffffffffffffffffffffffffffff1663207bae8a8d6040518263ffffffff1660e01b815260040161034f919061088b565b60206040518083038186803b15801561036757600080fd5b505afa15801561037b573d6000803e3d6000fd5b505050506040513d601f19601f8201168201806040525081019061039f91906106fa565b905060008054906101000a900473ffffffffffffffffffffffffffffffffffffffff1673ffffffffffffffffffffffffffffffffffffffff1663b1d995dd828e8e866040518563ffffffff1660e01b81526004016103ff9392919061093f565b6020604051808303818588803b15801561041857600080fd5b505af115801561042c573d6000803e3d6000fd5b50505050506040513d601f19601f820116820180604052508101906104519190610992565b50505050505050505050505050565b600080fd5b600080fd5b600061ffff82169050919050565b6104818161046a565b811461048c57600080fd5b50565b60008135905061049e81610478565b92915050565b600073ffffffffffffffffffffffffffffffffffffffff82169050919050565b60006104cf826104a4565b9050919050565b6104df816104c4565b81146104ea57600080fd5b50565b6000813590506104fc816104d6565b92915050565b600067ffffffffffffffff82169050919050565b61051f81610502565b811461052a57600080fd5b50565b60008135905061053c81610516565b92915050565b600080fd5b600080fd5b600080fd5b60008083601f84011261056757610566610542565b5b8235905067ffffffffffffffff81111561058457610583610547565b5b6020830191508360018202830111156105a05761059f61054c565b5b9250929050565b6000806000806000608086880312156105c3576105c2610460565b5b60006105d18882890161048f565b95505060206105e2888289016104ed565b94505060406105f38882890161052d565b935050606086013567ffffffffffffffff81111561061457610613610465565b5b61062088828901610551565b92509250509295509295909350565b600061063a826104a4565b9050919050565b61064a8161062f565b811461065557600080fd5b50565b60008135905061066781610641565b92915050565b60006020828403121561068357610682610460565b5b600061069184828501610658565b91505092915050565b6106a3816104c4565b82525050565b60006020820190506106be600083018461069a565b92915050565b6000819050919050565b6106d7816106c4565b81146106e257600080fd5b50565b6000815190506106f4816106ce565b92915050565b6000602082840312156107105761070f610460565b5b600061071e848285016106e5565b91505092915050565b7f4e487b7100000000000000000000000000000000000000000000000000000000600052601160045260246000fd5b6000610761826106c4565b915061076c836106c4565b9250817fffffffffffffffffffffffffffffffffffffffffffffffffffffffffffffffff04831182151516156107a5576107a4610727565b5b828202905092915050565b7f4e487b7100000000000000000000000000000000000000000000000000000000600052601260045260246000fd5b60006107ea826106c4565b91506107f5836106c4565b925082610805576108046107b0565b5b828204905092915050565b600061081b826106c4565b9150610826836106c4565b92508282101561083957610838610727565b5b828203905092915050565b61084d816106c4565b82525050565b60006040820190506108686000830185610844565b610875602083018461069a565b9392505050565b6108858161046a565b82525050565b60006020820190506108a0600083018461087c565b92915050565b600081519050919050565b600082825260208201905092915050565b60005b838110156108e05780820151818401526020810190506108c5565b838111156108ef576000848401525b50505050565b6000601f19601f8301169050919050565b6000610911826108a6565b61091b81856108b1565b935061092b8185602086016108c2565b610934816108f5565b840191505092915050565b6000606082019050610954600083018661087c565b610961602083018561069a565b81810360408301526109738184610906565b9050949350505050565b60008151905061098c81610516565b92915050565b6000602082840312156109a8576109a7610460565b5b60006109b68482850161097d565b9150509291505056fea2646970667358221220715d835f6cb69228ceb641bf2901e763ca2c852a069900ba57d21ad89a11048064736f6c63430008090033",
  "devdoc": {
    "details": "Receives yield calculation requests from an external bridge, computes available yield, and sends it back. This contract interacts with a LiquidityPool contract to calculate available yield for a user.",
    "kind": "dev",
    "methods": {
      "constructor": {
        "details": "Constructor initializes the YieldCalculator with the address of the external bridge contract.",
        "params": {
          "_zkBridge": "Address of the external bridge contract."
        }
      },
      "zkReceive(uint16,address,uint64,bytes)": {
        "details": "Implementation of the zkReceive function from the IZKBridgeReceiver interface. Calculates available yield for a user based on data received from the external bridge. Sends the available yield back to the source address.",
        "params": {
          "nonce": "The nonce of the transaction.",
          "payload": "The payload containing user-specific data.",
          "srcAddress": "The address of the source contract or user.",
          "srcChainId": "The chain ID of the source blockchain."
        }
      }
    },
    "title": "YieldCalculator",
    "version": 1
  },
  "userdoc": {
    "kind": "user",
    "methods": {},
    "notice": "we need to fund this contract so It can send the response from bridging. We get funding from getYield liquidity contract(funds the poolTracker)",
    "version": 1
  },
  "storageLayout": {
    "storage": [
      {
        "astId": 5666,
        "contract": "contracts/Router/YieldCalculator.sol:YieldCalculator",
        "label": "zkBridge",
        "offset": 0,
        "slot": "0",
        "type": "t_contract(IZKBridge)5644"
      }
    ],
    "types": {
      "t_contract(IZKBridge)5644": {
        "encoding": "inplace",
        "label": "contract IZKBridge",
        "numberOfBytes": "20"
      }
    }
  }
}