{
  "address": "0x58e28BA182fF5C326c8c3d18aeb29bbA7A5529ac",
  "abi": [
    {
      "inputs": [
        {
          "internalType": "address",
          "name": "_lendingTracker",
          "type": "address"
        },
        {
          "internalType": "address",
          "name": "_swapRouter",
          "type": "address"
        }
      ],
      "stateMutability": "nonpayable",
      "type": "constructor"
    },
    {
      "inputs": [],
      "name": "BorrowingTracker_AmountOfCollateralTokenTooLow",
      "type": "error"
    },
    {
      "inputs": [],
      "name": "BorrowingTracker_AmountTooHigh",
      "type": "error"
    },
    {
      "inputs": [],
      "name": "lendingTracker_addressNotAllowed",
      "type": "error"
    },
    {
      "inputs": [],
      "name": "lendingTracker_amountTooHigh",
      "type": "error"
    },
    {
      "inputs": [],
      "name": "lendingTracker_poolNotAvailable",
      "type": "error"
    },
    {
      "inputs": [],
      "name": "lendingTracker_receiptDoesntExist",
      "type": "error"
    },
    {
      "inputs": [],
      "name": "lending_addressNotAllowed",
      "type": "error"
    },
    {
      "anonymous": false,
      "inputs": [
        {
          "indexed": false,
          "internalType": "address",
          "name": "user",
          "type": "address"
        },
        {
          "indexed": false,
          "internalType": "address",
          "name": "terminator",
          "type": "address"
        }
      ],
      "name": "collateralTerminated",
      "type": "event"
    },
    {
      "anonymous": false,
      "inputs": [
        {
          "indexed": true,
          "internalType": "address",
          "name": "user",
          "type": "address"
        },
        {
          "indexed": false,
          "internalType": "address",
          "name": "tokenAddress",
          "type": "address"
        },
        {
          "indexed": false,
          "internalType": "uint256",
          "name": "tokenAmount",
          "type": "uint256"
        }
      ],
      "name": "userBorrowed",
      "type": "event"
    },
    {
      "anonymous": false,
      "inputs": [
        {
          "indexed": true,
          "internalType": "address",
          "name": "user",
          "type": "address"
        },
        {
          "indexed": false,
          "internalType": "address",
          "name": "tokenAddress",
          "type": "address"
        },
        {
          "indexed": false,
          "internalType": "uint256",
          "name": "receiptId",
          "type": "uint256"
        },
        {
          "indexed": false,
          "internalType": "uint256",
          "name": "tokenAmount",
          "type": "uint256"
        },
        {
          "indexed": false,
          "internalType": "uint256",
          "name": "interest",
          "type": "uint256"
        }
      ],
      "name": "userReturnedBorrowedToken",
      "type": "event"
    },
    {
      "anonymous": false,
      "inputs": [
        {
          "indexed": true,
          "internalType": "address",
          "name": "user",
          "type": "address"
        },
        {
          "indexed": false,
          "internalType": "address",
          "name": "tokenAddress",
          "type": "address"
        },
        {
          "indexed": false,
          "internalType": "uint256",
          "name": "tokenAmount",
          "type": "uint256"
        }
      ],
      "name": "userStakedCollateral",
      "type": "event"
    },
    {
      "anonymous": false,
      "inputs": [
        {
          "indexed": true,
          "internalType": "address",
          "name": "user",
          "type": "address"
        },
        {
          "indexed": false,
          "internalType": "address",
          "name": "tokenAddress",
          "type": "address"
        },
        {
          "indexed": false,
          "internalType": "uint256",
          "name": "tokenAmount",
          "type": "uint256"
        }
      ],
      "name": "userUnstakedCollateral",
      "type": "event"
    },
    {
      "inputs": [
        {
          "internalType": "uint256",
          "name": "_id",
          "type": "uint256"
        },
        {
          "internalType": "address",
          "name": "_user",
          "type": "address"
        },
        {
          "internalType": "uint256",
          "name": "tokenAmount",
          "type": "uint256"
        }
      ],
      "name": "accruedInterest",
      "outputs": [
        {
          "internalType": "uint256",
          "name": "",
          "type": "uint256"
        }
      ],
      "stateMutability": "view",
      "type": "function"
    },
    {
      "inputs": [
        {
          "internalType": "address",
          "name": "_swapRouter",
          "type": "address"
        }
      ],
      "name": "addSwapRouter",
      "outputs": [],
      "stateMutability": "nonpayable",
      "type": "function"
    },
    {
      "inputs": [
        {
          "internalType": "address",
          "name": "newSwapToken",
          "type": "address"
        }
      ],
      "name": "addSwapToken",
      "outputs": [],
      "stateMutability": "nonpayable",
      "type": "function"
    },
    {
      "inputs": [
        {
          "internalType": "address",
          "name": "",
          "type": "address"
        },
        {
          "internalType": "uint256",
          "name": "",
          "type": "uint256"
        }
      ],
      "name": "borrowReceiptData",
      "outputs": [
        {
          "internalType": "address",
          "name": "tokenAddress",
          "type": "address"
        },
        {
          "internalType": "uint256",
          "name": "amount",
          "type": "uint256"
        },
        {
          "internalType": "uint256",
          "name": "time",
          "type": "uint256"
        },
        {
          "internalType": "uint256",
          "name": "apy",
          "type": "uint256"
        }
      ],
      "stateMutability": "view",
      "type": "function"
    },
    {
      "inputs": [
        {
          "internalType": "address",
          "name": "tokenAddress",
          "type": "address"
        },
        {
          "internalType": "uint256",
          "name": "tokenAmount",
          "type": "uint256"
        }
      ],
      "name": "borrowToken",
      "outputs": [],
      "stateMutability": "nonpayable",
      "type": "function"
    },
    {
      "inputs": [
        {
          "internalType": "address",
          "name": "",
          "type": "address"
        },
        {
          "internalType": "uint256",
          "name": "",
          "type": "uint256"
        }
      ],
      "name": "borrowedTokens",
      "outputs": [
        {
          "internalType": "address",
          "name": "",
          "type": "address"
        }
      ],
      "stateMutability": "view",
      "type": "function"
    },
    {
      "inputs": [
        {
          "internalType": "address",
          "name": "",
          "type": "address"
        }
      ],
      "name": "borrowingId",
      "outputs": [
        {
          "internalType": "uint256",
          "name": "",
          "type": "uint256"
        }
      ],
      "stateMutability": "view",
      "type": "function"
    },
    {
      "inputs": [
        {
          "internalType": "address",
          "name": "",
          "type": "address"
        },
        {
          "internalType": "address",
          "name": "",
          "type": "address"
        }
      ],
      "name": "collateral",
      "outputs": [
        {
          "internalType": "uint256",
          "name": "",
          "type": "uint256"
        }
      ],
      "stateMutability": "view",
      "type": "function"
    },
    {
      "inputs": [
        {
          "internalType": "address",
          "name": "",
          "type": "address"
        },
        {
          "internalType": "uint256",
          "name": "",
          "type": "uint256"
        }
      ],
      "name": "collateralTokens",
      "outputs": [
        {
          "internalType": "address",
          "name": "",
          "type": "address"
        }
      ],
      "stateMutability": "view",
      "type": "function"
    },
    {
      "inputs": [
        {
          "internalType": "address",
          "name": "user",
          "type": "address"
        }
      ],
      "name": "getBorrowedReceipts",
      "outputs": [
        {
          "internalType": "uint256[]",
          "name": "",
          "type": "uint256[]"
        }
      ],
      "stateMutability": "view",
      "type": "function"
    },
    {
      "inputs": [
        {
          "internalType": "address",
          "name": "user",
          "type": "address"
        }
      ],
      "name": "getBorrowedTokens",
      "outputs": [
        {
          "internalType": "address[]",
          "name": "",
          "type": "address[]"
        }
      ],
      "stateMutability": "view",
      "type": "function"
    },
    {
      "inputs": [
        {
          "internalType": "address",
          "name": "user",
          "type": "address"
        }
      ],
      "name": "getCollateralTokens",
      "outputs": [
        {
          "internalType": "address[]",
          "name": "",
          "type": "address[]"
        }
      ],
      "stateMutability": "view",
      "type": "function"
    },
    {
      "inputs": [],
      "name": "lendingTracker",
      "outputs": [
        {
          "internalType": "contract LendingTracker",
          "name": "",
          "type": "address"
        }
      ],
      "stateMutability": "view",
      "type": "function"
    },
    {
      "inputs": [
        {
          "internalType": "address",
          "name": "user",
          "type": "address"
        },
        {
          "internalType": "address",
          "name": "additionalTokenAddress",
          "type": "address"
        },
        {
          "internalType": "uint256",
          "name": "tokenAmount",
          "type": "uint256"
        }
      ],
      "name": "liquidityTreshold",
      "outputs": [
        {
          "internalType": "int256",
          "name": "",
          "type": "int256"
        }
      ],
      "stateMutability": "view",
      "type": "function"
    },
    {
      "inputs": [],
      "name": "ltv",
      "outputs": [
        {
          "internalType": "int256",
          "name": "",
          "type": "int256"
        }
      ],
      "stateMutability": "view",
      "type": "function"
    },
    {
      "inputs": [
        {
          "internalType": "uint256",
          "name": "id",
          "type": "uint256"
        },
        {
          "internalType": "uint256",
          "name": "tokenAmount",
          "type": "uint256"
        }
      ],
      "name": "returnBorrowedToken",
      "outputs": [],
      "stateMutability": "nonpayable",
      "type": "function"
    },
    {
      "inputs": [
        {
          "internalType": "address",
          "name": "tokenAddress",
          "type": "address"
        },
        {
          "internalType": "uint256",
          "name": "tokenAmount",
          "type": "uint256"
        }
      ],
      "name": "stakeCollateral",
      "outputs": [],
      "stateMutability": "nonpayable",
      "type": "function"
    },
    {
      "inputs": [],
      "name": "swapRouter",
      "outputs": [
        {
          "internalType": "contract SwapRouter",
          "name": "",
          "type": "address"
        }
      ],
      "stateMutability": "view",
      "type": "function"
    },
    {
      "inputs": [],
      "name": "swapToken",
      "outputs": [
        {
          "internalType": "address",
          "name": "",
          "type": "address"
        }
      ],
      "stateMutability": "view",
      "type": "function"
    },
    {
      "inputs": [
        {
          "internalType": "address",
          "name": "userAddress",
          "type": "address"
        }
      ],
      "name": "terminateCollateral",
      "outputs": [],
      "stateMutability": "payable",
      "type": "function"
    },
    {
      "inputs": [
        {
          "internalType": "address",
          "name": "tokenAddress",
          "type": "address"
        },
        {
          "internalType": "uint256",
          "name": "tokenAmount",
          "type": "uint256"
        }
      ],
      "name": "unstakeCollateral",
      "outputs": [],
      "stateMutability": "nonpayable",
      "type": "function"
    },
    {
      "inputs": [
        {
          "internalType": "address",
          "name": "",
          "type": "address"
        },
        {
          "internalType": "address",
          "name": "",
          "type": "address"
        },
        {
          "internalType": "uint256",
          "name": "",
          "type": "uint256"
        }
      ],
      "name": "userBorrowReceipts",
      "outputs": [
        {
          "internalType": "uint256",
          "name": "",
          "type": "uint256"
        }
      ],
      "stateMutability": "view",
      "type": "function"
    }
  ],
  "transactionHash": "0x731a70bf2c936fb324943d7b0303dcb69308a42b452bc3181a7188e37bf86f80",
  "args": [
    "0x12fcA4F204D216244E89E5eed86c7aF9469736A6",
    "0xC07afc4EA757b99DDF176EA87b64B755bad03099"
  ],
  "numDeployments": 2,
  "solcInputHash": "00e357b9c196a5a5714c5de0e52b371d",
  "bytecode": "0x6080604052604b6000553480156200001657600080fd5b5060405162005af038038062005af083398181016040528101906200003c919062000171565b33600160006101000a81548173ffffffffffffffffffffffffffffffffffffffff021916908373ffffffffffffffffffffffffffffffffffffffff16021790555081600460006101000a81548173ffffffffffffffffffffffffffffffffffffffff021916908373ffffffffffffffffffffffffffffffffffffffff16021790555080600260006101000a81548173ffffffffffffffffffffffffffffffffffffffff021916908373ffffffffffffffffffffffffffffffffffffffff1602179055505050620001b8565b600080fd5b600073ffffffffffffffffffffffffffffffffffffffff82169050919050565b600062000139826200010c565b9050919050565b6200014b816200012c565b81146200015757600080fd5b50565b6000815190506200016b8162000140565b92915050565b600080604083850312156200018b576200018a62000107565b5b60006200019b858286016200015a565b9250506020620001ae858286016200015a565b9150509250929050565b61592880620001c86000396000f3fe6080604052600436106101355760003560e01c80636fb49d73116100ab578063c31c9c071161006f578063c31c9c071461045f578063cc218ece1461048a578063dbf50bfc146104c7578063dc73e49c146104f2578063e0b1d2371461051d578063ed903f7a1461055d57610135565b80636fb49d7314610340578063784eddd81461036b57806383eaf8bc146103a8578063b2f7f916146103e5578063b3f8d9001461042257610135565b8063322de332116100fd578063322de3321461022257806347c47ed31461024b5780634bb3df99146102745780635a91b39c1461029d5780635cf8f780146102c65780636178bad61461030357610135565b80630d9328a61461013a578063106c6dbc1461017757806315ec777a146101a05780632b798f49146101c95780632cb8f67614610206575b600080fd5b34801561014657600080fd5b50610161600480360381019061015c9190614c3d565b61059a565b60405161016e9190614c9f565b60405180910390f35b34801561018357600080fd5b5061019e60048036038101906101999190614cba565b61074e565b005b3480156101ac57600080fd5b506101c760048036038101906101c29190614cfa565b6112f5565b005b3480156101d557600080fd5b506101f060048036038101906101eb9190614d27565b6113c0565b6040516101fd9190614d76565b60405180910390f35b610220600480360381019061021b9190614cfa565b61140e565b005b34801561022e57600080fd5b5061024960048036038101906102449190614d27565b61274e565b005b34801561025757600080fd5b50610272600480360381019061026d9190614cfa565b612bb2565b005b34801561028057600080fd5b5061029b60048036038101906102969190614d27565b612bf6565b005b3480156102a957600080fd5b506102c460048036038101906102bf9190614d27565b6133c5565b005b3480156102d257600080fd5b506102ed60048036038101906102e89190614d27565b613acc565b6040516102fa9190614d76565b60405180910390f35b34801561030f57600080fd5b5061032a60048036038101906103259190614cfa565b613b1a565b6040516103379190614e4f565b60405180910390f35b34801561034c57600080fd5b50610355613be7565b6040516103629190614e8a565b60405180910390f35b34801561037757600080fd5b50610392600480360381019061038d9190614ea5565b613bed565b60405161039f9190614e8a565b60405180910390f35b3480156103b457600080fd5b506103cf60048036038101906103ca9190614ea5565b6143f9565b6040516103dc9190614c9f565b60405180910390f35b3480156103f157600080fd5b5061040c60048036038101906104079190614cfa565b614437565b6040516104199190614c9f565b60405180910390f35b34801561042e57600080fd5b5061044960048036038101906104449190614cfa565b61444f565b6040516104569190614fb6565b60405180910390f35b34801561046b57600080fd5b506104746148cf565b6040516104819190615037565b60405180910390f35b34801561049657600080fd5b506104b160048036038101906104ac9190615052565b6148f5565b6040516104be9190614c9f565b60405180910390f35b3480156104d357600080fd5b506104dc61491a565b6040516104e991906150c5565b60405180910390f35b3480156104fe57600080fd5b50610507614940565b6040516105149190614d76565b60405180910390f35b34801561052957600080fd5b50610544600480360381019061053f9190614d27565b614966565b60405161055494939291906150e0565b60405180910390f35b34801561056957600080fd5b50610584600480360381019061057f9190614cfa565b6149c3565b6040516105919190614e4f565b60405180910390f35b600080600a60008573ffffffffffffffffffffffffffffffffffffffff1673ffffffffffffffffffffffffffffffffffffffff16815260200190815260200160002060008681526020019081526020016000206003015490506000600a60008673ffffffffffffffffffffffffffffffffffffffff1673ffffffffffffffffffffffffffffffffffffffff16815260200190815260200160002060008781526020019081526020016000206002015490506000600a60008773ffffffffffffffffffffffffffffffffffffffff1673ffffffffffffffffffffffffffffffffffffffff168152602001908152602001600020600088815260200190815260200160002060010154905060008314156106b85760009350505050610747565b808511156106f2576040517f6aff58d500000000000000000000000000000000000000000000000000000000815260040160405180910390fd5b6000606463bbf81e0085858560648b61070b9190615154565b61071591906151dd565b61071f9190615154565b6107299190615154565b61073391906151dd565b61073d9190615154565b9050809450505050505b9392505050565b6000600a60003373ffffffffffffffffffffffffffffffffffffffff1673ffffffffffffffffffffffffffffffffffffffff16815260200190815260200160002060008481526020019081526020016000206001015414156107dc576040517fd4ca1fe200000000000000000000000000000000000000000000000000000000815260040160405180910390fd5b600081600a60003373ffffffffffffffffffffffffffffffffffffffff1673ffffffffffffffffffffffffffffffffffffffff16815260200190815260200160002060008581526020019081526020016000206001015461083d919061520e565b1015610875576040517f6fc3494000000000000000000000000000000000000000000000000000000000815260040160405180910390fd5b6000600a60003373ffffffffffffffffffffffffffffffffffffffff1673ffffffffffffffffffffffffffffffffffffffff168152602001908152602001600020600084815260200190815260200160002060000160009054906101000a900473ffffffffffffffffffffffffffffffffffffffff16905081600a60003373ffffffffffffffffffffffffffffffffffffffff1673ffffffffffffffffffffffffffffffffffffffff16815260200190815260200160002060008581526020019081526020016000206001016000828254610950919061520e565b92505081905550600061096484338561059a565b90506000600460009054906101000a900473ffffffffffffffffffffffffffffffffffffffff1673ffffffffffffffffffffffffffffffffffffffff1663989796b5846040518263ffffffff1660e01b81526004016109c39190614d76565b604080518083038186803b1580156109da57600080fd5b505afa1580156109ee573d6000803e3d6000fd5b505050506040513d601f19601f82011682018060405250810190610a129190615295565b5090508273ffffffffffffffffffffffffffffffffffffffff166323b872dd33838588610a3f91906152d5565b6040518463ffffffff1660e01b8152600401610a5d9392919061532b565b602060405180830381600087803b158015610a7757600080fd5b505af1158015610a8b573d6000803e3d6000fd5b505050506040513d601f19601f82011682018060405250810190610aaf919061539a565b508073ffffffffffffffffffffffffffffffffffffffff1663cd682060836040518263ffffffff1660e01b8152600401610ae99190614c9f565b600060405180830381600087803b158015610b0357600080fd5b505af1158015610b17573d6000803e3d6000fd5b505050506000600a60003373ffffffffffffffffffffffffffffffffffffffff1673ffffffffffffffffffffffffffffffffffffffff168152602001908152602001600020600087815260200190815260200160002060010154141561129a5760005b600960003373ffffffffffffffffffffffffffffffffffffffff1673ffffffffffffffffffffffffffffffffffffffff16815260200190815260200160002060008573ffffffffffffffffffffffffffffffffffffffff1673ffffffffffffffffffffffffffffffffffffffff16815260200190815260200160002080549050811015610f175785600960003373ffffffffffffffffffffffffffffffffffffffff1673ffffffffffffffffffffffffffffffffffffffff16815260200190815260200160002060008673ffffffffffffffffffffffffffffffffffffffff1673ffffffffffffffffffffffffffffffffffffffff1681526020019081526020016000208281548110610c9057610c8f6153c7565b5b90600052602060002001541415610f0457600960003373ffffffffffffffffffffffffffffffffffffffff1673ffffffffffffffffffffffffffffffffffffffff16815260200190815260200160002060008573ffffffffffffffffffffffffffffffffffffffff1673ffffffffffffffffffffffffffffffffffffffff1681526020019081526020016000206001600960003373ffffffffffffffffffffffffffffffffffffffff1673ffffffffffffffffffffffffffffffffffffffff16815260200190815260200160002060008773ffffffffffffffffffffffffffffffffffffffff1673ffffffffffffffffffffffffffffffffffffffff16815260200190815260200160002080549050610da9919061520e565b81548110610dba57610db96153c7565b5b9060005260206000200154600960003373ffffffffffffffffffffffffffffffffffffffff1673ffffffffffffffffffffffffffffffffffffffff16815260200190815260200160002060008673ffffffffffffffffffffffffffffffffffffffff1673ffffffffffffffffffffffffffffffffffffffff1681526020019081526020016000208281548110610e5357610e526153c7565b5b9060005260206000200181905550600960003373ffffffffffffffffffffffffffffffffffffffff1673ffffffffffffffffffffffffffffffffffffffff16815260200190815260200160002060008573ffffffffffffffffffffffffffffffffffffffff1673ffffffffffffffffffffffffffffffffffffffff168152602001908152602001600020805480610eed57610eec6153f6565b5b600190038181906000526020600020016000905590555b8080610f0f90615425565b915050610b7a565b506000600960003373ffffffffffffffffffffffffffffffffffffffff1673ffffffffffffffffffffffffffffffffffffffff16815260200190815260200160002060008573ffffffffffffffffffffffffffffffffffffffff1673ffffffffffffffffffffffffffffffffffffffff1681526020019081526020016000208054905014156112995760005b600760003373ffffffffffffffffffffffffffffffffffffffff1673ffffffffffffffffffffffffffffffffffffffff16815260200190815260200160002080549050811015611297578373ffffffffffffffffffffffffffffffffffffffff16600760003373ffffffffffffffffffffffffffffffffffffffff1673ffffffffffffffffffffffffffffffffffffffff1681526020019081526020016000208281548110611055576110546153c7565b5b9060005260206000200160009054906101000a900473ffffffffffffffffffffffffffffffffffffffff1673ffffffffffffffffffffffffffffffffffffffff16141561128457600760003373ffffffffffffffffffffffffffffffffffffffff1673ffffffffffffffffffffffffffffffffffffffff1681526020019081526020016000206001600760003373ffffffffffffffffffffffffffffffffffffffff1673ffffffffffffffffffffffffffffffffffffffff1681526020019081526020016000208054905061112a919061520e565b8154811061113b5761113a6153c7565b5b9060005260206000200160009054906101000a900473ffffffffffffffffffffffffffffffffffffffff16600760003373ffffffffffffffffffffffffffffffffffffffff1673ffffffffffffffffffffffffffffffffffffffff16815260200190815260200160002082815481106111b7576111b66153c7565b5b9060005260206000200160006101000a81548173ffffffffffffffffffffffffffffffffffffffff021916908373ffffffffffffffffffffffffffffffffffffffff160217905550600760003373ffffffffffffffffffffffffffffffffffffffff1673ffffffffffffffffffffffffffffffffffffffff16815260200190815260200160002080548061124e5761124d6153f6565b5b6001900381819060005260206000200160006101000a81549073ffffffffffffffffffffffffffffffffffffffff021916905590555b808061128f90615425565b915050610fa3565b505b5b3373ffffffffffffffffffffffffffffffffffffffff167f3d3dc018f55160b3fa5bcc9f5f8f595211524dd7cc1320607df0a09c236dd50e848787866040516112e694939291906150e0565b60405180910390a25050505050565b600160009054906101000a900473ffffffffffffffffffffffffffffffffffffffff1673ffffffffffffffffffffffffffffffffffffffff163373ffffffffffffffffffffffffffffffffffffffff161461137c576040517feed3ab2300000000000000000000000000000000000000000000000000000000815260040160405180910390fd5b80600260006101000a81548173ffffffffffffffffffffffffffffffffffffffff021916908373ffffffffffffffffffffffffffffffffffffffff16021790555050565b600660205281600052604060002081815481106113dc57600080fd5b906000526020600020016000915091509054906101000a900473ffffffffffffffffffffffffffffffffffffffff1681565b60005461141d82600080613bed565b13611454576040517f56f37e7800000000000000000000000000000000000000000000000000000000815260040160405180910390fd5b60004790506000805b600660008573ffffffffffffffffffffffffffffffffffffffff1673ffffffffffffffffffffffffffffffffffffffff16815260200190815260200160002080549050811015611aa2576000600660008673ffffffffffffffffffffffffffffffffffffffff1673ffffffffffffffffffffffffffffffffffffffff16815260200190815260200160002082815481106114fa576114f96153c7565b5b9060005260206000200160009054906101000a900473ffffffffffffffffffffffffffffffffffffffff1690506000600560008773ffffffffffffffffffffffffffffffffffffffff1673ffffffffffffffffffffffffffffffffffffffff16815260200190815260200160002060008373ffffffffffffffffffffffffffffffffffffffff1673ffffffffffffffffffffffffffffffffffffffff168152602001908152602001600020549050600360009054906101000a900473ffffffffffffffffffffffffffffffffffffffff1673ffffffffffffffffffffffffffffffffffffffff168273ffffffffffffffffffffffffffffffffffffffff16141561161157808461160a91906152d5565b93506117a9565b6000600260009054906101000a900473ffffffffffffffffffffffffffffffffffffffff1673ffffffffffffffffffffffffffffffffffffffff1663635bc0c284600360009054906101000a900473ffffffffffffffffffffffffffffffffffffffff16856040518463ffffffff1660e01b81526004016116949392919061532b565b60206040518083038186803b1580156116ac57600080fd5b505afa1580156116c0573d6000803e3d6000fd5b505050506040513d601f19601f820116820180604052508101906116e49190615483565b9050600260009054906101000a900473ffffffffffffffffffffffffffffffffffffffff1673ffffffffffffffffffffffffffffffffffffffff1663fe9f5c0584600360009054906101000a900473ffffffffffffffffffffffffffffffffffffffff16856040518463ffffffff1660e01b81526004016117679392919061532b565b600060405180830381600087803b15801561178157600080fd5b505af1158015611795573d6000803e3d6000fd5b5050505080856117a591906152d5565b9450505b6000600560008873ffffffffffffffffffffffffffffffffffffffff1673ffffffffffffffffffffffffffffffffffffffff1681526020019081526020016000206000600660008a73ffffffffffffffffffffffffffffffffffffffff1673ffffffffffffffffffffffffffffffffffffffff168152602001908152602001600020868154811061183d5761183c6153c7565b5b9060005260206000200160009054906101000a900473ffffffffffffffffffffffffffffffffffffffff1673ffffffffffffffffffffffffffffffffffffffff1673ffffffffffffffffffffffffffffffffffffffff16815260200190815260200160002081905550600660008773ffffffffffffffffffffffffffffffffffffffff1673ffffffffffffffffffffffffffffffffffffffff1681526020019081526020016000206001600660008973ffffffffffffffffffffffffffffffffffffffff1673ffffffffffffffffffffffffffffffffffffffff16815260200190815260200160002080549050611934919061520e565b81548110611945576119446153c7565b5b9060005260206000200160009054906101000a900473ffffffffffffffffffffffffffffffffffffffff16600660008873ffffffffffffffffffffffffffffffffffffffff1673ffffffffffffffffffffffffffffffffffffffff16815260200190815260200160002084815481106119c1576119c06153c7565b5b9060005260206000200160006101000a81548173ffffffffffffffffffffffffffffffffffffffff021916908373ffffffffffffffffffffffffffffffffffffffff160217905550600660008773ffffffffffffffffffffffffffffffffffffffff1673ffffffffffffffffffffffffffffffffffffffff168152602001908152602001600020805480611a5857611a576153f6565b5b6001900381819060005260206000200160006101000a81549073ffffffffffffffffffffffffffffffffffffffff0219169055905550508080611a9a90615425565b91505061145d565b5060005b600760008573ffffffffffffffffffffffffffffffffffffffff1673ffffffffffffffffffffffffffffffffffffffff168152602001908152602001600020805490508110156125a1576000806000600760008873ffffffffffffffffffffffffffffffffffffffff1673ffffffffffffffffffffffffffffffffffffffff1681526020019081526020016000208481548110611b4657611b456153c7565b5b9060005260206000200160009054906101000a900473ffffffffffffffffffffffffffffffffffffffff16905060005b600960008973ffffffffffffffffffffffffffffffffffffffff1673ffffffffffffffffffffffffffffffffffffffff16815260200190815260200160002060008373ffffffffffffffffffffffffffffffffffffffff1673ffffffffffffffffffffffffffffffffffffffff16815260200190815260200160002080549050811015611ff9576000600960008a73ffffffffffffffffffffffffffffffffffffffff1673ffffffffffffffffffffffffffffffffffffffff16815260200190815260200160002060008473ffffffffffffffffffffffffffffffffffffffff1673ffffffffffffffffffffffffffffffffffffffff1681526020019081526020016000208681548110611c8d57611c8c6153c7565b5b906000526020600020015490506000600a60008b73ffffffffffffffffffffffffffffffffffffffff1673ffffffffffffffffffffffffffffffffffffffff16815260200190815260200160002060008381526020019081526020016000206001015490506000611cff838c8461059a565b90508082611d0d91906152d5565b87611d1891906152d5565b96508086611d2691906152d5565b95506000600a60008d73ffffffffffffffffffffffffffffffffffffffff1673ffffffffffffffffffffffffffffffffffffffff168152602001908152602001600020600085815260200190815260200160002060010181905550600960008c73ffffffffffffffffffffffffffffffffffffffff1673ffffffffffffffffffffffffffffffffffffffff16815260200190815260200160002060008673ffffffffffffffffffffffffffffffffffffffff1673ffffffffffffffffffffffffffffffffffffffff1681526020019081526020016000206001600960008e73ffffffffffffffffffffffffffffffffffffffff1673ffffffffffffffffffffffffffffffffffffffff16815260200190815260200160002060008873ffffffffffffffffffffffffffffffffffffffff1673ffffffffffffffffffffffffffffffffffffffff16815260200190815260200160002080549050611e89919061520e565b81548110611e9a57611e996153c7565b5b9060005260206000200154600960008d73ffffffffffffffffffffffffffffffffffffffff1673ffffffffffffffffffffffffffffffffffffffff16815260200190815260200160002060008773ffffffffffffffffffffffffffffffffffffffff1673ffffffffffffffffffffffffffffffffffffffff1681526020019081526020016000208581548110611f3357611f326153c7565b5b9060005260206000200181905550600960008c73ffffffffffffffffffffffffffffffffffffffff1673ffffffffffffffffffffffffffffffffffffffff16815260200190815260200160002060008673ffffffffffffffffffffffffffffffffffffffff1673ffffffffffffffffffffffffffffffffffffffff168152602001908152602001600020805480611fcd57611fcc6153f6565b5b600190038181906000526020600020016000905590555050508480611ff190615425565b955050611b76565b50600360009054906101000a900473ffffffffffffffffffffffffffffffffffffffff1673ffffffffffffffffffffffffffffffffffffffff168173ffffffffffffffffffffffffffffffffffffffff16141561206357828561205c919061520e565b94506121fb565b6000600260009054906101000a900473ffffffffffffffffffffffffffffffffffffffff1673ffffffffffffffffffffffffffffffffffffffff1663635bc0c283600360009054906101000a900473ffffffffffffffffffffffffffffffffffffffff16876040518463ffffffff1660e01b81526004016120e69392919061532b565b60206040518083038186803b1580156120fe57600080fd5b505afa158015612112573d6000803e3d6000fd5b505050506040513d601f19601f820116820180604052508101906121369190615483565b9050600260009054906101000a900473ffffffffffffffffffffffffffffffffffffffff1673ffffffffffffffffffffffffffffffffffffffff1663fe9f5c05600360009054906101000a900473ffffffffffffffffffffffffffffffffffffffff1684846040518463ffffffff1660e01b81526004016121b99392919061532b565b600060405180830381600087803b1580156121d357600080fd5b505af11580156121e7573d6000803e3d6000fd5b5050505080866121f7919061520e565b9550505b6000600460009054906101000a900473ffffffffffffffffffffffffffffffffffffffff1673ffffffffffffffffffffffffffffffffffffffff1663989796b5836040518263ffffffff1660e01b81526004016122589190614d76565b604080518083038186803b15801561226f57600080fd5b505afa158015612283573d6000803e3d6000fd5b505050506040513d601f19601f820116820180604052508101906122a79190615295565b5090508173ffffffffffffffffffffffffffffffffffffffff1663a9059cbb82866040518363ffffffff1660e01b81526004016122e59291906154b0565b602060405180830381600087803b1580156122ff57600080fd5b505af1158015612313573d6000803e3d6000fd5b505050506040513d601f19601f82011682018060405250810190612337919061539a565b508073ffffffffffffffffffffffffffffffffffffffff1663cd682060846040518263ffffffff1660e01b81526004016123719190614c9f565b600060405180830381600087803b15801561238b57600080fd5b505af115801561239f573d6000803e3d6000fd5b50505050600760008973ffffffffffffffffffffffffffffffffffffffff1673ffffffffffffffffffffffffffffffffffffffff1681526020019081526020016000206001600760008b73ffffffffffffffffffffffffffffffffffffffff1673ffffffffffffffffffffffffffffffffffffffff16815260200190815260200160002080549050612431919061520e565b81548110612442576124416153c7565b5b9060005260206000200160009054906101000a900473ffffffffffffffffffffffffffffffffffffffff16600760008a73ffffffffffffffffffffffffffffffffffffffff1673ffffffffffffffffffffffffffffffffffffffff16815260200190815260200160002086815481106124be576124bd6153c7565b5b9060005260206000200160006101000a81548173ffffffffffffffffffffffffffffffffffffffff021916908373ffffffffffffffffffffffffffffffffffffffff160217905550600760008973ffffffffffffffffffffffffffffffffffffffff1673ffffffffffffffffffffffffffffffffffffffff168152602001908152602001600020805480612555576125546153f6565b5b6001900381819060005260206000200160006101000a81549073ffffffffffffffffffffffffffffffffffffffff0219169055905550505050808061259990615425565b915050611aa6565b50600360009054906101000a900473ffffffffffffffffffffffffffffffffffffffff1673ffffffffffffffffffffffffffffffffffffffff1663a9059cbb33836040518363ffffffff1660e01b81526004016125ff9291906154b0565b602060405180830381600087803b15801561261957600080fd5b505af115801561262d573d6000803e3d6000fd5b505050506040513d601f19601f82011682018060405250810190612651919061539a565b50600047905060003373ffffffffffffffffffffffffffffffffffffffff16848361267c919061520e565b6040516126889061550a565b60006040518083038185875af1925050503d80600081146126c5576040519150601f19603f3d011682016040523d82523d6000602084013e6126ca565b606091505b505090508061270e576040517f08c379a00000000000000000000000000000000000000000000000000000000081526004016127059061557c565b60405180910390fd5b7f2c84ea15e82e281260950b7aac966ce1bffefd1627caf5e54ad38c2bbc5b1324853360405161273f92919061559c565b60405180910390a15050505050565b600080600460009054906101000a900473ffffffffffffffffffffffffffffffffffffffff1673ffffffffffffffffffffffffffffffffffffffff1663989796b5856040518263ffffffff1660e01b81526004016127ac9190614d76565b604080518083038186803b1580156127c357600080fd5b505afa1580156127d7573d6000803e3d6000fd5b505050506040513d601f19601f820116820180604052508101906127fb9190615295565b91509150600073ffffffffffffffffffffffffffffffffffffffff168273ffffffffffffffffffffffffffffffffffffffff161415612866576040517f4ba53a4500000000000000000000000000000000000000000000000000000000815260040160405180910390fd5b6b204fce5e3e250261100000008361287d83614a90565b6128879190615154565b10156128bf576040517f779423de00000000000000000000000000000000000000000000000000000000815260040160405180910390fd5b8373ffffffffffffffffffffffffffffffffffffffff166323b872dd3330866040518463ffffffff1660e01b81526004016128fc9392919061532b565b602060405180830381600087803b15801561291657600080fd5b505af115801561292a573d6000803e3d6000fd5b505050506040513d601f19601f8201168201806040525081019061294e919061539a565b5060011515612a20600660003373ffffffffffffffffffffffffffffffffffffffff1673ffffffffffffffffffffffffffffffffffffffff168152602001908152602001600020805480602002602001604051908101604052809291908181526020018280548015612a1557602002820191906000526020600020905b8160009054906101000a900473ffffffffffffffffffffffffffffffffffffffff1673ffffffffffffffffffffffffffffffffffffffff16815260200190600101908083116129cb575b505050505086614b20565b15151415612ac957600660003373ffffffffffffffffffffffffffffffffffffffff1673ffffffffffffffffffffffffffffffffffffffff168152602001908152602001600020849080600181540180825580915050600190039060005260206000200160009091909190916101000a81548173ffffffffffffffffffffffffffffffffffffffff021916908373ffffffffffffffffffffffffffffffffffffffff1602179055505b82600560003373ffffffffffffffffffffffffffffffffffffffff1673ffffffffffffffffffffffffffffffffffffffff16815260200190815260200160002060008673ffffffffffffffffffffffffffffffffffffffff1673ffffffffffffffffffffffffffffffffffffffff1681526020019081526020016000206000828254612b5591906152d5565b925050819055503373ffffffffffffffffffffffffffffffffffffffff167fb759534d8717c1bc7cde21fa6affd5a9d205d5ab4c3bce20bd815a13976029228585604051612ba49291906154b0565b60405180910390a250505050565b80600360006101000a81548173ffffffffffffffffffffffffffffffffffffffff021916908373ffffffffffffffffffffffffffffffffffffffff16021790555050565b600081600560003373ffffffffffffffffffffffffffffffffffffffff1673ffffffffffffffffffffffffffffffffffffffff16815260200190815260200160002060008573ffffffffffffffffffffffffffffffffffffffff1673ffffffffffffffffffffffffffffffffffffffff16815260200190815260200160002054612c80919061520e565b108015612ccf57506000600760003373ffffffffffffffffffffffffffffffffffffffff1673ffffffffffffffffffffffffffffffffffffffff16815260200190815260200160002080549050115b15612d06576040517f56f37e7800000000000000000000000000000000000000000000000000000000815260040160405180910390fd5b6000600460009054906101000a900473ffffffffffffffffffffffffffffffffffffffff1673ffffffffffffffffffffffffffffffffffffffff1663989796b5846040518263ffffffff1660e01b8152600401612d639190614d76565b604080518083038186803b158015612d7a57600080fd5b505afa158015612d8e573d6000803e3d6000fd5b505050506040513d601f19601f82011682018060405250810190612db29190615295565b9150506402540be400600560003373ffffffffffffffffffffffffffffffffffffffff1673ffffffffffffffffffffffffffffffffffffffff16815260200190815260200160002060008573ffffffffffffffffffffffffffffffffffffffff1673ffffffffffffffffffffffffffffffffffffffff16815260200190815260200160002054612e4183614a90565b612e4b9190615154565b1015612ed157600560003373ffffffffffffffffffffffffffffffffffffffff1673ffffffffffffffffffffffffffffffffffffffff16815260200190815260200160002060008473ffffffffffffffffffffffffffffffffffffffff1673ffffffffffffffffffffffffffffffffffffffff1681526020019081526020016000205491505b81600560003373ffffffffffffffffffffffffffffffffffffffff1673ffffffffffffffffffffffffffffffffffffffff16815260200190815260200160002060008573ffffffffffffffffffffffffffffffffffffffff1673ffffffffffffffffffffffffffffffffffffffff1681526020019081526020016000206000828254612f5d919061520e565b925050819055508273ffffffffffffffffffffffffffffffffffffffff1663a9059cbb33846040518363ffffffff1660e01b8152600401612f9f9291906154b0565b602060405180830381600087803b158015612fb957600080fd5b505af1158015612fcd573d6000803e3d6000fd5b505050506040513d601f19601f82011682018060405250810190612ff1919061539a565b506000600560003373ffffffffffffffffffffffffffffffffffffffff1673ffffffffffffffffffffffffffffffffffffffff16815260200190815260200160002060008573ffffffffffffffffffffffffffffffffffffffff1673ffffffffffffffffffffffffffffffffffffffff1681526020019081526020016000205414156133705760005b600660003373ffffffffffffffffffffffffffffffffffffffff1673ffffffffffffffffffffffffffffffffffffffff1681526020019081526020016000208054905081101561336e578373ffffffffffffffffffffffffffffffffffffffff16600660003373ffffffffffffffffffffffffffffffffffffffff1673ffffffffffffffffffffffffffffffffffffffff168152602001908152602001600020828154811061312c5761312b6153c7565b5b9060005260206000200160009054906101000a900473ffffffffffffffffffffffffffffffffffffffff1673ffffffffffffffffffffffffffffffffffffffff16141561335b57600660003373ffffffffffffffffffffffffffffffffffffffff1673ffffffffffffffffffffffffffffffffffffffff1681526020019081526020016000206001600660003373ffffffffffffffffffffffffffffffffffffffff1673ffffffffffffffffffffffffffffffffffffffff16815260200190815260200160002080549050613201919061520e565b81548110613212576132116153c7565b5b9060005260206000200160009054906101000a900473ffffffffffffffffffffffffffffffffffffffff16600660003373ffffffffffffffffffffffffffffffffffffffff1673ffffffffffffffffffffffffffffffffffffffff168152602001908152602001600020828154811061328e5761328d6153c7565b5b9060005260206000200160006101000a81548173ffffffffffffffffffffffffffffffffffffffff021916908373ffffffffffffffffffffffffffffffffffffffff160217905550600660003373ffffffffffffffffffffffffffffffffffffffff1673ffffffffffffffffffffffffffffffffffffffff168152602001908152602001600020805480613325576133246153f6565b5b6001900381819060005260206000200160006101000a81549073ffffffffffffffffffffffffffffffffffffffff021916905590555b808061336690615425565b91505061307a565b505b3373ffffffffffffffffffffffffffffffffffffffff167fcfe1e6d30a42cc481f02ea9cce49c86f8ae93242f28b0622f864b30a35bbb2d284846040516133b89291906154b0565b60405180910390a2505050565b6000600460009054906101000a900473ffffffffffffffffffffffffffffffffffffffff1673ffffffffffffffffffffffffffffffffffffffff1663989796b5846040518263ffffffff1660e01b81526004016134229190614d76565b604080518083038186803b15801561343957600080fd5b505afa15801561344d573d6000803e3d6000fd5b505050506040513d601f19601f820116820180604052508101906134719190615295565b509050600073ffffffffffffffffffffffffffffffffffffffff168173ffffffffffffffffffffffffffffffffffffffff1614156134db576040517f4ba53a4500000000000000000000000000000000000000000000000000000000815260040160405180910390fd5b6000546134e9338585613bed565b12613520576040517f6fc3494000000000000000000000000000000000000000000000000000000000815260040160405180910390fd5b8073ffffffffffffffffffffffffffffffffffffffff1663c5ebeaec836040518263ffffffff1660e01b81526004016135599190614c9f565b600060405180830381600087803b15801561357357600080fd5b505af1158015613587573d6000803e3d6000fd5b505050506001151561365c600760003373ffffffffffffffffffffffffffffffffffffffff1673ffffffffffffffffffffffffffffffffffffffff16815260200190815260200160002080548060200260200160405190810160405280929190818152602001828054801561365157602002820191906000526020600020905b8160009054906101000a900473ffffffffffffffffffffffffffffffffffffffff1673ffffffffffffffffffffffffffffffffffffffff1681526020019060010190808311613607575b505050505085614b20565b1515141561370557600760003373ffffffffffffffffffffffffffffffffffffffff1673ffffffffffffffffffffffffffffffffffffffff168152602001908152602001600020839080600181540180825580915050600190039060005260206000200160009091909190916101000a81548173ffffffffffffffffffffffffffffffffffffffff021916908373ffffffffffffffffffffffffffffffffffffffff1602179055505b600960003373ffffffffffffffffffffffffffffffffffffffff1673ffffffffffffffffffffffffffffffffffffffff16815260200190815260200160002060008473ffffffffffffffffffffffffffffffffffffffff1673ffffffffffffffffffffffffffffffffffffffff168152602001908152602001600020600860003373ffffffffffffffffffffffffffffffffffffffff1673ffffffffffffffffffffffffffffffffffffffff16815260200190815260200160002054908060018154018082558091505060019003906000526020600020016000909190919091505560405180608001604052808473ffffffffffffffffffffffffffffffffffffffff1681526020018381526020014281526020018273ffffffffffffffffffffffffffffffffffffffff16636140dfd06040518163ffffffff1660e01b815260040160206040518083038186803b15801561386057600080fd5b505afa158015613874573d6000803e3d6000fd5b505050506040513d601f19601f820116820180604052508101906138989190615483565b815250600a60003373ffffffffffffffffffffffffffffffffffffffff1673ffffffffffffffffffffffffffffffffffffffff1681526020019081526020016000206000600860003373ffffffffffffffffffffffffffffffffffffffff1673ffffffffffffffffffffffffffffffffffffffff16815260200190815260200160002054815260200190815260200160002060008201518160000160006101000a81548173ffffffffffffffffffffffffffffffffffffffff021916908373ffffffffffffffffffffffffffffffffffffffff1602179055506020820151816001015560408201518160020155606082015181600301559050508273ffffffffffffffffffffffffffffffffffffffff1663a9059cbb33846040518363ffffffff1660e01b81526004016139cd9291906154b0565b602060405180830381600087803b1580156139e757600080fd5b505af11580156139fb573d6000803e3d6000fd5b505050506040513d601f19601f82011682018060405250810190613a1f919061539a565b506001600860003373ffffffffffffffffffffffffffffffffffffffff1673ffffffffffffffffffffffffffffffffffffffff1681526020019081526020016000206000828254613a7091906152d5565b925050819055503373ffffffffffffffffffffffffffffffffffffffff167fde1ec58d6821a902fd200541e0254901c79b0c05f4a9d50d6dad669c8645805f8484604051613abf9291906154b0565b60405180910390a2505050565b60076020528160005260406000208181548110613ae857600080fd5b906000526020600020016000915091509054906101000a900473ffffffffffffffffffffffffffffffffffffffff1681565b6060600760008373ffffffffffffffffffffffffffffffffffffffff1673ffffffffffffffffffffffffffffffffffffffff168152602001908152602001600020805480602002602001604051908101604052809291908181526020018280548015613bdb57602002820191906000526020600020905b8160009054906101000a900473ffffffffffffffffffffffffffffffffffffffff1673ffffffffffffffffffffffffffffffffffffffff1681526020019060010190808311613b91575b50505050509050919050565b60005481565b6000806000806000600460009054906101000a900473ffffffffffffffffffffffffffffffffffffffff1673ffffffffffffffffffffffffffffffffffffffff1663989796b5886040518263ffffffff1660e01b8152600401613c509190614d76565b604080518083038186803b158015613c6757600080fd5b505afa158015613c7b573d6000803e3d6000fd5b505050506040513d601f19601f82011682018060405250810190613c9f9190615295565b9150915060008614158015613ce15750600073ffffffffffffffffffffffffffffffffffffffff168273ffffffffffffffffffffffffffffffffffffffff1614155b15613d0e576000613cf182614a90565b90508681613cff91906155c5565b84613d0a91906156dc565b9350505b60005b600660008a73ffffffffffffffffffffffffffffffffffffffff1673ffffffffffffffffffffffffffffffffffffffff16815260200190815260200160002080549050811015613f48576000600660008b73ffffffffffffffffffffffffffffffffffffffff1673ffffffffffffffffffffffffffffffffffffffff1681526020019081526020016000208281548110613dae57613dad6153c7565b5b9060005260206000200160009054906101000a900473ffffffffffffffffffffffffffffffffffffffff1690506000600560008c73ffffffffffffffffffffffffffffffffffffffff1673ffffffffffffffffffffffffffffffffffffffff16815260200190815260200160002060008373ffffffffffffffffffffffffffffffffffffffff1673ffffffffffffffffffffffffffffffffffffffff1681526020019081526020016000205490506000600460009054906101000a900473ffffffffffffffffffffffffffffffffffffffff1673ffffffffffffffffffffffffffffffffffffffff1663989796b5846040518263ffffffff1660e01b8152600401613eb99190614d76565b604080518083038186803b158015613ed057600080fd5b505afa158015613ee4573d6000803e3d6000fd5b505050506040513d601f19601f82011682018060405250810190613f089190615295565b9150506000613f1682614a90565b90508281613f2491906155c5565b89613f2f91906156dc565b9850505050508080613f4090615425565b915050613d11565b5060005b600760008a73ffffffffffffffffffffffffffffffffffffffff1673ffffffffffffffffffffffffffffffffffffffff168152602001908152602001600020805490508110156143d3576000600760008b73ffffffffffffffffffffffffffffffffffffffff1673ffffffffffffffffffffffffffffffffffffffff1681526020019081526020016000208281548110613fe957613fe86153c7565b5b9060005260206000200160009054906101000a900473ffffffffffffffffffffffffffffffffffffffff1690506000600960008c73ffffffffffffffffffffffffffffffffffffffff1673ffffffffffffffffffffffffffffffffffffffff16815260200190815260200160002060008373ffffffffffffffffffffffffffffffffffffffff1673ffffffffffffffffffffffffffffffffffffffff168152602001908152602001600020905060005b81805490508110156143bd576000600a60003373ffffffffffffffffffffffffffffffffffffffff1673ffffffffffffffffffffffffffffffffffffffff16815260200190815260200160002060008484815481106140fb576140fa6153c7565b5b906000526020600020015481526020019081526020016000206002015490506000600a60003373ffffffffffffffffffffffffffffffffffffffff1673ffffffffffffffffffffffffffffffffffffffff16815260200190815260200160002060008585815481106141705761416f6153c7565b5b906000526020600020015481526020019081526020016000206001015490506000600a60003373ffffffffffffffffffffffffffffffffffffffff1673ffffffffffffffffffffffffffffffffffffffff16815260200190815260200160002060008686815481106141e5576141e46153c7565b5b9060005260206000200154815260200190815260200160002060000160009054906101000a900473ffffffffffffffffffffffffffffffffffffffff1690506000600a60003373ffffffffffffffffffffffffffffffffffffffff1673ffffffffffffffffffffffffffffffffffffffff168152602001908152602001600020600087878154811061427a576142796153c7565b5b90600052602060002001548152602001908152602001600020600301549050600063bbf81e008286866142ad9190615154565b6142b79190615154565b6142c191906151dd565b90506000600460009054906101000a900473ffffffffffffffffffffffffffffffffffffffff1673ffffffffffffffffffffffffffffffffffffffff1663989796b5856040518263ffffffff1660e01b81526004016143209190614d76565b604080518083038186803b15801561433757600080fd5b505afa15801561434b573d6000803e3d6000fd5b505050506040513d601f19601f8201168201806040525081019061436f9190615295565b915050600061437d82614a90565b9050858361438b91906152d5565b8161439691906155c5565b8e6143a191906156dc565b9d505050505050505080806143b590615425565b915050614099565b50505080806143cb90615425565b915050613f4c565b50836064846143e291906155c5565b6143ec9190615770565b9450505050509392505050565b6009602052826000526040600020602052816000526040600020818154811061442157600080fd5b9060005260206000200160009250925050505481565b60086020528060005260406000206000915090505481565b60606000805b600760008573ffffffffffffffffffffffffffffffffffffffff1673ffffffffffffffffffffffffffffffffffffffff168152602001908152602001600020805490508110156145ba57600960008573ffffffffffffffffffffffffffffffffffffffff1673ffffffffffffffffffffffffffffffffffffffff1681526020019081526020016000206000600760008773ffffffffffffffffffffffffffffffffffffffff1673ffffffffffffffffffffffffffffffffffffffff1681526020019081526020016000208381548110614531576145306153c7565b5b9060005260206000200160009054906101000a900473ffffffffffffffffffffffffffffffffffffffff1673ffffffffffffffffffffffffffffffffffffffff1673ffffffffffffffffffffffffffffffffffffffff16815260200190815260200160002080549050826145a591906152d5565b915080806145b290615425565b915050614455565b5060008167ffffffffffffffff8111156145d7576145d66157da565b5b6040519080825280602002602001820160405280156146055781602001602082028036833780820191505090505b5090506000805b600760008773ffffffffffffffffffffffffffffffffffffffff1673ffffffffffffffffffffffffffffffffffffffff168152602001908152602001600020805490508110156148c35760005b600960008873ffffffffffffffffffffffffffffffffffffffff1673ffffffffffffffffffffffffffffffffffffffff1681526020019081526020016000206000600760008a73ffffffffffffffffffffffffffffffffffffffff1673ffffffffffffffffffffffffffffffffffffffff16815260200190815260200160002084815481106146eb576146ea6153c7565b5b9060005260206000200160009054906101000a900473ffffffffffffffffffffffffffffffffffffffff1673ffffffffffffffffffffffffffffffffffffffff1673ffffffffffffffffffffffffffffffffffffffff168152602001908152602001600020805490508110156148af57600960008873ffffffffffffffffffffffffffffffffffffffff1673ffffffffffffffffffffffffffffffffffffffff1681526020019081526020016000206000600760008a73ffffffffffffffffffffffffffffffffffffffff1673ffffffffffffffffffffffffffffffffffffffff16815260200190815260200160002084815481106147ed576147ec6153c7565b5b9060005260206000200160009054906101000a900473ffffffffffffffffffffffffffffffffffffffff1673ffffffffffffffffffffffffffffffffffffffff1673ffffffffffffffffffffffffffffffffffffffff1681526020019081526020016000208181548110614864576148636153c7565b5b9060005260206000200154848481518110614882576148816153c7565b5b602002602001018181525050828061489990615425565b93505080806148a790615425565b915050614659565b5080806148bb90615425565b91505061460c565b50819350505050919050565b600260009054906101000a900473ffffffffffffffffffffffffffffffffffffffff1681565b6005602052816000526040600020602052806000526040600020600091509150505481565b600460009054906101000a900473ffffffffffffffffffffffffffffffffffffffff1681565b600360009054906101000a900473ffffffffffffffffffffffffffffffffffffffff1681565b600a602052816000526040600020602052806000526040600020600091509150508060000160009054906101000a900473ffffffffffffffffffffffffffffffffffffffff16908060010154908060020154908060030154905084565b6060600660008373ffffffffffffffffffffffffffffffffffffffff1673ffffffffffffffffffffffffffffffffffffffff168152602001908152602001600020805480602002602001604051908101604052809291908181526020018280548015614a8457602002820191906000526020600020905b8160009054906101000a900473ffffffffffffffffffffffffffffffffffffffff1673ffffffffffffffffffffffffffffffffffffffff1681526020019060010190808311614a3a575b50505050509050919050565b6000808273ffffffffffffffffffffffffffffffffffffffff1663feaf968c6040518163ffffffff1660e01b815260040160a06040518083038186803b158015614ad957600080fd5b505afa158015614aed573d6000803e3d6000fd5b505050506040513d601f19601f82011682018060405250810190614b119190615877565b50505091505080915050919050565b6000806001905060005b8451811015614b9957848181518110614b4657614b456153c7565b5b602002602001015173ffffffffffffffffffffffffffffffffffffffff168473ffffffffffffffffffffffffffffffffffffffff161415614b8657600091505b8080614b9190615425565b915050614b2a565b508091505092915050565b600080fd5b6000819050919050565b614bbc81614ba9565b8114614bc757600080fd5b50565b600081359050614bd981614bb3565b92915050565b600073ffffffffffffffffffffffffffffffffffffffff82169050919050565b6000614c0a82614bdf565b9050919050565b614c1a81614bff565b8114614c2557600080fd5b50565b600081359050614c3781614c11565b92915050565b600080600060608486031215614c5657614c55614ba4565b5b6000614c6486828701614bca565b9350506020614c7586828701614c28565b9250506040614c8686828701614bca565b9150509250925092565b614c9981614ba9565b82525050565b6000602082019050614cb46000830184614c90565b92915050565b60008060408385031215614cd157614cd0614ba4565b5b6000614cdf85828601614bca565b9250506020614cf085828601614bca565b9150509250929050565b600060208284031215614d1057614d0f614ba4565b5b6000614d1e84828501614c28565b91505092915050565b60008060408385031215614d3e57614d3d614ba4565b5b6000614d4c85828601614c28565b9250506020614d5d85828601614bca565b9150509250929050565b614d7081614bff565b82525050565b6000602082019050614d8b6000830184614d67565b92915050565b600081519050919050565b600082825260208201905092915050565b6000819050602082019050919050565b614dc681614bff565b82525050565b6000614dd88383614dbd565b60208301905092915050565b6000602082019050919050565b6000614dfc82614d91565b614e068185614d9c565b9350614e1183614dad565b8060005b83811015614e42578151614e298882614dcc565b9750614e3483614de4565b925050600181019050614e15565b5085935050505092915050565b60006020820190508181036000830152614e698184614df1565b905092915050565b6000819050919050565b614e8481614e71565b82525050565b6000602082019050614e9f6000830184614e7b565b92915050565b600080600060608486031215614ebe57614ebd614ba4565b5b6000614ecc86828701614c28565b9350506020614edd86828701614c28565b9250506040614eee86828701614bca565b9150509250925092565b600081519050919050565b600082825260208201905092915050565b6000819050602082019050919050565b614f2d81614ba9565b82525050565b6000614f3f8383614f24565b60208301905092915050565b6000602082019050919050565b6000614f6382614ef8565b614f6d8185614f03565b9350614f7883614f14565b8060005b83811015614fa9578151614f908882614f33565b9750614f9b83614f4b565b925050600181019050614f7c565b5085935050505092915050565b60006020820190508181036000830152614fd08184614f58565b905092915050565b6000819050919050565b6000614ffd614ff8614ff384614bdf565b614fd8565b614bdf565b9050919050565b600061500f82614fe2565b9050919050565b600061502182615004565b9050919050565b61503181615016565b82525050565b600060208201905061504c6000830184615028565b92915050565b6000806040838503121561506957615068614ba4565b5b600061507785828601614c28565b925050602061508885828601614c28565b9150509250929050565b600061509d82614fe2565b9050919050565b60006150af82615092565b9050919050565b6150bf816150a4565b82525050565b60006020820190506150da60008301846150b6565b92915050565b60006080820190506150f56000830187614d67565b6151026020830186614c90565b61510f6040830185614c90565b61511c6060830184614c90565b95945050505050565b7f4e487b7100000000000000000000000000000000000000000000000000000000600052601160045260246000fd5b600061515f82614ba9565b915061516a83614ba9565b9250817fffffffffffffffffffffffffffffffffffffffffffffffffffffffffffffffff04831182151516156151a3576151a2615125565b5b828202905092915050565b7f4e487b7100000000000000000000000000000000000000000000000000000000600052601260045260246000fd5b60006151e882614ba9565b91506151f383614ba9565b925082615203576152026151ae565b5b828204905092915050565b600061521982614ba9565b915061522483614ba9565b92508282101561523757615236615125565b5b828203905092915050565b600061524d82614bff565b9050919050565b61525d81615242565b811461526857600080fd5b50565b60008151905061527a81615254565b92915050565b60008151905061528f81614c11565b92915050565b600080604083850312156152ac576152ab614ba4565b5b60006152ba8582860161526b565b92505060206152cb85828601615280565b9150509250929050565b60006152e082614ba9565b91506152eb83614ba9565b9250827fffffffffffffffffffffffffffffffffffffffffffffffffffffffffffffffff038211156153205761531f615125565b5b828201905092915050565b60006060820190506153406000830186614d67565b61534d6020830185614d67565b61535a6040830184614c90565b949350505050565b60008115159050919050565b61537781615362565b811461538257600080fd5b50565b6000815190506153948161536e565b92915050565b6000602082840312156153b0576153af614ba4565b5b60006153be84828501615385565b91505092915050565b7f4e487b7100000000000000000000000000000000000000000000000000000000600052603260045260246000fd5b7f4e487b7100000000000000000000000000000000000000000000000000000000600052603160045260246000fd5b600061543082614ba9565b91507fffffffffffffffffffffffffffffffffffffffffffffffffffffffffffffffff82141561546357615462615125565b5b600182019050919050565b60008151905061547d81614bb3565b92915050565b60006020828403121561549957615498614ba4565b5b60006154a78482850161546e565b91505092915050565b60006040820190506154c56000830185614d67565b6154d26020830184614c90565b9392505050565b600081905092915050565b50565b60006154f46000836154d9565b91506154ff826154e4565b600082019050919050565b6000615515826154e7565b9150819050919050565b600082825260208201905092915050565b7f4661696c656420746f2073656e64204574686572000000000000000000000000600082015250565b600061556660148361551f565b915061557182615530565b602082019050919050565b6000602082019050818103600083015261559581615559565b9050919050565b60006040820190506155b16000830185614d67565b6155be6020830184614d67565b9392505050565b60006155d082614e71565b91506155db83614e71565b9250827f7fffffffffffffffffffffffffffffffffffffffffffffffffffffffffffffff048211600084136000841316161561561a57615619615125565b5b817f8000000000000000000000000000000000000000000000000000000000000000058312600084126000841316161561565757615656615125565b5b827f8000000000000000000000000000000000000000000000000000000000000000058212600084136000841216161561569457615693615125565b5b827f7fffffffffffffffffffffffffffffffffffffffffffffffffffffffffffffff05821260008412600084121616156156d1576156d0615125565b5b828202905092915050565b60006156e782614e71565b91506156f283614e71565b9250817f7fffffffffffffffffffffffffffffffffffffffffffffffffffffffffffffff0383136000831215161561572d5761572c615125565b5b817f800000000000000000000000000000000000000000000000000000000000000003831260008312161561576557615764615125565b5b828201905092915050565b600061577b82614e71565b915061578683614e71565b925082615796576157956151ae565b5b600160000383147f8000000000000000000000000000000000000000000000000000000000000000831416156157cf576157ce615125565b5b828205905092915050565b7f4e487b7100000000000000000000000000000000000000000000000000000000600052604160045260246000fd5b600069ffffffffffffffffffff82169050919050565b61582881615809565b811461583357600080fd5b50565b6000815190506158458161581f565b92915050565b61585481614e71565b811461585f57600080fd5b50565b6000815190506158718161584b565b92915050565b600080600080600060a0868803121561589357615892614ba4565b5b60006158a188828901615836565b95505060206158b288828901615862565b94505060406158c38882890161546e565b93505060606158d48882890161546e565b92505060806158e588828901615836565b915050929550929590935056fea2646970667358221220f798b26889c09d93401b3a822e718874bba0baaf99d1329dad422d1151e2e08d64736f6c63430008090033",
  "devdoc": {
    "details": "Manages lending, borrowing, and collateral operations for a decentralized finance platform. Utilizes external price feeds for valuation and includes functionality for yield farming. This contract is responsible for tracking user interactions with lending pools and their collateralized positions.",
    "kind": "dev",
    "methods": {
      "borrowToken(address,uint256)": {
        "details": "The function checks for sufficient liquidity and adherence to the loan-to-value (LTV) ratio before permitting the borrow. Updates the user's borrow receipts to keep track of the borrowed amount and terms.",
        "params": {
          "tokenAddress": "The address of the token the user wishes to borrow.",
          "tokenAmount": "The amount of tokens the user wants to borrow."
        }
      },
      "liquidityTreshold(address,address,uint256)": {
        "details": "Used to determine if a user's borrowings are within permissible limits. Can also factor in an additional amount being borrowed or provided as collateral.",
        "params": {
          "additionalTokenAddress": "Optionally, the address of a token being considered for borrowing/collateral.",
          "tokenAmount": "Optionally, the amount of the additional token being considered.",
          "user": "The address of the user."
        },
        "returns": {
          "_0": "The LTV ratio as a percentage."
        }
      },
      "returnBorrowedToken(uint256,uint256)": {
        "details": "Calculates interest based on the borrowing APY and time elapsed since the token was borrowed.",
        "params": {
          "id": "The unique identifier of the borrow receipt.",
          "tokenAmount": "The amount of the borrowed token being returned."
        }
      },
      "stakeCollateral(address,uint256)": {
        "details": "Transfers tokens from the user to this contract for collateralization. Updates the collateral tracking mappings.",
        "params": {
          "tokenAddress": "The address of the token being staked as collateral.",
          "tokenAmount": "The amount of the token to stake."
        }
      },
      "terminateCollateral(address)": {
        "details": "Meant to be called by an external mechanism (like a keeper) that monitors LTV ratios.",
        "params": {
          "userAddress": "The address of the user whose collateral is being liquidated."
        }
      },
      "unstakeCollateral(address,uint256)": {
        "details": "Ensures that the withdrawal does not violate the loan-to-value (LTV) requirements.",
        "params": {
          "tokenAddress": "The address of the token to unstake.",
          "tokenAmount": "The amount of the token to unstake."
        }
      }
    },
    "title": "LendingTracker",
    "version": 1
  },
  "userdoc": {
    "kind": "user",
    "methods": {
      "borrowToken(address,uint256)": {
        "notice": "Allows a user to borrow tokens from a specific lending pool."
      },
      "liquidityTreshold(address,address,uint256)": {
        "notice": "Computes the current loan-to-value (LTV) ratio for a user's borrowed funds against their staked collateral."
      },
      "returnBorrowedToken(uint256,uint256)": {
        "notice": "Allows a user to return borrowed tokens along with any accrued interest."
      },
      "stakeCollateral(address,uint256)": {
        "notice": "Allows users to stake tokens as collateral for borrowing."
      },
      "terminateCollateral(address)": {
        "notice": "Initiates the liquidation of a user's collateral if their LTV ratio exceeds the maximum permitted value."
      },
      "unstakeCollateral(address,uint256)": {
        "notice": "Permits users to withdraw their staked collateral, provided they have no outstanding loans."
      }
    },
    "version": 1
  },
  "storageLayout": {
    "storage": [
      {
        "astId": 2519,
        "contract": "contracts/Lending/BorrowingTracker.sol:BorrowingTracker",
        "label": "ltv",
        "offset": 0,
        "slot": "0",
        "type": "t_int256"
      },
      {
        "astId": 2521,
        "contract": "contracts/Lending/BorrowingTracker.sol:BorrowingTracker",
        "label": "owner",
        "offset": 0,
        "slot": "1",
        "type": "t_address"
      },
      {
        "astId": 2524,
        "contract": "contracts/Lending/BorrowingTracker.sol:BorrowingTracker",
        "label": "swapRouter",
        "offset": 0,
        "slot": "2",
        "type": "t_contract(SwapRouter)2462"
      },
      {
        "astId": 2526,
        "contract": "contracts/Lending/BorrowingTracker.sol:BorrowingTracker",
        "label": "swapToken",
        "offset": 0,
        "slot": "3",
        "type": "t_address"
      },
      {
        "astId": 2529,
        "contract": "contracts/Lending/BorrowingTracker.sol:BorrowingTracker",
        "label": "lendingTracker",
        "offset": 0,
        "slot": "4",
        "type": "t_contract(LendingTracker)4710"
      },
      {
        "astId": 2572,
        "contract": "contracts/Lending/BorrowingTracker.sol:BorrowingTracker",
        "label": "collateral",
        "offset": 0,
        "slot": "5",
        "type": "t_mapping(t_address,t_mapping(t_address,t_uint256))"
      },
      {
        "astId": 2577,
        "contract": "contracts/Lending/BorrowingTracker.sol:BorrowingTracker",
        "label": "collateralTokens",
        "offset": 0,
        "slot": "6",
        "type": "t_mapping(t_address,t_array(t_address)dyn_storage)"
      },
      {
        "astId": 2582,
        "contract": "contracts/Lending/BorrowingTracker.sol:BorrowingTracker",
        "label": "borrowedTokens",
        "offset": 0,
        "slot": "7",
        "type": "t_mapping(t_address,t_array(t_address)dyn_storage)"
      },
      {
        "astId": 2586,
        "contract": "contracts/Lending/BorrowingTracker.sol:BorrowingTracker",
        "label": "borrowingId",
        "offset": 0,
        "slot": "8",
        "type": "t_mapping(t_address,t_uint256)"
      },
      {
        "astId": 2593,
        "contract": "contracts/Lending/BorrowingTracker.sol:BorrowingTracker",
        "label": "userBorrowReceipts",
        "offset": 0,
        "slot": "9",
        "type": "t_mapping(t_address,t_mapping(t_address,t_array(t_uint256)dyn_storage))"
      },
      {
        "astId": 2600,
        "contract": "contracts/Lending/BorrowingTracker.sol:BorrowingTracker",
        "label": "borrowReceiptData",
        "offset": 0,
        "slot": "10",
        "type": "t_mapping(t_address,t_mapping(t_uint256,t_struct(borrowReceipt)2566_storage))"
      }
    ],
    "types": {
      "t_address": {
        "encoding": "inplace",
        "label": "address",
        "numberOfBytes": "20"
      },
      "t_array(t_address)dyn_storage": {
        "base": "t_address",
        "encoding": "dynamic_array",
        "label": "address[]",
        "numberOfBytes": "32"
      },
      "t_array(t_uint256)dyn_storage": {
        "base": "t_uint256",
        "encoding": "dynamic_array",
        "label": "uint256[]",
        "numberOfBytes": "32"
      },
      "t_contract(LendingTracker)4710": {
        "encoding": "inplace",
        "label": "contract LendingTracker",
        "numberOfBytes": "20"
      },
      "t_contract(SwapRouter)2462": {
        "encoding": "inplace",
        "label": "contract SwapRouter",
        "numberOfBytes": "20"
      },
      "t_int256": {
        "encoding": "inplace",
        "label": "int256",
        "numberOfBytes": "32"
      },
      "t_mapping(t_address,t_array(t_address)dyn_storage)": {
        "encoding": "mapping",
        "key": "t_address",
        "label": "mapping(address => address[])",
        "numberOfBytes": "32",
        "value": "t_array(t_address)dyn_storage"
      },
      "t_mapping(t_address,t_array(t_uint256)dyn_storage)": {
        "encoding": "mapping",
        "key": "t_address",
        "label": "mapping(address => uint256[])",
        "numberOfBytes": "32",
        "value": "t_array(t_uint256)dyn_storage"
      },
      "t_mapping(t_address,t_mapping(t_address,t_array(t_uint256)dyn_storage))": {
        "encoding": "mapping",
        "key": "t_address",
        "label": "mapping(address => mapping(address => uint256[]))",
        "numberOfBytes": "32",
        "value": "t_mapping(t_address,t_array(t_uint256)dyn_storage)"
      },
      "t_mapping(t_address,t_mapping(t_address,t_uint256))": {
        "encoding": "mapping",
        "key": "t_address",
        "label": "mapping(address => mapping(address => uint256))",
        "numberOfBytes": "32",
        "value": "t_mapping(t_address,t_uint256)"
      },
      "t_mapping(t_address,t_mapping(t_uint256,t_struct(borrowReceipt)2566_storage))": {
        "encoding": "mapping",
        "key": "t_address",
        "label": "mapping(address => mapping(uint256 => struct BorrowingTracker.borrowReceipt))",
        "numberOfBytes": "32",
        "value": "t_mapping(t_uint256,t_struct(borrowReceipt)2566_storage)"
      },
      "t_mapping(t_address,t_uint256)": {
        "encoding": "mapping",
        "key": "t_address",
        "label": "mapping(address => uint256)",
        "numberOfBytes": "32",
        "value": "t_uint256"
      },
      "t_mapping(t_uint256,t_struct(borrowReceipt)2566_storage)": {
        "encoding": "mapping",
        "key": "t_uint256",
        "label": "mapping(uint256 => struct BorrowingTracker.borrowReceipt)",
        "numberOfBytes": "32",
        "value": "t_struct(borrowReceipt)2566_storage"
      },
      "t_struct(borrowReceipt)2566_storage": {
        "encoding": "inplace",
        "label": "struct BorrowingTracker.borrowReceipt",
        "members": [
          {
            "astId": 2559,
            "contract": "contracts/Lending/BorrowingTracker.sol:BorrowingTracker",
            "label": "tokenAddress",
            "offset": 0,
            "slot": "0",
            "type": "t_address"
          },
          {
            "astId": 2561,
            "contract": "contracts/Lending/BorrowingTracker.sol:BorrowingTracker",
            "label": "amount",
            "offset": 0,
            "slot": "1",
            "type": "t_uint256"
          },
          {
            "astId": 2563,
            "contract": "contracts/Lending/BorrowingTracker.sol:BorrowingTracker",
            "label": "time",
            "offset": 0,
            "slot": "2",
            "type": "t_uint256"
          },
          {
            "astId": 2565,
            "contract": "contracts/Lending/BorrowingTracker.sol:BorrowingTracker",
            "label": "apy",
            "offset": 0,
            "slot": "3",
            "type": "t_uint256"
          }
        ],
        "numberOfBytes": "128"
      },
      "t_uint256": {
        "encoding": "inplace",
        "label": "uint256",
        "numberOfBytes": "32"
      }
    }
  }
}