{
  "address": "0xf95269C39EBaF3D75d3Fa67E2cCeDcB791507D28",
  "abi": [
    {
      "inputs": [
        {
          "internalType": "address",
          "name": "_lendingTracker",
          "type": "address"
        },
        {
          "internalType": "address",
          "name": "_swapRouter",
          "type": "address"
        }
      ],
      "stateMutability": "nonpayable",
      "type": "constructor"
    },
    {
      "inputs": [],
      "name": "BorrowingTracker_AmountOfCollateralTokenTooLow",
      "type": "error"
    },
    {
      "inputs": [],
      "name": "BorrowingTracker_AmountTooHigh",
      "type": "error"
    },
    {
      "inputs": [],
      "name": "lendingTracker_addressNotAllowed",
      "type": "error"
    },
    {
      "inputs": [],
      "name": "lendingTracker_amountTooHigh",
      "type": "error"
    },
    {
      "inputs": [],
      "name": "lendingTracker_poolNotAvailable",
      "type": "error"
    },
    {
      "inputs": [],
      "name": "lendingTracker_receiptDoesntExist",
      "type": "error"
    },
    {
      "inputs": [],
      "name": "lending_addressNotAllowed",
      "type": "error"
    },
    {
      "anonymous": false,
      "inputs": [
        {
          "indexed": false,
          "internalType": "address",
          "name": "user",
          "type": "address"
        },
        {
          "indexed": false,
          "internalType": "address",
          "name": "terminator",
          "type": "address"
        }
      ],
      "name": "collateralTerminated",
      "type": "event"
    },
    {
      "anonymous": false,
      "inputs": [
        {
          "indexed": true,
          "internalType": "address",
          "name": "user",
          "type": "address"
        },
        {
          "indexed": false,
          "internalType": "address",
          "name": "tokenAddress",
          "type": "address"
        },
        {
          "indexed": false,
          "internalType": "uint256",
          "name": "tokenAmount",
          "type": "uint256"
        }
      ],
      "name": "userBorrowed",
      "type": "event"
    },
    {
      "anonymous": false,
      "inputs": [
        {
          "indexed": true,
          "internalType": "address",
          "name": "user",
          "type": "address"
        },
        {
          "indexed": false,
          "internalType": "address",
          "name": "tokenAddress",
          "type": "address"
        },
        {
          "indexed": false,
          "internalType": "uint256",
          "name": "receiptId",
          "type": "uint256"
        },
        {
          "indexed": false,
          "internalType": "uint256",
          "name": "tokenAmount",
          "type": "uint256"
        },
        {
          "indexed": false,
          "internalType": "uint256",
          "name": "interest",
          "type": "uint256"
        }
      ],
      "name": "userReturnedBorrowedToken",
      "type": "event"
    },
    {
      "anonymous": false,
      "inputs": [
        {
          "indexed": true,
          "internalType": "address",
          "name": "user",
          "type": "address"
        },
        {
          "indexed": false,
          "internalType": "address",
          "name": "tokenAddress",
          "type": "address"
        },
        {
          "indexed": false,
          "internalType": "uint256",
          "name": "tokenAmount",
          "type": "uint256"
        }
      ],
      "name": "userStakedCollateral",
      "type": "event"
    },
    {
      "anonymous": false,
      "inputs": [
        {
          "indexed": true,
          "internalType": "address",
          "name": "user",
          "type": "address"
        },
        {
          "indexed": false,
          "internalType": "address",
          "name": "tokenAddress",
          "type": "address"
        },
        {
          "indexed": false,
          "internalType": "uint256",
          "name": "tokenAmount",
          "type": "uint256"
        }
      ],
      "name": "userUnstakedCollateral",
      "type": "event"
    },
    {
      "inputs": [
        {
          "internalType": "uint256",
          "name": "_id",
          "type": "uint256"
        },
        {
          "internalType": "address",
          "name": "_user",
          "type": "address"
        },
        {
          "internalType": "uint256",
          "name": "tokenAmount",
          "type": "uint256"
        }
      ],
      "name": "accruedInterest",
      "outputs": [
        {
          "internalType": "uint256",
          "name": "",
          "type": "uint256"
        }
      ],
      "stateMutability": "view",
      "type": "function"
    },
    {
      "inputs": [
        {
          "internalType": "address",
          "name": "_swapRouter",
          "type": "address"
        }
      ],
      "name": "addSwapRouter",
      "outputs": [],
      "stateMutability": "nonpayable",
      "type": "function"
    },
    {
      "inputs": [
        {
          "internalType": "address",
          "name": "newSwapToken",
          "type": "address"
        }
      ],
      "name": "addSwapToken",
      "outputs": [],
      "stateMutability": "nonpayable",
      "type": "function"
    },
    {
      "inputs": [
        {
          "internalType": "address",
          "name": "",
          "type": "address"
        },
        {
          "internalType": "uint256",
          "name": "",
          "type": "uint256"
        }
      ],
      "name": "borrowReceiptData",
      "outputs": [
        {
          "internalType": "address",
          "name": "tokenAddress",
          "type": "address"
        },
        {
          "internalType": "uint256",
          "name": "amount",
          "type": "uint256"
        },
        {
          "internalType": "uint256",
          "name": "time",
          "type": "uint256"
        },
        {
          "internalType": "uint256",
          "name": "apy",
          "type": "uint256"
        }
      ],
      "stateMutability": "view",
      "type": "function"
    },
    {
      "inputs": [
        {
          "internalType": "address",
          "name": "tokenAddress",
          "type": "address"
        },
        {
          "internalType": "uint256",
          "name": "tokenAmount",
          "type": "uint256"
        }
      ],
      "name": "borrowToken",
      "outputs": [],
      "stateMutability": "nonpayable",
      "type": "function"
    },
    {
      "inputs": [
        {
          "internalType": "address",
          "name": "",
          "type": "address"
        },
        {
          "internalType": "uint256",
          "name": "",
          "type": "uint256"
        }
      ],
      "name": "borrowedTokens",
      "outputs": [
        {
          "internalType": "address",
          "name": "",
          "type": "address"
        }
      ],
      "stateMutability": "view",
      "type": "function"
    },
    {
      "inputs": [
        {
          "internalType": "address",
          "name": "",
          "type": "address"
        }
      ],
      "name": "borrowingId",
      "outputs": [
        {
          "internalType": "uint256",
          "name": "",
          "type": "uint256"
        }
      ],
      "stateMutability": "view",
      "type": "function"
    },
    {
      "inputs": [
        {
          "internalType": "address",
          "name": "",
          "type": "address"
        },
        {
          "internalType": "address",
          "name": "",
          "type": "address"
        }
      ],
      "name": "collateral",
      "outputs": [
        {
          "internalType": "uint256",
          "name": "",
          "type": "uint256"
        }
      ],
      "stateMutability": "view",
      "type": "function"
    },
    {
      "inputs": [
        {
          "internalType": "address",
          "name": "",
          "type": "address"
        },
        {
          "internalType": "uint256",
          "name": "",
          "type": "uint256"
        }
      ],
      "name": "collateralTokens",
      "outputs": [
        {
          "internalType": "address",
          "name": "",
          "type": "address"
        }
      ],
      "stateMutability": "view",
      "type": "function"
    },
    {
      "inputs": [
        {
          "internalType": "address",
          "name": "user",
          "type": "address"
        }
      ],
      "name": "getBorrowedReceipts",
      "outputs": [
        {
          "internalType": "uint256[]",
          "name": "",
          "type": "uint256[]"
        }
      ],
      "stateMutability": "view",
      "type": "function"
    },
    {
      "inputs": [
        {
          "internalType": "address",
          "name": "user",
          "type": "address"
        }
      ],
      "name": "getBorrowedTokens",
      "outputs": [
        {
          "internalType": "address[]",
          "name": "",
          "type": "address[]"
        }
      ],
      "stateMutability": "view",
      "type": "function"
    },
    {
      "inputs": [
        {
          "internalType": "address",
          "name": "user",
          "type": "address"
        }
      ],
      "name": "getCollateralTokens",
      "outputs": [
        {
          "internalType": "address[]",
          "name": "",
          "type": "address[]"
        }
      ],
      "stateMutability": "view",
      "type": "function"
    },
    {
      "inputs": [],
      "name": "lendingTracker",
      "outputs": [
        {
          "internalType": "contract LendingTracker",
          "name": "",
          "type": "address"
        }
      ],
      "stateMutability": "view",
      "type": "function"
    },
    {
      "inputs": [
        {
          "internalType": "address",
          "name": "user",
          "type": "address"
        },
        {
          "internalType": "address",
          "name": "additionalTokenAddress",
          "type": "address"
        },
        {
          "internalType": "uint256",
          "name": "tokenAmount",
          "type": "uint256"
        }
      ],
      "name": "liquidityTreshold",
      "outputs": [
        {
          "internalType": "int256",
          "name": "",
          "type": "int256"
        }
      ],
      "stateMutability": "view",
      "type": "function"
    },
    {
      "inputs": [],
      "name": "ltv",
      "outputs": [
        {
          "internalType": "int256",
          "name": "",
          "type": "int256"
        }
      ],
      "stateMutability": "view",
      "type": "function"
    },
    {
      "inputs": [
        {
          "internalType": "uint256",
          "name": "id",
          "type": "uint256"
        },
        {
          "internalType": "uint256",
          "name": "tokenAmount",
          "type": "uint256"
        }
      ],
      "name": "returnBorrowedToken",
      "outputs": [],
      "stateMutability": "nonpayable",
      "type": "function"
    },
    {
      "inputs": [
        {
          "internalType": "address",
          "name": "tokenAddress",
          "type": "address"
        },
        {
          "internalType": "uint256",
          "name": "tokenAmount",
          "type": "uint256"
        }
      ],
      "name": "stakeCollateral",
      "outputs": [],
      "stateMutability": "nonpayable",
      "type": "function"
    },
    {
      "inputs": [],
      "name": "swapRouter",
      "outputs": [
        {
          "internalType": "contract SwapRouter",
          "name": "",
          "type": "address"
        }
      ],
      "stateMutability": "view",
      "type": "function"
    },
    {
      "inputs": [],
      "name": "swapToken",
      "outputs": [
        {
          "internalType": "address",
          "name": "",
          "type": "address"
        }
      ],
      "stateMutability": "view",
      "type": "function"
    },
    {
      "inputs": [
        {
          "internalType": "address",
          "name": "userAddress",
          "type": "address"
        }
      ],
      "name": "terminateCollateral",
      "outputs": [],
      "stateMutability": "payable",
      "type": "function"
    },
    {
      "inputs": [
        {
          "internalType": "address",
          "name": "tokenAddress",
          "type": "address"
        },
        {
          "internalType": "uint256",
          "name": "tokenAmount",
          "type": "uint256"
        }
      ],
      "name": "unstakeCollateral",
      "outputs": [],
      "stateMutability": "nonpayable",
      "type": "function"
    },
    {
      "inputs": [
        {
          "internalType": "address",
          "name": "",
          "type": "address"
        },
        {
          "internalType": "address",
          "name": "",
          "type": "address"
        },
        {
          "internalType": "uint256",
          "name": "",
          "type": "uint256"
        }
      ],
      "name": "userBorrowReceipts",
      "outputs": [
        {
          "internalType": "uint256",
          "name": "",
          "type": "uint256"
        }
      ],
      "stateMutability": "view",
      "type": "function"
    }
  ],
  "transactionHash": "0x571512c40c99cb33a03983eae91f2a008b58b3e4ec62d6bf48296a1120b9dbdd",
  "args": [
    "0xe521B7430f161D85Bcd629Fb5Aef377249E042f5",
    "0xC0E280A27D717cC55Df6625339a6185bc5fB7625"
  ],
  "numDeployments": 3,
  "solcInputHash": "a491286b4e87cc4d72fac35e4211eb53",
  "bytecode": "0x6080604052604b6000553480156200001657600080fd5b5060405162005b7738038062005b7783398181016040528101906200003c919062000171565b33600160006101000a81548173ffffffffffffffffffffffffffffffffffffffff021916908373ffffffffffffffffffffffffffffffffffffffff16021790555081600460006101000a81548173ffffffffffffffffffffffffffffffffffffffff021916908373ffffffffffffffffffffffffffffffffffffffff16021790555080600260006101000a81548173ffffffffffffffffffffffffffffffffffffffff021916908373ffffffffffffffffffffffffffffffffffffffff1602179055505050620001b8565b600080fd5b600073ffffffffffffffffffffffffffffffffffffffff82169050919050565b600062000139826200010c565b9050919050565b6200014b816200012c565b81146200015757600080fd5b50565b6000815190506200016b8162000140565b92915050565b600080604083850312156200018b576200018a62000107565b5b60006200019b858286016200015a565b9250506020620001ae858286016200015a565b9150509250929050565b6159af80620001c86000396000f3fe6080604052600436106101355760003560e01c80636fb49d73116100ab578063c31c9c071161006f578063c31c9c071461045f578063cc218ece1461048a578063dbf50bfc146104c7578063dc73e49c146104f2578063e0b1d2371461051d578063ed903f7a1461055d57610135565b80636fb49d7314610340578063784eddd81461036b57806383eaf8bc146103a8578063b2f7f916146103e5578063b3f8d9001461042257610135565b8063322de332116100fd578063322de3321461022257806347c47ed31461024b5780634bb3df99146102745780635a91b39c1461029d5780635cf8f780146102c65780636178bad61461030357610135565b80630d9328a61461013a578063106c6dbc1461017757806315ec777a146101a05780632b798f49146101c95780632cb8f67614610206575b600080fd5b34801561014657600080fd5b50610161600480360381019061015c9190614cc4565b61059a565b60405161016e9190614d26565b60405180910390f35b34801561018357600080fd5b5061019e60048036038101906101999190614d41565b61074e565b005b3480156101ac57600080fd5b506101c760048036038101906101c29190614d81565b6112f5565b005b3480156101d557600080fd5b506101f060048036038101906101eb9190614dae565b6113c0565b6040516101fd9190614dfd565b60405180910390f35b610220600480360381019061021b9190614d81565b61140e565b005b34801561022e57600080fd5b5061024960048036038101906102449190614dae565b61274e565b005b34801561025757600080fd5b50610272600480360381019061026d9190614d81565b612bb2565b005b34801561028057600080fd5b5061029b60048036038101906102969190614dae565b612c7d565b005b3480156102a957600080fd5b506102c460048036038101906102bf9190614dae565b61344c565b005b3480156102d257600080fd5b506102ed60048036038101906102e89190614dae565b613b53565b6040516102fa9190614dfd565b60405180910390f35b34801561030f57600080fd5b5061032a60048036038101906103259190614d81565b613ba1565b6040516103379190614ed6565b60405180910390f35b34801561034c57600080fd5b50610355613c6e565b6040516103629190614f11565b60405180910390f35b34801561037757600080fd5b50610392600480360381019061038d9190614f2c565b613c74565b60405161039f9190614f11565b60405180910390f35b3480156103b457600080fd5b506103cf60048036038101906103ca9190614f2c565b614480565b6040516103dc9190614d26565b60405180910390f35b3480156103f157600080fd5b5061040c60048036038101906104079190614d81565b6144be565b6040516104199190614d26565b60405180910390f35b34801561042e57600080fd5b5061044960048036038101906104449190614d81565b6144d6565b604051610456919061503d565b60405180910390f35b34801561046b57600080fd5b50610474614956565b60405161048191906150be565b60405180910390f35b34801561049657600080fd5b506104b160048036038101906104ac91906150d9565b61497c565b6040516104be9190614d26565b60405180910390f35b3480156104d357600080fd5b506104dc6149a1565b6040516104e9919061514c565b60405180910390f35b3480156104fe57600080fd5b506105076149c7565b6040516105149190614dfd565b60405180910390f35b34801561052957600080fd5b50610544600480360381019061053f9190614dae565b6149ed565b6040516105549493929190615167565b60405180910390f35b34801561056957600080fd5b50610584600480360381019061057f9190614d81565b614a4a565b6040516105919190614ed6565b60405180910390f35b600080600a60008573ffffffffffffffffffffffffffffffffffffffff1673ffffffffffffffffffffffffffffffffffffffff16815260200190815260200160002060008681526020019081526020016000206003015490506000600a60008673ffffffffffffffffffffffffffffffffffffffff1673ffffffffffffffffffffffffffffffffffffffff16815260200190815260200160002060008781526020019081526020016000206002015490506000600a60008773ffffffffffffffffffffffffffffffffffffffff1673ffffffffffffffffffffffffffffffffffffffff168152602001908152602001600020600088815260200190815260200160002060010154905060008314156106b85760009350505050610747565b808511156106f2576040517f6aff58d500000000000000000000000000000000000000000000000000000000815260040160405180910390fd5b6000606463bbf81e0085858560648b61070b91906151db565b6107159190615264565b61071f91906151db565b61072991906151db565b6107339190615264565b61073d91906151db565b9050809450505050505b9392505050565b6000600a60003373ffffffffffffffffffffffffffffffffffffffff1673ffffffffffffffffffffffffffffffffffffffff16815260200190815260200160002060008481526020019081526020016000206001015414156107dc576040517fd4ca1fe200000000000000000000000000000000000000000000000000000000815260040160405180910390fd5b600081600a60003373ffffffffffffffffffffffffffffffffffffffff1673ffffffffffffffffffffffffffffffffffffffff16815260200190815260200160002060008581526020019081526020016000206001015461083d9190615295565b1015610875576040517f6fc3494000000000000000000000000000000000000000000000000000000000815260040160405180910390fd5b6000600a60003373ffffffffffffffffffffffffffffffffffffffff1673ffffffffffffffffffffffffffffffffffffffff168152602001908152602001600020600084815260200190815260200160002060000160009054906101000a900473ffffffffffffffffffffffffffffffffffffffff16905081600a60003373ffffffffffffffffffffffffffffffffffffffff1673ffffffffffffffffffffffffffffffffffffffff168152602001908152602001600020600085815260200190815260200160002060010160008282546109509190615295565b92505081905550600061096484338561059a565b90506000600460009054906101000a900473ffffffffffffffffffffffffffffffffffffffff1673ffffffffffffffffffffffffffffffffffffffff1663989796b5846040518263ffffffff1660e01b81526004016109c39190614dfd565b604080518083038186803b1580156109da57600080fd5b505afa1580156109ee573d6000803e3d6000fd5b505050506040513d601f19601f82011682018060405250810190610a12919061531c565b5090508273ffffffffffffffffffffffffffffffffffffffff166323b872dd33838588610a3f919061535c565b6040518463ffffffff1660e01b8152600401610a5d939291906153b2565b602060405180830381600087803b158015610a7757600080fd5b505af1158015610a8b573d6000803e3d6000fd5b505050506040513d601f19601f82011682018060405250810190610aaf9190615421565b508073ffffffffffffffffffffffffffffffffffffffff1663cd682060836040518263ffffffff1660e01b8152600401610ae99190614d26565b600060405180830381600087803b158015610b0357600080fd5b505af1158015610b17573d6000803e3d6000fd5b505050506000600a60003373ffffffffffffffffffffffffffffffffffffffff1673ffffffffffffffffffffffffffffffffffffffff168152602001908152602001600020600087815260200190815260200160002060010154141561129a5760005b600960003373ffffffffffffffffffffffffffffffffffffffff1673ffffffffffffffffffffffffffffffffffffffff16815260200190815260200160002060008573ffffffffffffffffffffffffffffffffffffffff1673ffffffffffffffffffffffffffffffffffffffff16815260200190815260200160002080549050811015610f175785600960003373ffffffffffffffffffffffffffffffffffffffff1673ffffffffffffffffffffffffffffffffffffffff16815260200190815260200160002060008673ffffffffffffffffffffffffffffffffffffffff1673ffffffffffffffffffffffffffffffffffffffff1681526020019081526020016000208281548110610c9057610c8f61544e565b5b90600052602060002001541415610f0457600960003373ffffffffffffffffffffffffffffffffffffffff1673ffffffffffffffffffffffffffffffffffffffff16815260200190815260200160002060008573ffffffffffffffffffffffffffffffffffffffff1673ffffffffffffffffffffffffffffffffffffffff1681526020019081526020016000206001600960003373ffffffffffffffffffffffffffffffffffffffff1673ffffffffffffffffffffffffffffffffffffffff16815260200190815260200160002060008773ffffffffffffffffffffffffffffffffffffffff1673ffffffffffffffffffffffffffffffffffffffff16815260200190815260200160002080549050610da99190615295565b81548110610dba57610db961544e565b5b9060005260206000200154600960003373ffffffffffffffffffffffffffffffffffffffff1673ffffffffffffffffffffffffffffffffffffffff16815260200190815260200160002060008673ffffffffffffffffffffffffffffffffffffffff1673ffffffffffffffffffffffffffffffffffffffff1681526020019081526020016000208281548110610e5357610e5261544e565b5b9060005260206000200181905550600960003373ffffffffffffffffffffffffffffffffffffffff1673ffffffffffffffffffffffffffffffffffffffff16815260200190815260200160002060008573ffffffffffffffffffffffffffffffffffffffff1673ffffffffffffffffffffffffffffffffffffffff168152602001908152602001600020805480610eed57610eec61547d565b5b600190038181906000526020600020016000905590555b8080610f0f906154ac565b915050610b7a565b506000600960003373ffffffffffffffffffffffffffffffffffffffff1673ffffffffffffffffffffffffffffffffffffffff16815260200190815260200160002060008573ffffffffffffffffffffffffffffffffffffffff1673ffffffffffffffffffffffffffffffffffffffff1681526020019081526020016000208054905014156112995760005b600760003373ffffffffffffffffffffffffffffffffffffffff1673ffffffffffffffffffffffffffffffffffffffff16815260200190815260200160002080549050811015611297578373ffffffffffffffffffffffffffffffffffffffff16600760003373ffffffffffffffffffffffffffffffffffffffff1673ffffffffffffffffffffffffffffffffffffffff16815260200190815260200160002082815481106110555761105461544e565b5b9060005260206000200160009054906101000a900473ffffffffffffffffffffffffffffffffffffffff1673ffffffffffffffffffffffffffffffffffffffff16141561128457600760003373ffffffffffffffffffffffffffffffffffffffff1673ffffffffffffffffffffffffffffffffffffffff1681526020019081526020016000206001600760003373ffffffffffffffffffffffffffffffffffffffff1673ffffffffffffffffffffffffffffffffffffffff1681526020019081526020016000208054905061112a9190615295565b8154811061113b5761113a61544e565b5b9060005260206000200160009054906101000a900473ffffffffffffffffffffffffffffffffffffffff16600760003373ffffffffffffffffffffffffffffffffffffffff1673ffffffffffffffffffffffffffffffffffffffff16815260200190815260200160002082815481106111b7576111b661544e565b5b9060005260206000200160006101000a81548173ffffffffffffffffffffffffffffffffffffffff021916908373ffffffffffffffffffffffffffffffffffffffff160217905550600760003373ffffffffffffffffffffffffffffffffffffffff1673ffffffffffffffffffffffffffffffffffffffff16815260200190815260200160002080548061124e5761124d61547d565b5b6001900381819060005260206000200160006101000a81549073ffffffffffffffffffffffffffffffffffffffff021916905590555b808061128f906154ac565b915050610fa3565b505b5b3373ffffffffffffffffffffffffffffffffffffffff167f3d3dc018f55160b3fa5bcc9f5f8f595211524dd7cc1320607df0a09c236dd50e848787866040516112e69493929190615167565b60405180910390a25050505050565b600160009054906101000a900473ffffffffffffffffffffffffffffffffffffffff1673ffffffffffffffffffffffffffffffffffffffff163373ffffffffffffffffffffffffffffffffffffffff161461137c576040517feed3ab2300000000000000000000000000000000000000000000000000000000815260040160405180910390fd5b80600260006101000a81548173ffffffffffffffffffffffffffffffffffffffff021916908373ffffffffffffffffffffffffffffffffffffffff16021790555050565b600660205281600052604060002081815481106113dc57600080fd5b906000526020600020016000915091509054906101000a900473ffffffffffffffffffffffffffffffffffffffff1681565b60005461141d82600080613c74565b13611454576040517f56f37e7800000000000000000000000000000000000000000000000000000000815260040160405180910390fd5b60004790506000805b600660008573ffffffffffffffffffffffffffffffffffffffff1673ffffffffffffffffffffffffffffffffffffffff16815260200190815260200160002080549050811015611aa2576000600660008673ffffffffffffffffffffffffffffffffffffffff1673ffffffffffffffffffffffffffffffffffffffff16815260200190815260200160002082815481106114fa576114f961544e565b5b9060005260206000200160009054906101000a900473ffffffffffffffffffffffffffffffffffffffff1690506000600560008773ffffffffffffffffffffffffffffffffffffffff1673ffffffffffffffffffffffffffffffffffffffff16815260200190815260200160002060008373ffffffffffffffffffffffffffffffffffffffff1673ffffffffffffffffffffffffffffffffffffffff168152602001908152602001600020549050600360009054906101000a900473ffffffffffffffffffffffffffffffffffffffff1673ffffffffffffffffffffffffffffffffffffffff168273ffffffffffffffffffffffffffffffffffffffff16141561161157808461160a919061535c565b93506117a9565b6000600260009054906101000a900473ffffffffffffffffffffffffffffffffffffffff1673ffffffffffffffffffffffffffffffffffffffff1663635bc0c284600360009054906101000a900473ffffffffffffffffffffffffffffffffffffffff16856040518463ffffffff1660e01b8152600401611694939291906153b2565b60206040518083038186803b1580156116ac57600080fd5b505afa1580156116c0573d6000803e3d6000fd5b505050506040513d601f19601f820116820180604052508101906116e4919061550a565b9050600260009054906101000a900473ffffffffffffffffffffffffffffffffffffffff1673ffffffffffffffffffffffffffffffffffffffff1663fe9f5c0584600360009054906101000a900473ffffffffffffffffffffffffffffffffffffffff16856040518463ffffffff1660e01b8152600401611767939291906153b2565b600060405180830381600087803b15801561178157600080fd5b505af1158015611795573d6000803e3d6000fd5b5050505080856117a5919061535c565b9450505b6000600560008873ffffffffffffffffffffffffffffffffffffffff1673ffffffffffffffffffffffffffffffffffffffff1681526020019081526020016000206000600660008a73ffffffffffffffffffffffffffffffffffffffff1673ffffffffffffffffffffffffffffffffffffffff168152602001908152602001600020868154811061183d5761183c61544e565b5b9060005260206000200160009054906101000a900473ffffffffffffffffffffffffffffffffffffffff1673ffffffffffffffffffffffffffffffffffffffff1673ffffffffffffffffffffffffffffffffffffffff16815260200190815260200160002081905550600660008773ffffffffffffffffffffffffffffffffffffffff1673ffffffffffffffffffffffffffffffffffffffff1681526020019081526020016000206001600660008973ffffffffffffffffffffffffffffffffffffffff1673ffffffffffffffffffffffffffffffffffffffff168152602001908152602001600020805490506119349190615295565b815481106119455761194461544e565b5b9060005260206000200160009054906101000a900473ffffffffffffffffffffffffffffffffffffffff16600660008873ffffffffffffffffffffffffffffffffffffffff1673ffffffffffffffffffffffffffffffffffffffff16815260200190815260200160002084815481106119c1576119c061544e565b5b9060005260206000200160006101000a81548173ffffffffffffffffffffffffffffffffffffffff021916908373ffffffffffffffffffffffffffffffffffffffff160217905550600660008773ffffffffffffffffffffffffffffffffffffffff1673ffffffffffffffffffffffffffffffffffffffff168152602001908152602001600020805480611a5857611a5761547d565b5b6001900381819060005260206000200160006101000a81549073ffffffffffffffffffffffffffffffffffffffff0219169055905550508080611a9a906154ac565b91505061145d565b5060005b600760008573ffffffffffffffffffffffffffffffffffffffff1673ffffffffffffffffffffffffffffffffffffffff168152602001908152602001600020805490508110156125a1576000806000600760008873ffffffffffffffffffffffffffffffffffffffff1673ffffffffffffffffffffffffffffffffffffffff1681526020019081526020016000208481548110611b4657611b4561544e565b5b9060005260206000200160009054906101000a900473ffffffffffffffffffffffffffffffffffffffff16905060005b600960008973ffffffffffffffffffffffffffffffffffffffff1673ffffffffffffffffffffffffffffffffffffffff16815260200190815260200160002060008373ffffffffffffffffffffffffffffffffffffffff1673ffffffffffffffffffffffffffffffffffffffff16815260200190815260200160002080549050811015611ff9576000600960008a73ffffffffffffffffffffffffffffffffffffffff1673ffffffffffffffffffffffffffffffffffffffff16815260200190815260200160002060008473ffffffffffffffffffffffffffffffffffffffff1673ffffffffffffffffffffffffffffffffffffffff1681526020019081526020016000208681548110611c8d57611c8c61544e565b5b906000526020600020015490506000600a60008b73ffffffffffffffffffffffffffffffffffffffff1673ffffffffffffffffffffffffffffffffffffffff16815260200190815260200160002060008381526020019081526020016000206001015490506000611cff838c8461059a565b90508082611d0d919061535c565b87611d18919061535c565b96508086611d26919061535c565b95506000600a60008d73ffffffffffffffffffffffffffffffffffffffff1673ffffffffffffffffffffffffffffffffffffffff168152602001908152602001600020600085815260200190815260200160002060010181905550600960008c73ffffffffffffffffffffffffffffffffffffffff1673ffffffffffffffffffffffffffffffffffffffff16815260200190815260200160002060008673ffffffffffffffffffffffffffffffffffffffff1673ffffffffffffffffffffffffffffffffffffffff1681526020019081526020016000206001600960008e73ffffffffffffffffffffffffffffffffffffffff1673ffffffffffffffffffffffffffffffffffffffff16815260200190815260200160002060008873ffffffffffffffffffffffffffffffffffffffff1673ffffffffffffffffffffffffffffffffffffffff16815260200190815260200160002080549050611e899190615295565b81548110611e9a57611e9961544e565b5b9060005260206000200154600960008d73ffffffffffffffffffffffffffffffffffffffff1673ffffffffffffffffffffffffffffffffffffffff16815260200190815260200160002060008773ffffffffffffffffffffffffffffffffffffffff1673ffffffffffffffffffffffffffffffffffffffff1681526020019081526020016000208581548110611f3357611f3261544e565b5b9060005260206000200181905550600960008c73ffffffffffffffffffffffffffffffffffffffff1673ffffffffffffffffffffffffffffffffffffffff16815260200190815260200160002060008673ffffffffffffffffffffffffffffffffffffffff1673ffffffffffffffffffffffffffffffffffffffff168152602001908152602001600020805480611fcd57611fcc61547d565b5b600190038181906000526020600020016000905590555050508480611ff1906154ac565b955050611b76565b50600360009054906101000a900473ffffffffffffffffffffffffffffffffffffffff1673ffffffffffffffffffffffffffffffffffffffff168173ffffffffffffffffffffffffffffffffffffffff16141561206357828561205c9190615295565b94506121fb565b6000600260009054906101000a900473ffffffffffffffffffffffffffffffffffffffff1673ffffffffffffffffffffffffffffffffffffffff1663635bc0c283600360009054906101000a900473ffffffffffffffffffffffffffffffffffffffff16876040518463ffffffff1660e01b81526004016120e6939291906153b2565b60206040518083038186803b1580156120fe57600080fd5b505afa158015612112573d6000803e3d6000fd5b505050506040513d601f19601f82011682018060405250810190612136919061550a565b9050600260009054906101000a900473ffffffffffffffffffffffffffffffffffffffff1673ffffffffffffffffffffffffffffffffffffffff1663fe9f5c05600360009054906101000a900473ffffffffffffffffffffffffffffffffffffffff1684846040518463ffffffff1660e01b81526004016121b9939291906153b2565b600060405180830381600087803b1580156121d357600080fd5b505af11580156121e7573d6000803e3d6000fd5b5050505080866121f79190615295565b9550505b6000600460009054906101000a900473ffffffffffffffffffffffffffffffffffffffff1673ffffffffffffffffffffffffffffffffffffffff1663989796b5836040518263ffffffff1660e01b81526004016122589190614dfd565b604080518083038186803b15801561226f57600080fd5b505afa158015612283573d6000803e3d6000fd5b505050506040513d601f19601f820116820180604052508101906122a7919061531c565b5090508173ffffffffffffffffffffffffffffffffffffffff1663a9059cbb82866040518363ffffffff1660e01b81526004016122e5929190615537565b602060405180830381600087803b1580156122ff57600080fd5b505af1158015612313573d6000803e3d6000fd5b505050506040513d601f19601f820116820180604052508101906123379190615421565b508073ffffffffffffffffffffffffffffffffffffffff1663cd682060846040518263ffffffff1660e01b81526004016123719190614d26565b600060405180830381600087803b15801561238b57600080fd5b505af115801561239f573d6000803e3d6000fd5b50505050600760008973ffffffffffffffffffffffffffffffffffffffff1673ffffffffffffffffffffffffffffffffffffffff1681526020019081526020016000206001600760008b73ffffffffffffffffffffffffffffffffffffffff1673ffffffffffffffffffffffffffffffffffffffff168152602001908152602001600020805490506124319190615295565b815481106124425761244161544e565b5b9060005260206000200160009054906101000a900473ffffffffffffffffffffffffffffffffffffffff16600760008a73ffffffffffffffffffffffffffffffffffffffff1673ffffffffffffffffffffffffffffffffffffffff16815260200190815260200160002086815481106124be576124bd61544e565b5b9060005260206000200160006101000a81548173ffffffffffffffffffffffffffffffffffffffff021916908373ffffffffffffffffffffffffffffffffffffffff160217905550600760008973ffffffffffffffffffffffffffffffffffffffff1673ffffffffffffffffffffffffffffffffffffffff1681526020019081526020016000208054806125555761255461547d565b5b6001900381819060005260206000200160006101000a81549073ffffffffffffffffffffffffffffffffffffffff02191690559055505050508080612599906154ac565b915050611aa6565b50600360009054906101000a900473ffffffffffffffffffffffffffffffffffffffff1673ffffffffffffffffffffffffffffffffffffffff1663a9059cbb33836040518363ffffffff1660e01b81526004016125ff929190615537565b602060405180830381600087803b15801561261957600080fd5b505af115801561262d573d6000803e3d6000fd5b505050506040513d601f19601f820116820180604052508101906126519190615421565b50600047905060003373ffffffffffffffffffffffffffffffffffffffff16848361267c9190615295565b60405161268890615591565b60006040518083038185875af1925050503d80600081146126c5576040519150601f19603f3d011682016040523d82523d6000602084013e6126ca565b606091505b505090508061270e576040517f08c379a000000000000000000000000000000000000000000000000000000000815260040161270590615603565b60405180910390fd5b7f2c84ea15e82e281260950b7aac966ce1bffefd1627caf5e54ad38c2bbc5b1324853360405161273f929190615623565b60405180910390a15050505050565b600080600460009054906101000a900473ffffffffffffffffffffffffffffffffffffffff1673ffffffffffffffffffffffffffffffffffffffff1663989796b5856040518263ffffffff1660e01b81526004016127ac9190614dfd565b604080518083038186803b1580156127c357600080fd5b505afa1580156127d7573d6000803e3d6000fd5b505050506040513d601f19601f820116820180604052508101906127fb919061531c565b91509150600073ffffffffffffffffffffffffffffffffffffffff168273ffffffffffffffffffffffffffffffffffffffff161415612866576040517f4ba53a4500000000000000000000000000000000000000000000000000000000815260040160405180910390fd5b6b204fce5e3e250261100000008361287d83614b17565b61288791906151db565b10156128bf576040517f779423de00000000000000000000000000000000000000000000000000000000815260040160405180910390fd5b8373ffffffffffffffffffffffffffffffffffffffff166323b872dd3330866040518463ffffffff1660e01b81526004016128fc939291906153b2565b602060405180830381600087803b15801561291657600080fd5b505af115801561292a573d6000803e3d6000fd5b505050506040513d601f19601f8201168201806040525081019061294e9190615421565b5060011515612a20600660003373ffffffffffffffffffffffffffffffffffffffff1673ffffffffffffffffffffffffffffffffffffffff168152602001908152602001600020805480602002602001604051908101604052809291908181526020018280548015612a1557602002820191906000526020600020905b8160009054906101000a900473ffffffffffffffffffffffffffffffffffffffff1673ffffffffffffffffffffffffffffffffffffffff16815260200190600101908083116129cb575b505050505086614ba7565b15151415612ac957600660003373ffffffffffffffffffffffffffffffffffffffff1673ffffffffffffffffffffffffffffffffffffffff168152602001908152602001600020849080600181540180825580915050600190039060005260206000200160009091909190916101000a81548173ffffffffffffffffffffffffffffffffffffffff021916908373ffffffffffffffffffffffffffffffffffffffff1602179055505b82600560003373ffffffffffffffffffffffffffffffffffffffff1673ffffffffffffffffffffffffffffffffffffffff16815260200190815260200160002060008673ffffffffffffffffffffffffffffffffffffffff1673ffffffffffffffffffffffffffffffffffffffff1681526020019081526020016000206000828254612b55919061535c565b925050819055503373ffffffffffffffffffffffffffffffffffffffff167fb759534d8717c1bc7cde21fa6affd5a9d205d5ab4c3bce20bd815a13976029228585604051612ba4929190615537565b60405180910390a250505050565b600160009054906101000a900473ffffffffffffffffffffffffffffffffffffffff1673ffffffffffffffffffffffffffffffffffffffff163373ffffffffffffffffffffffffffffffffffffffff1614612c39576040517feed3ab2300000000000000000000000000000000000000000000000000000000815260040160405180910390fd5b80600360006101000a81548173ffffffffffffffffffffffffffffffffffffffff021916908373ffffffffffffffffffffffffffffffffffffffff16021790555050565b600081600560003373ffffffffffffffffffffffffffffffffffffffff1673ffffffffffffffffffffffffffffffffffffffff16815260200190815260200160002060008573ffffffffffffffffffffffffffffffffffffffff1673ffffffffffffffffffffffffffffffffffffffff16815260200190815260200160002054612d079190615295565b108015612d5657506000600760003373ffffffffffffffffffffffffffffffffffffffff1673ffffffffffffffffffffffffffffffffffffffff16815260200190815260200160002080549050115b15612d8d576040517f56f37e7800000000000000000000000000000000000000000000000000000000815260040160405180910390fd5b6000600460009054906101000a900473ffffffffffffffffffffffffffffffffffffffff1673ffffffffffffffffffffffffffffffffffffffff1663989796b5846040518263ffffffff1660e01b8152600401612dea9190614dfd565b604080518083038186803b158015612e0157600080fd5b505afa158015612e15573d6000803e3d6000fd5b505050506040513d601f19601f82011682018060405250810190612e39919061531c565b9150506402540be400600560003373ffffffffffffffffffffffffffffffffffffffff1673ffffffffffffffffffffffffffffffffffffffff16815260200190815260200160002060008573ffffffffffffffffffffffffffffffffffffffff1673ffffffffffffffffffffffffffffffffffffffff16815260200190815260200160002054612ec883614b17565b612ed291906151db565b1015612f5857600560003373ffffffffffffffffffffffffffffffffffffffff1673ffffffffffffffffffffffffffffffffffffffff16815260200190815260200160002060008473ffffffffffffffffffffffffffffffffffffffff1673ffffffffffffffffffffffffffffffffffffffff1681526020019081526020016000205491505b81600560003373ffffffffffffffffffffffffffffffffffffffff1673ffffffffffffffffffffffffffffffffffffffff16815260200190815260200160002060008573ffffffffffffffffffffffffffffffffffffffff1673ffffffffffffffffffffffffffffffffffffffff1681526020019081526020016000206000828254612fe49190615295565b925050819055508273ffffffffffffffffffffffffffffffffffffffff1663a9059cbb33846040518363ffffffff1660e01b8152600401613026929190615537565b602060405180830381600087803b15801561304057600080fd5b505af1158015613054573d6000803e3d6000fd5b505050506040513d601f19601f820116820180604052508101906130789190615421565b506000600560003373ffffffffffffffffffffffffffffffffffffffff1673ffffffffffffffffffffffffffffffffffffffff16815260200190815260200160002060008573ffffffffffffffffffffffffffffffffffffffff1673ffffffffffffffffffffffffffffffffffffffff1681526020019081526020016000205414156133f75760005b600660003373ffffffffffffffffffffffffffffffffffffffff1673ffffffffffffffffffffffffffffffffffffffff168152602001908152602001600020805490508110156133f5578373ffffffffffffffffffffffffffffffffffffffff16600660003373ffffffffffffffffffffffffffffffffffffffff1673ffffffffffffffffffffffffffffffffffffffff16815260200190815260200160002082815481106131b3576131b261544e565b5b9060005260206000200160009054906101000a900473ffffffffffffffffffffffffffffffffffffffff1673ffffffffffffffffffffffffffffffffffffffff1614156133e257600660003373ffffffffffffffffffffffffffffffffffffffff1673ffffffffffffffffffffffffffffffffffffffff1681526020019081526020016000206001600660003373ffffffffffffffffffffffffffffffffffffffff1673ffffffffffffffffffffffffffffffffffffffff168152602001908152602001600020805490506132889190615295565b815481106132995761329861544e565b5b9060005260206000200160009054906101000a900473ffffffffffffffffffffffffffffffffffffffff16600660003373ffffffffffffffffffffffffffffffffffffffff1673ffffffffffffffffffffffffffffffffffffffff16815260200190815260200160002082815481106133155761331461544e565b5b9060005260206000200160006101000a81548173ffffffffffffffffffffffffffffffffffffffff021916908373ffffffffffffffffffffffffffffffffffffffff160217905550600660003373ffffffffffffffffffffffffffffffffffffffff1673ffffffffffffffffffffffffffffffffffffffff1681526020019081526020016000208054806133ac576133ab61547d565b5b6001900381819060005260206000200160006101000a81549073ffffffffffffffffffffffffffffffffffffffff021916905590555b80806133ed906154ac565b915050613101565b505b3373ffffffffffffffffffffffffffffffffffffffff167fcfe1e6d30a42cc481f02ea9cce49c86f8ae93242f28b0622f864b30a35bbb2d2848460405161343f929190615537565b60405180910390a2505050565b6000600460009054906101000a900473ffffffffffffffffffffffffffffffffffffffff1673ffffffffffffffffffffffffffffffffffffffff1663989796b5846040518263ffffffff1660e01b81526004016134a99190614dfd565b604080518083038186803b1580156134c057600080fd5b505afa1580156134d4573d6000803e3d6000fd5b505050506040513d601f19601f820116820180604052508101906134f8919061531c565b509050600073ffffffffffffffffffffffffffffffffffffffff168173ffffffffffffffffffffffffffffffffffffffff161415613562576040517f4ba53a4500000000000000000000000000000000000000000000000000000000815260040160405180910390fd5b600054613570338585613c74565b126135a7576040517f6fc3494000000000000000000000000000000000000000000000000000000000815260040160405180910390fd5b8073ffffffffffffffffffffffffffffffffffffffff1663c5ebeaec836040518263ffffffff1660e01b81526004016135e09190614d26565b600060405180830381600087803b1580156135fa57600080fd5b505af115801561360e573d6000803e3d6000fd5b50505050600115156136e3600760003373ffffffffffffffffffffffffffffffffffffffff1673ffffffffffffffffffffffffffffffffffffffff1681526020019081526020016000208054806020026020016040519081016040528092919081815260200182805480156136d857602002820191906000526020600020905b8160009054906101000a900473ffffffffffffffffffffffffffffffffffffffff1673ffffffffffffffffffffffffffffffffffffffff168152602001906001019080831161368e575b505050505085614ba7565b1515141561378c57600760003373ffffffffffffffffffffffffffffffffffffffff1673ffffffffffffffffffffffffffffffffffffffff168152602001908152602001600020839080600181540180825580915050600190039060005260206000200160009091909190916101000a81548173ffffffffffffffffffffffffffffffffffffffff021916908373ffffffffffffffffffffffffffffffffffffffff1602179055505b600960003373ffffffffffffffffffffffffffffffffffffffff1673ffffffffffffffffffffffffffffffffffffffff16815260200190815260200160002060008473ffffffffffffffffffffffffffffffffffffffff1673ffffffffffffffffffffffffffffffffffffffff168152602001908152602001600020600860003373ffffffffffffffffffffffffffffffffffffffff1673ffffffffffffffffffffffffffffffffffffffff16815260200190815260200160002054908060018154018082558091505060019003906000526020600020016000909190919091505560405180608001604052808473ffffffffffffffffffffffffffffffffffffffff1681526020018381526020014281526020018273ffffffffffffffffffffffffffffffffffffffff16636140dfd06040518163ffffffff1660e01b815260040160206040518083038186803b1580156138e757600080fd5b505afa1580156138fb573d6000803e3d6000fd5b505050506040513d601f19601f8201168201806040525081019061391f919061550a565b815250600a60003373ffffffffffffffffffffffffffffffffffffffff1673ffffffffffffffffffffffffffffffffffffffff1681526020019081526020016000206000600860003373ffffffffffffffffffffffffffffffffffffffff1673ffffffffffffffffffffffffffffffffffffffff16815260200190815260200160002054815260200190815260200160002060008201518160000160006101000a81548173ffffffffffffffffffffffffffffffffffffffff021916908373ffffffffffffffffffffffffffffffffffffffff1602179055506020820151816001015560408201518160020155606082015181600301559050508273ffffffffffffffffffffffffffffffffffffffff1663a9059cbb33846040518363ffffffff1660e01b8152600401613a54929190615537565b602060405180830381600087803b158015613a6e57600080fd5b505af1158015613a82573d6000803e3d6000fd5b505050506040513d601f19601f82011682018060405250810190613aa69190615421565b506001600860003373ffffffffffffffffffffffffffffffffffffffff1673ffffffffffffffffffffffffffffffffffffffff1681526020019081526020016000206000828254613af7919061535c565b925050819055503373ffffffffffffffffffffffffffffffffffffffff167fde1ec58d6821a902fd200541e0254901c79b0c05f4a9d50d6dad669c8645805f8484604051613b46929190615537565b60405180910390a2505050565b60076020528160005260406000208181548110613b6f57600080fd5b906000526020600020016000915091509054906101000a900473ffffffffffffffffffffffffffffffffffffffff1681565b6060600760008373ffffffffffffffffffffffffffffffffffffffff1673ffffffffffffffffffffffffffffffffffffffff168152602001908152602001600020805480602002602001604051908101604052809291908181526020018280548015613c6257602002820191906000526020600020905b8160009054906101000a900473ffffffffffffffffffffffffffffffffffffffff1673ffffffffffffffffffffffffffffffffffffffff1681526020019060010190808311613c18575b50505050509050919050565b60005481565b6000806000806000600460009054906101000a900473ffffffffffffffffffffffffffffffffffffffff1673ffffffffffffffffffffffffffffffffffffffff1663989796b5886040518263ffffffff1660e01b8152600401613cd79190614dfd565b604080518083038186803b158015613cee57600080fd5b505afa158015613d02573d6000803e3d6000fd5b505050506040513d601f19601f82011682018060405250810190613d26919061531c565b9150915060008614158015613d685750600073ffffffffffffffffffffffffffffffffffffffff168273ffffffffffffffffffffffffffffffffffffffff1614155b15613d95576000613d7882614b17565b90508681613d86919061564c565b84613d919190615763565b9350505b60005b600660008a73ffffffffffffffffffffffffffffffffffffffff1673ffffffffffffffffffffffffffffffffffffffff16815260200190815260200160002080549050811015613fcf576000600660008b73ffffffffffffffffffffffffffffffffffffffff1673ffffffffffffffffffffffffffffffffffffffff1681526020019081526020016000208281548110613e3557613e3461544e565b5b9060005260206000200160009054906101000a900473ffffffffffffffffffffffffffffffffffffffff1690506000600560008c73ffffffffffffffffffffffffffffffffffffffff1673ffffffffffffffffffffffffffffffffffffffff16815260200190815260200160002060008373ffffffffffffffffffffffffffffffffffffffff1673ffffffffffffffffffffffffffffffffffffffff1681526020019081526020016000205490506000600460009054906101000a900473ffffffffffffffffffffffffffffffffffffffff1673ffffffffffffffffffffffffffffffffffffffff1663989796b5846040518263ffffffff1660e01b8152600401613f409190614dfd565b604080518083038186803b158015613f5757600080fd5b505afa158015613f6b573d6000803e3d6000fd5b505050506040513d601f19601f82011682018060405250810190613f8f919061531c565b9150506000613f9d82614b17565b90508281613fab919061564c565b89613fb69190615763565b9850505050508080613fc7906154ac565b915050613d98565b5060005b600760008a73ffffffffffffffffffffffffffffffffffffffff1673ffffffffffffffffffffffffffffffffffffffff1681526020019081526020016000208054905081101561445a576000600760008b73ffffffffffffffffffffffffffffffffffffffff1673ffffffffffffffffffffffffffffffffffffffff16815260200190815260200160002082815481106140705761406f61544e565b5b9060005260206000200160009054906101000a900473ffffffffffffffffffffffffffffffffffffffff1690506000600960008c73ffffffffffffffffffffffffffffffffffffffff1673ffffffffffffffffffffffffffffffffffffffff16815260200190815260200160002060008373ffffffffffffffffffffffffffffffffffffffff1673ffffffffffffffffffffffffffffffffffffffff168152602001908152602001600020905060005b8180549050811015614444576000600a60003373ffffffffffffffffffffffffffffffffffffffff1673ffffffffffffffffffffffffffffffffffffffff16815260200190815260200160002060008484815481106141825761418161544e565b5b906000526020600020015481526020019081526020016000206002015490506000600a60003373ffffffffffffffffffffffffffffffffffffffff1673ffffffffffffffffffffffffffffffffffffffff16815260200190815260200160002060008585815481106141f7576141f661544e565b5b906000526020600020015481526020019081526020016000206001015490506000600a60003373ffffffffffffffffffffffffffffffffffffffff1673ffffffffffffffffffffffffffffffffffffffff168152602001908152602001600020600086868154811061426c5761426b61544e565b5b9060005260206000200154815260200190815260200160002060000160009054906101000a900473ffffffffffffffffffffffffffffffffffffffff1690506000600a60003373ffffffffffffffffffffffffffffffffffffffff1673ffffffffffffffffffffffffffffffffffffffff16815260200190815260200160002060008787815481106143015761430061544e565b5b90600052602060002001548152602001908152602001600020600301549050600063bbf81e0082868661433491906151db565b61433e91906151db565b6143489190615264565b90506000600460009054906101000a900473ffffffffffffffffffffffffffffffffffffffff1673ffffffffffffffffffffffffffffffffffffffff1663989796b5856040518263ffffffff1660e01b81526004016143a79190614dfd565b604080518083038186803b1580156143be57600080fd5b505afa1580156143d2573d6000803e3d6000fd5b505050506040513d601f19601f820116820180604052508101906143f6919061531c565b915050600061440482614b17565b90508583614412919061535c565b8161441d919061564c565b8e6144289190615763565b9d5050505050505050808061443c906154ac565b915050614120565b5050508080614452906154ac565b915050613fd3565b5083606484614469919061564c565b61447391906157f7565b9450505050509392505050565b600960205282600052604060002060205281600052604060002081815481106144a857600080fd5b9060005260206000200160009250925050505481565b60086020528060005260406000206000915090505481565b60606000805b600760008573ffffffffffffffffffffffffffffffffffffffff1673ffffffffffffffffffffffffffffffffffffffff1681526020019081526020016000208054905081101561464157600960008573ffffffffffffffffffffffffffffffffffffffff1673ffffffffffffffffffffffffffffffffffffffff1681526020019081526020016000206000600760008773ffffffffffffffffffffffffffffffffffffffff1673ffffffffffffffffffffffffffffffffffffffff16815260200190815260200160002083815481106145b8576145b761544e565b5b9060005260206000200160009054906101000a900473ffffffffffffffffffffffffffffffffffffffff1673ffffffffffffffffffffffffffffffffffffffff1673ffffffffffffffffffffffffffffffffffffffff168152602001908152602001600020805490508261462c919061535c565b91508080614639906154ac565b9150506144dc565b5060008167ffffffffffffffff81111561465e5761465d615861565b5b60405190808252806020026020018201604052801561468c5781602001602082028036833780820191505090505b5090506000805b600760008773ffffffffffffffffffffffffffffffffffffffff1673ffffffffffffffffffffffffffffffffffffffff1681526020019081526020016000208054905081101561494a5760005b600960008873ffffffffffffffffffffffffffffffffffffffff1673ffffffffffffffffffffffffffffffffffffffff1681526020019081526020016000206000600760008a73ffffffffffffffffffffffffffffffffffffffff1673ffffffffffffffffffffffffffffffffffffffff16815260200190815260200160002084815481106147725761477161544e565b5b9060005260206000200160009054906101000a900473ffffffffffffffffffffffffffffffffffffffff1673ffffffffffffffffffffffffffffffffffffffff1673ffffffffffffffffffffffffffffffffffffffff1681526020019081526020016000208054905081101561493657600960008873ffffffffffffffffffffffffffffffffffffffff1673ffffffffffffffffffffffffffffffffffffffff1681526020019081526020016000206000600760008a73ffffffffffffffffffffffffffffffffffffffff1673ffffffffffffffffffffffffffffffffffffffff16815260200190815260200160002084815481106148745761487361544e565b5b9060005260206000200160009054906101000a900473ffffffffffffffffffffffffffffffffffffffff1673ffffffffffffffffffffffffffffffffffffffff1673ffffffffffffffffffffffffffffffffffffffff16815260200190815260200160002081815481106148eb576148ea61544e565b5b90600052602060002001548484815181106149095761490861544e565b5b6020026020010181815250508280614920906154ac565b935050808061492e906154ac565b9150506146e0565b508080614942906154ac565b915050614693565b50819350505050919050565b600260009054906101000a900473ffffffffffffffffffffffffffffffffffffffff1681565b6005602052816000526040600020602052806000526040600020600091509150505481565b600460009054906101000a900473ffffffffffffffffffffffffffffffffffffffff1681565b600360009054906101000a900473ffffffffffffffffffffffffffffffffffffffff1681565b600a602052816000526040600020602052806000526040600020600091509150508060000160009054906101000a900473ffffffffffffffffffffffffffffffffffffffff16908060010154908060020154908060030154905084565b6060600660008373ffffffffffffffffffffffffffffffffffffffff1673ffffffffffffffffffffffffffffffffffffffff168152602001908152602001600020805480602002602001604051908101604052809291908181526020018280548015614b0b57602002820191906000526020600020905b8160009054906101000a900473ffffffffffffffffffffffffffffffffffffffff1673ffffffffffffffffffffffffffffffffffffffff1681526020019060010190808311614ac1575b50505050509050919050565b6000808273ffffffffffffffffffffffffffffffffffffffff1663feaf968c6040518163ffffffff1660e01b815260040160a06040518083038186803b158015614b6057600080fd5b505afa158015614b74573d6000803e3d6000fd5b505050506040513d601f19601f82011682018060405250810190614b9891906158fe565b50505091505080915050919050565b6000806001905060005b8451811015614c2057848181518110614bcd57614bcc61544e565b5b602002602001015173ffffffffffffffffffffffffffffffffffffffff168473ffffffffffffffffffffffffffffffffffffffff161415614c0d57600091505b8080614c18906154ac565b915050614bb1565b508091505092915050565b600080fd5b6000819050919050565b614c4381614c30565b8114614c4e57600080fd5b50565b600081359050614c6081614c3a565b92915050565b600073ffffffffffffffffffffffffffffffffffffffff82169050919050565b6000614c9182614c66565b9050919050565b614ca181614c86565b8114614cac57600080fd5b50565b600081359050614cbe81614c98565b92915050565b600080600060608486031215614cdd57614cdc614c2b565b5b6000614ceb86828701614c51565b9350506020614cfc86828701614caf565b9250506040614d0d86828701614c51565b9150509250925092565b614d2081614c30565b82525050565b6000602082019050614d3b6000830184614d17565b92915050565b60008060408385031215614d5857614d57614c2b565b5b6000614d6685828601614c51565b9250506020614d7785828601614c51565b9150509250929050565b600060208284031215614d9757614d96614c2b565b5b6000614da584828501614caf565b91505092915050565b60008060408385031215614dc557614dc4614c2b565b5b6000614dd385828601614caf565b9250506020614de485828601614c51565b9150509250929050565b614df781614c86565b82525050565b6000602082019050614e126000830184614dee565b92915050565b600081519050919050565b600082825260208201905092915050565b6000819050602082019050919050565b614e4d81614c86565b82525050565b6000614e5f8383614e44565b60208301905092915050565b6000602082019050919050565b6000614e8382614e18565b614e8d8185614e23565b9350614e9883614e34565b8060005b83811015614ec9578151614eb08882614e53565b9750614ebb83614e6b565b925050600181019050614e9c565b5085935050505092915050565b60006020820190508181036000830152614ef08184614e78565b905092915050565b6000819050919050565b614f0b81614ef8565b82525050565b6000602082019050614f266000830184614f02565b92915050565b600080600060608486031215614f4557614f44614c2b565b5b6000614f5386828701614caf565b9350506020614f6486828701614caf565b9250506040614f7586828701614c51565b9150509250925092565b600081519050919050565b600082825260208201905092915050565b6000819050602082019050919050565b614fb481614c30565b82525050565b6000614fc68383614fab565b60208301905092915050565b6000602082019050919050565b6000614fea82614f7f565b614ff48185614f8a565b9350614fff83614f9b565b8060005b838110156150305781516150178882614fba565b975061502283614fd2565b925050600181019050615003565b5085935050505092915050565b600060208201905081810360008301526150578184614fdf565b905092915050565b6000819050919050565b600061508461507f61507a84614c66565b61505f565b614c66565b9050919050565b600061509682615069565b9050919050565b60006150a88261508b565b9050919050565b6150b88161509d565b82525050565b60006020820190506150d360008301846150af565b92915050565b600080604083850312156150f0576150ef614c2b565b5b60006150fe85828601614caf565b925050602061510f85828601614caf565b9150509250929050565b600061512482615069565b9050919050565b600061513682615119565b9050919050565b6151468161512b565b82525050565b6000602082019050615161600083018461513d565b92915050565b600060808201905061517c6000830187614dee565b6151896020830186614d17565b6151966040830185614d17565b6151a36060830184614d17565b95945050505050565b7f4e487b7100000000000000000000000000000000000000000000000000000000600052601160045260246000fd5b60006151e682614c30565b91506151f183614c30565b9250817fffffffffffffffffffffffffffffffffffffffffffffffffffffffffffffffff048311821515161561522a576152296151ac565b5b828202905092915050565b7f4e487b7100000000000000000000000000000000000000000000000000000000600052601260045260246000fd5b600061526f82614c30565b915061527a83614c30565b92508261528a57615289615235565b5b828204905092915050565b60006152a082614c30565b91506152ab83614c30565b9250828210156152be576152bd6151ac565b5b828203905092915050565b60006152d482614c86565b9050919050565b6152e4816152c9565b81146152ef57600080fd5b50565b600081519050615301816152db565b92915050565b60008151905061531681614c98565b92915050565b6000806040838503121561533357615332614c2b565b5b6000615341858286016152f2565b925050602061535285828601615307565b9150509250929050565b600061536782614c30565b915061537283614c30565b9250827fffffffffffffffffffffffffffffffffffffffffffffffffffffffffffffffff038211156153a7576153a66151ac565b5b828201905092915050565b60006060820190506153c76000830186614dee565b6153d46020830185614dee565b6153e16040830184614d17565b949350505050565b60008115159050919050565b6153fe816153e9565b811461540957600080fd5b50565b60008151905061541b816153f5565b92915050565b60006020828403121561543757615436614c2b565b5b60006154458482850161540c565b91505092915050565b7f4e487b7100000000000000000000000000000000000000000000000000000000600052603260045260246000fd5b7f4e487b7100000000000000000000000000000000000000000000000000000000600052603160045260246000fd5b60006154b782614c30565b91507fffffffffffffffffffffffffffffffffffffffffffffffffffffffffffffffff8214156154ea576154e96151ac565b5b600182019050919050565b60008151905061550481614c3a565b92915050565b6000602082840312156155205761551f614c2b565b5b600061552e848285016154f5565b91505092915050565b600060408201905061554c6000830185614dee565b6155596020830184614d17565b9392505050565b600081905092915050565b50565b600061557b600083615560565b91506155868261556b565b600082019050919050565b600061559c8261556e565b9150819050919050565b600082825260208201905092915050565b7f4661696c656420746f2073656e64204574686572000000000000000000000000600082015250565b60006155ed6014836155a6565b91506155f8826155b7565b602082019050919050565b6000602082019050818103600083015261561c816155e0565b9050919050565b60006040820190506156386000830185614dee565b6156456020830184614dee565b9392505050565b600061565782614ef8565b915061566283614ef8565b9250827f7fffffffffffffffffffffffffffffffffffffffffffffffffffffffffffffff04821160008413600084131616156156a1576156a06151ac565b5b817f800000000000000000000000000000000000000000000000000000000000000005831260008412600084131616156156de576156dd6151ac565b5b827f8000000000000000000000000000000000000000000000000000000000000000058212600084136000841216161561571b5761571a6151ac565b5b827f7fffffffffffffffffffffffffffffffffffffffffffffffffffffffffffffff0582126000841260008412161615615758576157576151ac565b5b828202905092915050565b600061576e82614ef8565b915061577983614ef8565b9250817f7fffffffffffffffffffffffffffffffffffffffffffffffffffffffffffffff038313600083121516156157b4576157b36151ac565b5b817f80000000000000000000000000000000000000000000000000000000000000000383126000831216156157ec576157eb6151ac565b5b828201905092915050565b600061580282614ef8565b915061580d83614ef8565b92508261581d5761581c615235565b5b600160000383147f800000000000000000000000000000000000000000000000000000000000000083141615615856576158556151ac565b5b828205905092915050565b7f4e487b7100000000000000000000000000000000000000000000000000000000600052604160045260246000fd5b600069ffffffffffffffffffff82169050919050565b6158af81615890565b81146158ba57600080fd5b50565b6000815190506158cc816158a6565b92915050565b6158db81614ef8565b81146158e657600080fd5b50565b6000815190506158f8816158d2565b92915050565b600080600080600060a0868803121561591a57615919614c2b565b5b6000615928888289016158bd565b9550506020615939888289016158e9565b945050604061594a888289016154f5565b935050606061595b888289016154f5565b925050608061596c888289016158bd565b915050929550929590935056fea2646970667358221220812a0f3e6243e0a2cc9f006e7fd63d0b4fc06968f1230e126628004743b0a48d64736f6c63430008090033",
  "devdoc": {
    "details": "Manages lending, borrowing, and collateral operations for a decentralized finance platform. Utilizes external price feeds for valuation and includes functionality for yield farming. This contract is responsible for tracking user interactions with lending pools and their collateralized positions.",
    "kind": "dev",
    "methods": {
      "accruedInterest(uint256,address,uint256)": {
        "details": "Calculates interest based on the borrowing APY and time elapsed since the token was borrowed.",
        "params": {
          "_id": "The unique identifier of the borrow receipt.",
          "_user": "The address of the borrower.",
          "tokenAmount": "The amount of the borrowed token being returned."
        },
        "returns": {
          "_0": "uint256 The accrued interest."
        }
      },
      "addSwapRouter(address)": {
        "details": "Only the owner can call this function.",
        "params": {
          "_swapRouter": "The address of the new SwapRouter contract."
        }
      },
      "addSwapToken(address)": {
        "details": "Only the owner can call this function.",
        "params": {
          "newSwapToken": "The address of the new swap token."
        }
      },
      "borrowToken(address,uint256)": {
        "details": "The function checks for sufficient liquidity and adherence to the loan-to-value (LTV) ratio before permitting the borrow. Updates the user's borrow receipts to keep track of the borrowed amount and terms.",
        "params": {
          "tokenAddress": "The address of the token the user wishes to borrow.",
          "tokenAmount": "The amount of tokens the user wants to borrow."
        }
      },
      "getBorrowedReceipts(address)": {
        "params": {
          "user": "The address of the user."
        },
        "returns": {
          "_0": "uint256[] An array of borrow receipt IDs."
        }
      },
      "getBorrowedTokens(address)": {
        "params": {
          "user": "The address of the user."
        },
        "returns": {
          "_0": "address[] An array of borrowed token addresses."
        }
      },
      "getCollateralTokens(address)": {
        "params": {
          "user": "The address of the user."
        },
        "returns": {
          "_0": "address[] An array of collateral token addresses."
        }
      },
      "liquidityTreshold(address,address,uint256)": {
        "details": "Used to determine if a user's borrowings are within permissible limits. Can also factor in an additional amount being borrowed or provided as collateral.",
        "params": {
          "additionalTokenAddress": "Optionally, the address of a token being considered for borrowing/collateral.",
          "tokenAmount": "Optionally, the amount of the additional token being considered.",
          "user": "The address of the user."
        },
        "returns": {
          "_0": "The LTV ratio as a percentage."
        }
      },
      "returnBorrowedToken(uint256,uint256)": {
        "details": "Calculates interest based on the borrowing APY and time elapsed since the token was borrowed.",
        "params": {
          "id": "The unique identifier of the borrow receipt.",
          "tokenAmount": "The amount of the borrowed token being returned."
        }
      },
      "stakeCollateral(address,uint256)": {
        "details": "Transfers tokens from the user to this contract for collateralization. Updates the collateral tracking mappings.",
        "params": {
          "tokenAddress": "The address of the token being staked as collateral.",
          "tokenAmount": "The amount of the token to stake."
        }
      },
      "terminateCollateral(address)": {
        "details": "Meant to be called by an external mechanism (like a keeper) that monitors LTV ratios.",
        "params": {
          "userAddress": "The address of the user whose collateral is being liquidated."
        }
      },
      "unstakeCollateral(address,uint256)": {
        "details": "Ensures that the withdrawal does not violate the loan-to-value (LTV) requirements.",
        "params": {
          "tokenAddress": "The address of the token to unstake.",
          "tokenAmount": "The amount of the token to unstake."
        }
      }
    },
    "title": "LendingTracker",
    "version": 1
  },
  "userdoc": {
    "kind": "user",
    "methods": {
      "accruedInterest(uint256,address,uint256)": {
        "notice": "Computes the accrued interest on a loan."
      },
      "addSwapRouter(address)": {
        "notice": "Allows the owner to set the SwapRouter contract address."
      },
      "addSwapToken(address)": {
        "notice": "Sets the swap token address for liquidations."
      },
      "borrowToken(address,uint256)": {
        "notice": "Allows a user to borrow tokens from a specific lending pool."
      },
      "getBorrowedReceipts(address)": {
        "notice": "Retrieves an array of borrow receipt IDs for a user."
      },
      "getBorrowedTokens(address)": {
        "notice": "Retrieves an array of token addresses borrowed by a user."
      },
      "getCollateralTokens(address)": {
        "notice": "Retrieves an array of token addresses used as collateral by a user."
      },
      "liquidityTreshold(address,address,uint256)": {
        "notice": "Computes the current loan-to-value (LTV) ratio for a user's borrowed funds against their staked collateral."
      },
      "returnBorrowedToken(uint256,uint256)": {
        "notice": "Allows a user to return borrowed tokens along with any accrued interest."
      },
      "stakeCollateral(address,uint256)": {
        "notice": "Allows users to stake tokens as collateral for borrowing."
      },
      "terminateCollateral(address)": {
        "notice": "Initiates the liquidation of a user's collateral if their LTV ratio exceeds the maximum permitted value, the terminator get the remaining collateral."
      },
      "unstakeCollateral(address,uint256)": {
        "notice": "Permits users to withdraw their staked collateral, provided they have no outstanding loans."
      }
    },
    "version": 1
  },
  "storageLayout": {
    "storage": [
      {
        "astId": 3215,
        "contract": "contracts/Lending/BorrowingTracker.sol:BorrowingTracker",
        "label": "ltv",
        "offset": 0,
        "slot": "0",
        "type": "t_int256"
      },
      {
        "astId": 3217,
        "contract": "contracts/Lending/BorrowingTracker.sol:BorrowingTracker",
        "label": "owner",
        "offset": 0,
        "slot": "1",
        "type": "t_address"
      },
      {
        "astId": 3220,
        "contract": "contracts/Lending/BorrowingTracker.sol:BorrowingTracker",
        "label": "swapRouter",
        "offset": 0,
        "slot": "2",
        "type": "t_contract(SwapRouter)3158"
      },
      {
        "astId": 3222,
        "contract": "contracts/Lending/BorrowingTracker.sol:BorrowingTracker",
        "label": "swapToken",
        "offset": 0,
        "slot": "3",
        "type": "t_address"
      },
      {
        "astId": 3225,
        "contract": "contracts/Lending/BorrowingTracker.sol:BorrowingTracker",
        "label": "lendingTracker",
        "offset": 0,
        "slot": "4",
        "type": "t_contract(LendingTracker)5415"
      },
      {
        "astId": 3268,
        "contract": "contracts/Lending/BorrowingTracker.sol:BorrowingTracker",
        "label": "collateral",
        "offset": 0,
        "slot": "5",
        "type": "t_mapping(t_address,t_mapping(t_address,t_uint256))"
      },
      {
        "astId": 3273,
        "contract": "contracts/Lending/BorrowingTracker.sol:BorrowingTracker",
        "label": "collateralTokens",
        "offset": 0,
        "slot": "6",
        "type": "t_mapping(t_address,t_array(t_address)dyn_storage)"
      },
      {
        "astId": 3278,
        "contract": "contracts/Lending/BorrowingTracker.sol:BorrowingTracker",
        "label": "borrowedTokens",
        "offset": 0,
        "slot": "7",
        "type": "t_mapping(t_address,t_array(t_address)dyn_storage)"
      },
      {
        "astId": 3282,
        "contract": "contracts/Lending/BorrowingTracker.sol:BorrowingTracker",
        "label": "borrowingId",
        "offset": 0,
        "slot": "8",
        "type": "t_mapping(t_address,t_uint256)"
      },
      {
        "astId": 3289,
        "contract": "contracts/Lending/BorrowingTracker.sol:BorrowingTracker",
        "label": "userBorrowReceipts",
        "offset": 0,
        "slot": "9",
        "type": "t_mapping(t_address,t_mapping(t_address,t_array(t_uint256)dyn_storage))"
      },
      {
        "astId": 3296,
        "contract": "contracts/Lending/BorrowingTracker.sol:BorrowingTracker",
        "label": "borrowReceiptData",
        "offset": 0,
        "slot": "10",
        "type": "t_mapping(t_address,t_mapping(t_uint256,t_struct(borrowReceipt)3262_storage))"
      }
    ],
    "types": {
      "t_address": {
        "encoding": "inplace",
        "label": "address",
        "numberOfBytes": "20"
      },
      "t_array(t_address)dyn_storage": {
        "base": "t_address",
        "encoding": "dynamic_array",
        "label": "address[]",
        "numberOfBytes": "32"
      },
      "t_array(t_uint256)dyn_storage": {
        "base": "t_uint256",
        "encoding": "dynamic_array",
        "label": "uint256[]",
        "numberOfBytes": "32"
      },
      "t_contract(LendingTracker)5415": {
        "encoding": "inplace",
        "label": "contract LendingTracker",
        "numberOfBytes": "20"
      },
      "t_contract(SwapRouter)3158": {
        "encoding": "inplace",
        "label": "contract SwapRouter",
        "numberOfBytes": "20"
      },
      "t_int256": {
        "encoding": "inplace",
        "label": "int256",
        "numberOfBytes": "32"
      },
      "t_mapping(t_address,t_array(t_address)dyn_storage)": {
        "encoding": "mapping",
        "key": "t_address",
        "label": "mapping(address => address[])",
        "numberOfBytes": "32",
        "value": "t_array(t_address)dyn_storage"
      },
      "t_mapping(t_address,t_array(t_uint256)dyn_storage)": {
        "encoding": "mapping",
        "key": "t_address",
        "label": "mapping(address => uint256[])",
        "numberOfBytes": "32",
        "value": "t_array(t_uint256)dyn_storage"
      },
      "t_mapping(t_address,t_mapping(t_address,t_array(t_uint256)dyn_storage))": {
        "encoding": "mapping",
        "key": "t_address",
        "label": "mapping(address => mapping(address => uint256[]))",
        "numberOfBytes": "32",
        "value": "t_mapping(t_address,t_array(t_uint256)dyn_storage)"
      },
      "t_mapping(t_address,t_mapping(t_address,t_uint256))": {
        "encoding": "mapping",
        "key": "t_address",
        "label": "mapping(address => mapping(address => uint256))",
        "numberOfBytes": "32",
        "value": "t_mapping(t_address,t_uint256)"
      },
      "t_mapping(t_address,t_mapping(t_uint256,t_struct(borrowReceipt)3262_storage))": {
        "encoding": "mapping",
        "key": "t_address",
        "label": "mapping(address => mapping(uint256 => struct BorrowingTracker.borrowReceipt))",
        "numberOfBytes": "32",
        "value": "t_mapping(t_uint256,t_struct(borrowReceipt)3262_storage)"
      },
      "t_mapping(t_address,t_uint256)": {
        "encoding": "mapping",
        "key": "t_address",
        "label": "mapping(address => uint256)",
        "numberOfBytes": "32",
        "value": "t_uint256"
      },
      "t_mapping(t_uint256,t_struct(borrowReceipt)3262_storage)": {
        "encoding": "mapping",
        "key": "t_uint256",
        "label": "mapping(uint256 => struct BorrowingTracker.borrowReceipt)",
        "numberOfBytes": "32",
        "value": "t_struct(borrowReceipt)3262_storage"
      },
      "t_struct(borrowReceipt)3262_storage": {
        "encoding": "inplace",
        "label": "struct BorrowingTracker.borrowReceipt",
        "members": [
          {
            "astId": 3255,
            "contract": "contracts/Lending/BorrowingTracker.sol:BorrowingTracker",
            "label": "tokenAddress",
            "offset": 0,
            "slot": "0",
            "type": "t_address"
          },
          {
            "astId": 3257,
            "contract": "contracts/Lending/BorrowingTracker.sol:BorrowingTracker",
            "label": "amount",
            "offset": 0,
            "slot": "1",
            "type": "t_uint256"
          },
          {
            "astId": 3259,
            "contract": "contracts/Lending/BorrowingTracker.sol:BorrowingTracker",
            "label": "time",
            "offset": 0,
            "slot": "2",
            "type": "t_uint256"
          },
          {
            "astId": 3261,
            "contract": "contracts/Lending/BorrowingTracker.sol:BorrowingTracker",
            "label": "apy",
            "offset": 0,
            "slot": "3",
            "type": "t_uint256"
          }
        ],
        "numberOfBytes": "128"
      },
      "t_uint256": {
        "encoding": "inplace",
        "label": "uint256",
        "numberOfBytes": "32"
      }
    }
  }
}