{
  "address": "0xe521B7430f161D85Bcd629Fb5Aef377249E042f5",
  "abi": [
    {
      "inputs": [],
      "stateMutability": "nonpayable",
      "type": "constructor"
    },
    {
      "inputs": [],
      "name": "lendingTracker_addressNotAllowed",
      "type": "error"
    },
    {
      "inputs": [],
      "name": "lendingTracker_amountTooHigh",
      "type": "error"
    },
    {
      "inputs": [],
      "name": "lendingTracker_poolExists",
      "type": "error"
    },
    {
      "inputs": [],
      "name": "lendingTracker_poolNotAvailable",
      "type": "error"
    },
    {
      "anonymous": false,
      "inputs": [
        {
          "indexed": false,
          "internalType": "address",
          "name": "user",
          "type": "address"
        },
        {
          "indexed": false,
          "internalType": "address",
          "name": "tokenAddress",
          "type": "address"
        },
        {
          "indexed": false,
          "internalType": "uint256",
          "name": "tokenAmount",
          "type": "uint256"
        }
      ],
      "name": "userFarmedYield",
      "type": "event"
    },
    {
      "anonymous": false,
      "inputs": [
        {
          "indexed": true,
          "internalType": "address",
          "name": "user",
          "type": "address"
        },
        {
          "indexed": false,
          "internalType": "address",
          "name": "tokenAddress",
          "type": "address"
        },
        {
          "indexed": false,
          "internalType": "uint256",
          "name": "tokenAmount",
          "type": "uint256"
        }
      ],
      "name": "userLended",
      "type": "event"
    },
    {
      "anonymous": false,
      "inputs": [
        {
          "indexed": true,
          "internalType": "address",
          "name": "user",
          "type": "address"
        },
        {
          "indexed": false,
          "internalType": "address",
          "name": "tokenAddress",
          "type": "address"
        },
        {
          "indexed": false,
          "internalType": "uint256",
          "name": "tokenAmount",
          "type": "uint256"
        }
      ],
      "name": "userWithdrawnLendedTokens",
      "type": "event"
    },
    {
      "inputs": [
        {
          "internalType": "address",
          "name": "newBorrowingContract",
          "type": "address"
        }
      ],
      "name": "addBorrowingContract",
      "outputs": [],
      "stateMutability": "nonpayable",
      "type": "function"
    },
    {
      "inputs": [
        {
          "internalType": "address",
          "name": "tokenAddress",
          "type": "address"
        },
        {
          "internalType": "address",
          "name": "priceAddress",
          "type": "address"
        }
      ],
      "name": "addTokenPool",
      "outputs": [],
      "stateMutability": "nonpayable",
      "type": "function"
    },
    {
      "inputs": [],
      "name": "allAvailableTokens",
      "outputs": [
        {
          "internalType": "address[]",
          "name": "",
          "type": "address[]"
        }
      ],
      "stateMutability": "view",
      "type": "function"
    },
    {
      "inputs": [
        {
          "internalType": "uint256",
          "name": "",
          "type": "uint256"
        }
      ],
      "name": "availableTokens",
      "outputs": [
        {
          "internalType": "address",
          "name": "",
          "type": "address"
        }
      ],
      "stateMutability": "view",
      "type": "function"
    },
    {
      "inputs": [],
      "name": "borrowingContract",
      "outputs": [
        {
          "internalType": "address",
          "name": "",
          "type": "address"
        }
      ],
      "stateMutability": "view",
      "type": "function"
    },
    {
      "inputs": [
        {
          "internalType": "address",
          "name": "tokenAddress",
          "type": "address"
        },
        {
          "internalType": "uint256",
          "name": "newAPY",
          "type": "uint256"
        }
      ],
      "name": "changeBorrowingAPY",
      "outputs": [],
      "stateMutability": "nonpayable",
      "type": "function"
    },
    {
      "inputs": [
        {
          "internalType": "address",
          "name": "tokenAddress",
          "type": "address"
        },
        {
          "internalType": "address",
          "name": "priceAddress",
          "type": "address"
        }
      ],
      "name": "changePriceFeed",
      "outputs": [],
      "stateMutability": "nonpayable",
      "type": "function"
    },
    {
      "inputs": [
        {
          "internalType": "address",
          "name": "user",
          "type": "address"
        }
      ],
      "name": "getLoanedTokens",
      "outputs": [
        {
          "internalType": "address[]",
          "name": "",
          "type": "address[]"
        }
      ],
      "stateMutability": "view",
      "type": "function"
    },
    {
      "inputs": [
        {
          "internalType": "address",
          "name": "tokenAddress",
          "type": "address"
        }
      ],
      "name": "getYield",
      "outputs": [],
      "stateMutability": "nonpayable",
      "type": "function"
    },
    {
      "inputs": [
        {
          "internalType": "address",
          "name": "tokenAddress",
          "type": "address"
        },
        {
          "internalType": "uint256",
          "name": "tokenAmount",
          "type": "uint256"
        }
      ],
      "name": "lendToken",
      "outputs": [],
      "stateMutability": "nonpayable",
      "type": "function"
    },
    {
      "inputs": [
        {
          "internalType": "address",
          "name": "",
          "type": "address"
        }
      ],
      "name": "tokenToPool",
      "outputs": [
        {
          "internalType": "contract Pool",
          "name": "poolAddress",
          "type": "address"
        },
        {
          "internalType": "address",
          "name": "priceAddress",
          "type": "address"
        }
      ],
      "stateMutability": "view",
      "type": "function"
    },
    {
      "inputs": [
        {
          "internalType": "address",
          "name": "",
          "type": "address"
        },
        {
          "internalType": "address",
          "name": "",
          "type": "address"
        }
      ],
      "name": "userLendedAmount",
      "outputs": [
        {
          "internalType": "uint256",
          "name": "",
          "type": "uint256"
        }
      ],
      "stateMutability": "view",
      "type": "function"
    },
    {
      "inputs": [
        {
          "internalType": "address",
          "name": "",
          "type": "address"
        },
        {
          "internalType": "uint256",
          "name": "",
          "type": "uint256"
        }
      ],
      "name": "userLendedTokens",
      "outputs": [
        {
          "internalType": "address",
          "name": "",
          "type": "address"
        }
      ],
      "stateMutability": "view",
      "type": "function"
    },
    {
      "inputs": [
        {
          "internalType": "address",
          "name": "tokenAddress",
          "type": "address"
        },
        {
          "internalType": "uint256",
          "name": "tokenAmount",
          "type": "uint256"
        }
      ],
      "name": "withdrawLendedToken",
      "outputs": [],
      "stateMutability": "nonpayable",
      "type": "function"
    }
  ],
  "transactionHash": "0xbdad9ea81ef71174a061b33312cf408af28e7fd4c88b938df3f0c30c12d802f6",
  "args": [],
  "numDeployments": 3,
  "solcInputHash": "576e916601715324455336168ac7a37f",
  "bytecode": "0x608060405234801561001057600080fd5b50336000806101000a81548173ffffffffffffffffffffffffffffffffffffffff021916908373ffffffffffffffffffffffffffffffffffffffff1602179055506137b3806100606000396000f3fe60806040523480156200001157600080fd5b5060043610620001005760003560e01c806364c339771162000099578063a0638ddd116200006f578063a0638ddd146200028a578063ad64d06814620002ac578063e1a777a014620002e2578063ff87fe8114620003185762000100565b806364c33977146200021157806384a965ed1462000231578063989796b514620002535762000100565b80633e1a52b411620000db5780633e1a52b4146200017b57806341d12657146200019b57806343b9130314620001d157806359c9851614620001f15762000100565b806302201c7014620001055780632547035514620001255780632921f3921462000145575b600080fd5b6200012360048036038101906200011d919062001c05565b62000338565b005b6200014360048036038101906200013d919062001c87565b6200050d565b005b6200016360048036038101906200015d919062001c05565b62000a9e565b60405162000172919062001cdf565b60405180910390f35b62000199600480360381019062000193919062001c87565b62000ac3565b005b620001b96004803603810190620001b3919062001cfc565b6200120b565b604051620001c8919062001dfc565b60405180910390f35b620001ef6004803603810190620001e9919062001c05565b620012da565b005b6200020f600480360381019062000209919062001c87565b62001603565b005b6200022f600480360381019062000229919062001cfc565b6200175e565b005b6200023b62001914565b6040516200024a919062001e31565b60405180910390f35b6200027160048036038101906200026b919062001cfc565b6200193a565b6040516200028192919062001eb9565b60405180910390f35b620002946200199e565b604051620002a3919062001dfc565b60405180910390f35b620002ca6004803603810190620002c4919062001ee6565b62001a2e565b604051620002d9919062001e31565b60405180910390f35b620003006004803603810190620002fa919062001c87565b62001a6e565b6040516200030f919062001e31565b60405180910390f35b62000336600480360381019062000330919062001cfc565b62001abd565b005b60008054906101000a900473ffffffffffffffffffffffffffffffffffffffff1673ffffffffffffffffffffffffffffffffffffffff163373ffffffffffffffffffffffffffffffffffffffff1614620003be576040517f56f37e7800000000000000000000000000000000000000000000000000000000815260040160405180910390fd5b600073ffffffffffffffffffffffffffffffffffffffff16600260008473ffffffffffffffffffffffffffffffffffffffff1673ffffffffffffffffffffffffffffffffffffffff16815260200190815260200160002060000160009054906101000a900473ffffffffffffffffffffffffffffffffffffffff1673ffffffffffffffffffffffffffffffffffffffff16141562000488576040517f4ba53a4500000000000000000000000000000000000000000000000000000000815260040160405180910390fd5b80600260008473ffffffffffffffffffffffffffffffffffffffff1673ffffffffffffffffffffffffffffffffffffffff16815260200190815260200160002060010160006101000a81548173ffffffffffffffffffffffffffffffffffffffff021916908373ffffffffffffffffffffffffffffffffffffffff1602179055505050565b600073ffffffffffffffffffffffffffffffffffffffff16600260008473ffffffffffffffffffffffffffffffffffffffff1673ffffffffffffffffffffffffffffffffffffffff16815260200190815260200160002060000160009054906101000a900473ffffffffffffffffffffffffffffffffffffffff1673ffffffffffffffffffffffffffffffffffffffff161415620005d7576040517f4ba53a4500000000000000000000000000000000000000000000000000000000815260040160405180910390fd5b8173ffffffffffffffffffffffffffffffffffffffff166323b872dd3330846040518463ffffffff1660e01b8152600401620006169392919062001f18565b602060405180830381600087803b1580156200063157600080fd5b505af115801562000646573d6000803e3d6000fd5b505050506040513d601f19601f820116820180604052508101906200066c919062001f92565b508173ffffffffffffffffffffffffffffffffffffffff1663095ea7b3600260008573ffffffffffffffffffffffffffffffffffffffff1673ffffffffffffffffffffffffffffffffffffffff16815260200190815260200160002060000160009054906101000a900473ffffffffffffffffffffffffffffffffffffffff16836040518363ffffffff1660e01b81526004016200070c92919062001fc4565b602060405180830381600087803b1580156200072757600080fd5b505af11580156200073c573d6000803e3d6000fd5b505050506040513d601f19601f8201168201806040525081019062000762919062001f92565b506001151562000838600560003373ffffffffffffffffffffffffffffffffffffffff1673ffffffffffffffffffffffffffffffffffffffff1681526020019081526020016000208054806020026020016040519081016040528092919081815260200182805480156200082c57602002820191906000526020600020905b8160009054906101000a900473ffffffffffffffffffffffffffffffffffffffff1673ffffffffffffffffffffffffffffffffffffffff1681526020019060010190808311620007e1575b50505050508462001b01565b15151415620008e257600560003373ffffffffffffffffffffffffffffffffffffffff1673ffffffffffffffffffffffffffffffffffffffff168152602001908152602001600020829080600181540180825580915050600190039060005260206000200160009091909190916101000a81548173ffffffffffffffffffffffffffffffffffffffff021916908373ffffffffffffffffffffffffffffffffffffffff1602179055505b80600460003373ffffffffffffffffffffffffffffffffffffffff1673ffffffffffffffffffffffffffffffffffffffff16815260200190815260200160002060008473ffffffffffffffffffffffffffffffffffffffff1673ffffffffffffffffffffffffffffffffffffffff168152602001908152602001600020600082825462000970919062002020565b92505081905550600260008373ffffffffffffffffffffffffffffffffffffffff1673ffffffffffffffffffffffffffffffffffffffff16815260200190815260200160002060000160009054906101000a900473ffffffffffffffffffffffffffffffffffffffff1673ffffffffffffffffffffffffffffffffffffffff1663a6aa57ce826040518263ffffffff1660e01b815260040162000a14919062001cdf565b600060405180830381600087803b15801562000a2f57600080fd5b505af115801562000a44573d6000803e3d6000fd5b505050503373ffffffffffffffffffffffffffffffffffffffff167fbae46e7122b75f20fe8069d88135321512a64b320000386d592d5082c26afb64838360405162000a9292919062001fc4565b60405180910390a25050565b6004602052816000526040600020602052806000526040600020600091509150505481565b600073ffffffffffffffffffffffffffffffffffffffff16600260008473ffffffffffffffffffffffffffffffffffffffff1673ffffffffffffffffffffffffffffffffffffffff16815260200190815260200160002060000160009054906101000a900473ffffffffffffffffffffffffffffffffffffffff1673ffffffffffffffffffffffffffffffffffffffff16141562000b8d576040517f4ba53a4500000000000000000000000000000000000000000000000000000000815260040160405180910390fd5b80600460003373ffffffffffffffffffffffffffffffffffffffff1673ffffffffffffffffffffffffffffffffffffffff16815260200190815260200160002060008473ffffffffffffffffffffffffffffffffffffffff1673ffffffffffffffffffffffffffffffffffffffff16815260200190815260200160002054101562000c44576040517f6fc3494000000000000000000000000000000000000000000000000000000000815260040160405180910390fd5b80600460003373ffffffffffffffffffffffffffffffffffffffff1673ffffffffffffffffffffffffffffffffffffffff16815260200190815260200160002060008473ffffffffffffffffffffffffffffffffffffffff1673ffffffffffffffffffffffffffffffffffffffff168152602001908152602001600020600082825462000cd291906200207d565b92505081905550600260008373ffffffffffffffffffffffffffffffffffffffff1673ffffffffffffffffffffffffffffffffffffffff16815260200190815260200160002060000160009054906101000a900473ffffffffffffffffffffffffffffffffffffffff1673ffffffffffffffffffffffffffffffffffffffff16632e1a7d4d826040518263ffffffff1660e01b815260040162000d76919062001cdf565b600060405180830381600087803b15801562000d9157600080fd5b505af115801562000da6573d6000803e3d6000fd5b505050508173ffffffffffffffffffffffffffffffffffffffff1663a9059cbb33836040518363ffffffff1660e01b815260040162000de792919062001fc4565b602060405180830381600087803b15801562000e0257600080fd5b505af115801562000e17573d6000803e3d6000fd5b505050506040513d601f19601f8201168201806040525081019062000e3d919062001f92565b506000600460003373ffffffffffffffffffffffffffffffffffffffff1673ffffffffffffffffffffffffffffffffffffffff16815260200190815260200160002060008473ffffffffffffffffffffffffffffffffffffffff1673ffffffffffffffffffffffffffffffffffffffff168152602001908152602001600020541415620011b55760005b600560003373ffffffffffffffffffffffffffffffffffffffff1673ffffffffffffffffffffffffffffffffffffffff16815260200190815260200160002080549050811015620011b3578273ffffffffffffffffffffffffffffffffffffffff16600560003373ffffffffffffffffffffffffffffffffffffffff1673ffffffffffffffffffffffffffffffffffffffff168152602001908152602001600020828154811062000f7d5762000f7c620020b8565b5b9060005260206000200160009054906101000a900473ffffffffffffffffffffffffffffffffffffffff1673ffffffffffffffffffffffffffffffffffffffff1614156200119d57600560003373ffffffffffffffffffffffffffffffffffffffff1673ffffffffffffffffffffffffffffffffffffffff1681526020019081526020016000206001600560003373ffffffffffffffffffffffffffffffffffffffff1673ffffffffffffffffffffffffffffffffffffffff168152602001908152602001600020805490506200105591906200207d565b81548110620010695762001068620020b8565b5b9060005260206000200160009054906101000a900473ffffffffffffffffffffffffffffffffffffffff1673ffffffffffffffffffffffffffffffffffffffff16600560003373ffffffffffffffffffffffffffffffffffffffff1673ffffffffffffffffffffffffffffffffffffffff1681526020019081526020016000208281548110620010fe57620010fd620020b8565b5b9060005260206000200160009054906101000a90505050600560003373ffffffffffffffffffffffffffffffffffffffff1673ffffffffffffffffffffffffffffffffffffffff168152602001908152602001600020805480620011675762001166620020e7565b5b6001900381819060005260206000200160006101000a81549073ffffffffffffffffffffffffffffffffffffffff021916905590555b8080620011aa9062002116565b91505062000ec7565b505b3373ffffffffffffffffffffffffffffffffffffffff167f86c5c7a77e073d103cb6d0edf1f3809dbf9b9dfbf09656d8ecc9515a4782e3858383604051620011ff92919062001fc4565b60405180910390a25050565b6060600560008373ffffffffffffffffffffffffffffffffffffffff1673ffffffffffffffffffffffffffffffffffffffff168152602001908152602001600020805480602002602001604051908101604052809291908181526020018280548015620012ce57602002820191906000526020600020905b8160009054906101000a900473ffffffffffffffffffffffffffffffffffffffff1673ffffffffffffffffffffffffffffffffffffffff168152602001906001019080831162001283575b50505050509050919050565b60008054906101000a900473ffffffffffffffffffffffffffffffffffffffff1673ffffffffffffffffffffffffffffffffffffffff163373ffffffffffffffffffffffffffffffffffffffff161462001360576040517f56f37e7800000000000000000000000000000000000000000000000000000000815260040160405180910390fd5b600073ffffffffffffffffffffffffffffffffffffffff16600260008473ffffffffffffffffffffffffffffffffffffffff1673ffffffffffffffffffffffffffffffffffffffff16815260200190815260200160002060000160009054906101000a900473ffffffffffffffffffffffffffffffffffffffff1673ffffffffffffffffffffffffffffffffffffffff161462001429576040517f8324c21500000000000000000000000000000000000000000000000000000000815260040160405180910390fd5b600082600160009054906101000a900473ffffffffffffffffffffffffffffffffffffffff166040516200145d9062001b8d565b6200146a92919062002164565b604051809103906000f08015801562001487573d6000803e3d6000fd5b50905060405180604001604052808273ffffffffffffffffffffffffffffffffffffffff1681526020018373ffffffffffffffffffffffffffffffffffffffff16815250600260008573ffffffffffffffffffffffffffffffffffffffff1673ffffffffffffffffffffffffffffffffffffffff16815260200190815260200160002060008201518160000160006101000a81548173ffffffffffffffffffffffffffffffffffffffff021916908373ffffffffffffffffffffffffffffffffffffffff16021790555060208201518160010160006101000a81548173ffffffffffffffffffffffffffffffffffffffff021916908373ffffffffffffffffffffffffffffffffffffffff1602179055509050506003839080600181540180825580915050600190039060005260206000200160009091909190916101000a81548173ffffffffffffffffffffffffffffffffffffffff021916908373ffffffffffffffffffffffffffffffffffffffff160217905550505050565b60008054906101000a900473ffffffffffffffffffffffffffffffffffffffff1673ffffffffffffffffffffffffffffffffffffffff163373ffffffffffffffffffffffffffffffffffffffff161462001689576040517f56f37e7800000000000000000000000000000000000000000000000000000000815260040160405180910390fd5b600260008373ffffffffffffffffffffffffffffffffffffffff1673ffffffffffffffffffffffffffffffffffffffff16815260200190815260200160002060000160009054906101000a900473ffffffffffffffffffffffffffffffffffffffff1673ffffffffffffffffffffffffffffffffffffffff16639770b125826040518263ffffffff1660e01b815260040162001726919062001cdf565b600060405180830381600087803b1580156200174157600080fd5b505af115801562001756573d6000803e3d6000fd5b505050505050565b6000600260008373ffffffffffffffffffffffffffffffffffffffff1673ffffffffffffffffffffffffffffffffffffffff16815260200190815260200160002060000160009054906101000a900473ffffffffffffffffffffffffffffffffffffffff1673ffffffffffffffffffffffffffffffffffffffff1663f88cc4a233600460003373ffffffffffffffffffffffffffffffffffffffff1673ffffffffffffffffffffffffffffffffffffffff16815260200190815260200160002060008673ffffffffffffffffffffffffffffffffffffffff1673ffffffffffffffffffffffffffffffffffffffff168152602001908152602001600020546040518363ffffffff1660e01b81526004016200187b92919062001fc4565b602060405180830381600087803b1580156200189657600080fd5b505af1158015620018ab573d6000803e3d6000fd5b505050506040513d601f19601f82011682018060405250810190620018d19190620021a8565b90507fb24f6706501e087731866f09ba73332b50d43f9f408403653052ab002c45612a338383604051620019089392919062001f18565b60405180910390a15050565b600160009054906101000a900473ffffffffffffffffffffffffffffffffffffffff1681565b60026020528060005260406000206000915090508060000160009054906101000a900473ffffffffffffffffffffffffffffffffffffffff16908060010160009054906101000a900473ffffffffffffffffffffffffffffffffffffffff16905082565b6060600380548060200260200160405190810160405280929190818152602001828054801562001a2457602002820191906000526020600020905b8160009054906101000a900473ffffffffffffffffffffffffffffffffffffffff1673ffffffffffffffffffffffffffffffffffffffff1681526020019060010190808311620019d9575b5050505050905090565b6003818154811062001a3f57600080fd5b906000526020600020016000915054906101000a900473ffffffffffffffffffffffffffffffffffffffff1681565b6005602052816000526040600020818154811062001a8b57600080fd5b906000526020600020016000915091509054906101000a900473ffffffffffffffffffffffffffffffffffffffff1681565b80600160006101000a81548173ffffffffffffffffffffffffffffffffffffffff021916908373ffffffffffffffffffffffffffffffffffffffff16021790555050565b6000806001905060005b845181101562001b825784818151811062001b2b5762001b2a620020b8565b5b602002602001015173ffffffffffffffffffffffffffffffffffffffff168473ffffffffffffffffffffffffffffffffffffffff16141562001b6c57600091505b808062001b799062002116565b91505062001b0b565b508091505092915050565b6115a380620021db83390190565b600080fd5b600073ffffffffffffffffffffffffffffffffffffffff82169050919050565b600062001bcd8262001ba0565b9050919050565b62001bdf8162001bc0565b811462001beb57600080fd5b50565b60008135905062001bff8162001bd4565b92915050565b6000806040838503121562001c1f5762001c1e62001b9b565b5b600062001c2f8582860162001bee565b925050602062001c428582860162001bee565b9150509250929050565b6000819050919050565b62001c618162001c4c565b811462001c6d57600080fd5b50565b60008135905062001c818162001c56565b92915050565b6000806040838503121562001ca15762001ca062001b9b565b5b600062001cb18582860162001bee565b925050602062001cc48582860162001c70565b9150509250929050565b62001cd98162001c4c565b82525050565b600060208201905062001cf6600083018462001cce565b92915050565b60006020828403121562001d155762001d1462001b9b565b5b600062001d258482850162001bee565b91505092915050565b600081519050919050565b600082825260208201905092915050565b6000819050602082019050919050565b62001d658162001bc0565b82525050565b600062001d79838362001d5a565b60208301905092915050565b6000602082019050919050565b600062001d9f8262001d2e565b62001dab818562001d39565b935062001db88362001d4a565b8060005b8381101562001def57815162001dd3888262001d6b565b975062001de08362001d85565b92505060018101905062001dbc565b5085935050505092915050565b6000602082019050818103600083015262001e18818462001d92565b905092915050565b62001e2b8162001bc0565b82525050565b600060208201905062001e48600083018462001e20565b92915050565b6000819050919050565b600062001e7962001e7362001e6d8462001ba0565b62001e4e565b62001ba0565b9050919050565b600062001e8d8262001e58565b9050919050565b600062001ea18262001e80565b9050919050565b62001eb38162001e94565b82525050565b600060408201905062001ed0600083018562001ea8565b62001edf602083018462001e20565b9392505050565b60006020828403121562001eff5762001efe62001b9b565b5b600062001f0f8482850162001c70565b91505092915050565b600060608201905062001f2f600083018662001e20565b62001f3e602083018562001e20565b62001f4d604083018462001cce565b949350505050565b60008115159050919050565b62001f6c8162001f55565b811462001f7857600080fd5b50565b60008151905062001f8c8162001f61565b92915050565b60006020828403121562001fab5762001faa62001b9b565b5b600062001fbb8482850162001f7b565b91505092915050565b600060408201905062001fdb600083018562001e20565b62001fea602083018462001cce565b9392505050565b7f4e487b7100000000000000000000000000000000000000000000000000000000600052601160045260246000fd5b60006200202d8262001c4c565b91506200203a8362001c4c565b9250827fffffffffffffffffffffffffffffffffffffffffffffffffffffffffffffffff0382111562002072576200207162001ff1565b5b828201905092915050565b60006200208a8262001c4c565b9150620020978362001c4c565b925082821015620020ad57620020ac62001ff1565b5b828203905092915050565b7f4e487b7100000000000000000000000000000000000000000000000000000000600052603260045260246000fd5b7f4e487b7100000000000000000000000000000000000000000000000000000000600052603160045260246000fd5b6000620021238262001c4c565b91507fffffffffffffffffffffffffffffffffffffffffffffffffffffffffffffffff82141562002159576200215862001ff1565b5b600182019050919050565b60006040820190506200217b600083018562001e20565b6200218a602083018462001e20565b9392505050565b600081519050620021a28162001c56565b92915050565b600060208284031215620021c157620021c062001b9b565b5b6000620021d18482850162002191565b9150509291505056fe60806040523480156200001157600080fd5b50604051620015a3380380620015a383398181016040528101906200003791906200016b565b80600260006101000a81548173ffffffffffffffffffffffffffffffffffffffff021916908373ffffffffffffffffffffffffffffffffffffffff160217905550816000806101000a81548173ffffffffffffffffffffffffffffffffffffffff021916908373ffffffffffffffffffffffffffffffffffffffff16021790555033600160006101000a81548173ffffffffffffffffffffffffffffffffffffffff021916908373ffffffffffffffffffffffffffffffffffffffff1602179055505050620001b2565b600080fd5b600073ffffffffffffffffffffffffffffffffffffffff82169050919050565b6000620001338262000106565b9050919050565b620001458162000126565b81146200015157600080fd5b50565b60008151905062000165816200013a565b92915050565b6000806040838503121562000185576200018462000101565b5b6000620001958582860162000154565b9250506020620001a88582860162000154565b9150509250929050565b6113e180620001c26000396000f3fe608060405234801561001057600080fd5b50600436106101005760003560e01c8063a6aa57ce11610097578063ed433abc11610066578063ed433abc14610275578063f88cc4a214610293578063fc0c546a146102c3578063ffebfc8c146102e157610100565b8063a6aa57ce14610203578063c5ebeaec1461021f578063cd3293de1461023b578063cd6820601461025957610100565b806384a965ed116100d357806384a965ed1461017b5780639770b125146101995780639a61c36a146101b5578063a2b2c32a146101e557610100565b806328593984146101055780632e1a7d4d146101235780636140dfd01461013f5780637f74ac151461015d575b600080fd5b61010d610311565b60405161011a9190610f8b565b60405180910390f35b61013d60048036038101906101389190610fd7565b610317565b005b61014761050c565b6040516101549190610f8b565b60405180910390f35b610165610512565b6040516101729190611045565b60405180910390f35b610183610538565b6040516101909190611045565b60405180910390f35b6101b360048036038101906101ae9190610fd7565b61055e565b005b6101cf60048036038101906101ca919061108c565b61064b565b6040516101dc9190610f8b565b60405180910390f35b6101ed610663565b6040516101fa9190610f8b565b60405180910390f35b61021d60048036038101906102189190610fd7565b610669565b005b61023960048036038101906102349190610fd7565b610818565b005b6102436109f4565b6040516102509190610f8b565b60405180910390f35b610273600480360381019061026e9190610fd7565b6109fa565b005b61027d610af9565b60405161028a9190610f8b565b60405180910390f35b6102ad60048036038101906102a891906110b9565b610aff565b6040516102ba9190610f8b565b60405180910390f35b6102cb610e85565b6040516102d89190611158565b60405180910390f35b6102fb60048036038101906102f6919061108c565b610ea9565b6040516103089190610f8b565b60405180910390f35b60065481565b600160009054906101000a900473ffffffffffffffffffffffffffffffffffffffff1673ffffffffffffffffffffffffffffffffffffffff163373ffffffffffffffffffffffffffffffffffffffff16141580156103c35750600260009054906101000a900473ffffffffffffffffffffffffffffffffffffffff1673ffffffffffffffffffffffffffffffffffffffff163373ffffffffffffffffffffffffffffffffffffffff1614155b156103fa576040517feed3ab2300000000000000000000000000000000000000000000000000000000815260040160405180910390fd5b60008160045461040a91906111a2565b1015610442576040517f5a6c8ab300000000000000000000000000000000000000000000000000000000815260040160405180910390fd5b60008054906101000a900473ffffffffffffffffffffffffffffffffffffffff1673ffffffffffffffffffffffffffffffffffffffff1663a9059cbb33836040518363ffffffff1660e01b815260040161049d9291906111d6565b602060405180830381600087803b1580156104b757600080fd5b505af11580156104cb573d6000803e3d6000fd5b505050506040513d601f19601f820116820180604052508101906104ef9190611237565b50806004600082825461050291906111a2565b9250508190555050565b60055481565b600160009054906101000a900473ffffffffffffffffffffffffffffffffffffffff1681565b600260009054906101000a900473ffffffffffffffffffffffffffffffffffffffff1681565b600160009054906101000a900473ffffffffffffffffffffffffffffffffffffffff1673ffffffffffffffffffffffffffffffffffffffff163373ffffffffffffffffffffffffffffffffffffffff161415801561060a5750600260009054906101000a900473ffffffffffffffffffffffffffffffffffffffff1673ffffffffffffffffffffffffffffffffffffffff163373ffffffffffffffffffffffffffffffffffffffff1614155b15610641576040517feed3ab2300000000000000000000000000000000000000000000000000000000815260040160405180910390fd5b8060058190555050565b60096020528060005260406000206000915090505481565b60035481565b600160009054906101000a900473ffffffffffffffffffffffffffffffffffffffff1673ffffffffffffffffffffffffffffffffffffffff163373ffffffffffffffffffffffffffffffffffffffff16141580156107155750600260009054906101000a900473ffffffffffffffffffffffffffffffffffffffff1673ffffffffffffffffffffffffffffffffffffffff163373ffffffffffffffffffffffffffffffffffffffff1614155b1561074c576040517feed3ab2300000000000000000000000000000000000000000000000000000000815260040160405180910390fd5b60008054906101000a900473ffffffffffffffffffffffffffffffffffffffff1673ffffffffffffffffffffffffffffffffffffffff166323b872dd3330846040518463ffffffff1660e01b81526004016107a993929190611264565b602060405180830381600087803b1580156107c357600080fd5b505af11580156107d7573d6000803e3d6000fd5b505050506040513d601f19601f820116820180604052508101906107fb9190611237565b50806004600082825461080e919061129b565b9250508190555050565b600160009054906101000a900473ffffffffffffffffffffffffffffffffffffffff1673ffffffffffffffffffffffffffffffffffffffff163373ffffffffffffffffffffffffffffffffffffffff16141580156108c45750600260009054906101000a900473ffffffffffffffffffffffffffffffffffffffff1673ffffffffffffffffffffffffffffffffffffffff163373ffffffffffffffffffffffffffffffffffffffff1614155b156108fb576040517feed3ab2300000000000000000000000000000000000000000000000000000000815260040160405180910390fd5b60008160045461090b91906111a2565b1015610943576040517f810ffca300000000000000000000000000000000000000000000000000000000815260040160405180910390fd5b60008054906101000a900473ffffffffffffffffffffffffffffffffffffffff1673ffffffffffffffffffffffffffffffffffffffff1663a9059cbb33836040518363ffffffff1660e01b815260040161099e9291906111d6565b602060405180830381600087803b1580156109b857600080fd5b505af11580156109cc573d6000803e3d6000fd5b505050506040513d601f19601f820116820180604052508101906109f09190611237565b5050565b60045481565b600160009054906101000a900473ffffffffffffffffffffffffffffffffffffffff1673ffffffffffffffffffffffffffffffffffffffff163373ffffffffffffffffffffffffffffffffffffffff1614158015610aa65750600260009054906101000a900473ffffffffffffffffffffffffffffffffffffffff1673ffffffffffffffffffffffffffffffffffffffff163373ffffffffffffffffffffffffffffffffffffffff1614155b15610add576040517feed3ab2300000000000000000000000000000000000000000000000000000000815260040160405180910390fd5b8060066000828254610aef919061129b565b9250508190555050565b60075481565b6000600160009054906101000a900473ffffffffffffffffffffffffffffffffffffffff1673ffffffffffffffffffffffffffffffffffffffff163373ffffffffffffffffffffffffffffffffffffffff1614158015610bad5750600260009054906101000a900473ffffffffffffffffffffffffffffffffffffffff1673ffffffffffffffffffffffffffffffffffffffff163373ffffffffffffffffffffffffffffffffffffffff1614155b15610be4576040517feed3ab2300000000000000000000000000000000000000000000000000000000815260040160405180910390fd5b60001515610bf184610ec1565b15151415610c2b576040517f1fa8d33700000000000000000000000000000000000000000000000000000000815260040160405180910390fd5b42600860008573ffffffffffffffffffffffffffffffffffffffff1673ffffffffffffffffffffffffffffffffffffffff168152602001908152602001600020819055506000600960008573ffffffffffffffffffffffffffffffffffffffff1673ffffffffffffffffffffffffffffffffffffffff1681526020019081526020016000205490506000600354606485610cc591906112f1565b610ccf919061137a565b9050600060648283606486610ce491906112f1565b610cee919061137a565b600654610cfb91906111a2565b610d0591906112f1565b610d0f919061137a565b9050600754600654610d2191906111a2565b811115610d5a576040517f1fa8d33700000000000000000000000000000000000000000000000000000000815260040160405180910390fd5b80600960003373ffffffffffffffffffffffffffffffffffffffff1673ffffffffffffffffffffffffffffffffffffffff1681526020019081526020016000206000828254610da9919061129b565b925050819055508060076000828254610dc2919061129b565b9250508190555060008054906101000a900473ffffffffffffffffffffffffffffffffffffffff1673ffffffffffffffffffffffffffffffffffffffff1663a9059cbb876006546040518363ffffffff1660e01b8152600401610e269291906111d6565b602060405180830381600087803b158015610e4057600080fd5b505af1158015610e54573d6000803e3d6000fd5b505050506040513d601f19601f82011682018060405250810190610e789190611237565b5080935050505092915050565b60008054906101000a900473ffffffffffffffffffffffffffffffffffffffff1681565b60086020528060005260406000206000915090505481565b6000600860008373ffffffffffffffffffffffffffffffffffffffff1673ffffffffffffffffffffffffffffffffffffffff1681526020019081526020016000205060004290508062015180600860008673ffffffffffffffffffffffffffffffffffffffff1673ffffffffffffffffffffffffffffffffffffffff16815260200190815260200160002054610f57919061129b565b1015610f67576001915050610f6d565b60009150505b919050565b6000819050919050565b610f8581610f72565b82525050565b6000602082019050610fa06000830184610f7c565b92915050565b600080fd5b610fb481610f72565b8114610fbf57600080fd5b50565b600081359050610fd181610fab565b92915050565b600060208284031215610fed57610fec610fa6565b5b6000610ffb84828501610fc2565b91505092915050565b600073ffffffffffffffffffffffffffffffffffffffff82169050919050565b600061102f82611004565b9050919050565b61103f81611024565b82525050565b600060208201905061105a6000830184611036565b92915050565b61106981611024565b811461107457600080fd5b50565b60008135905061108681611060565b92915050565b6000602082840312156110a2576110a1610fa6565b5b60006110b084828501611077565b91505092915050565b600080604083850312156110d0576110cf610fa6565b5b60006110de85828601611077565b92505060206110ef85828601610fc2565b9150509250929050565b6000819050919050565b600061111e61111961111484611004565b6110f9565b611004565b9050919050565b600061113082611103565b9050919050565b600061114282611125565b9050919050565b61115281611137565b82525050565b600060208201905061116d6000830184611149565b92915050565b7f4e487b7100000000000000000000000000000000000000000000000000000000600052601160045260246000fd5b60006111ad82610f72565b91506111b883610f72565b9250828210156111cb576111ca611173565b5b828203905092915050565b60006040820190506111eb6000830185611036565b6111f86020830184610f7c565b9392505050565b60008115159050919050565b611214816111ff565b811461121f57600080fd5b50565b6000815190506112318161120b565b92915050565b60006020828403121561124d5761124c610fa6565b5b600061125b84828501611222565b91505092915050565b60006060820190506112796000830186611036565b6112866020830185611036565b6112936040830184610f7c565b949350505050565b60006112a682610f72565b91506112b183610f72565b9250827fffffffffffffffffffffffffffffffffffffffffffffffffffffffffffffffff038211156112e6576112e5611173565b5b828201905092915050565b60006112fc82610f72565b915061130783610f72565b9250817fffffffffffffffffffffffffffffffffffffffffffffffffffffffffffffffff04831182151516156113405761133f611173565b5b828202905092915050565b7f4e487b7100000000000000000000000000000000000000000000000000000000600052601260045260246000fd5b600061138582610f72565b915061139083610f72565b9250826113a05761139f61134b565b5b82820490509291505056fea264697066735822122070816982cf46c98d5d6b509116dbd91734dd3741035358c4ede140a9d61d5b5564736f6c63430008090033a2646970667358221220f2357b87bd3d67e71bb672fbc2c6abfe24a07ed7cb78112ee2186a1c9c2d3adc64736f6c63430008090033",
  "devdoc": {
    "details": "Manages lending, borrowing, and collateral operations for a decentralized finance platform. Utilizes external price feeds for valuation and includes functionality for yield farming. This contract is responsible for tracking user interactions with lending pools and their collateralized positions.",
    "kind": "dev",
    "methods": {
      "addBorrowingContract(address)": {
        "details": "Allows the owner to define the contract responsible for borrowing functionality.",
        "params": {
          "newBorrowingContract": "The address of the new borrowing contract."
        }
      },
      "addTokenPool(address,address)": {
        "details": "Deploys a new Lending contract for the token and registers it along with its price feed.",
        "params": {
          "priceAddress": "Address of the Chainlink price feed for the token.",
          "tokenAddress": "Address of the token for the new lending pool."
        }
      },
      "allAvailableTokens()": {
        "details": "Provides a list of token addresses that users can interact with within the lending platform.",
        "returns": {
          "_0": "An array containing the addresses of all available tokens."
        }
      },
      "changeBorrowingAPY(address,uint256)": {
        "params": {
          "newAPY": "The new annual percentage yield for borrowing.",
          "tokenAddress": "Address of the token whose lending pool APY is to be changed."
        }
      },
      "changePriceFeed(address,address)": {
        "details": "Allows the contract owner to update the price feed address in case of changes or migration.",
        "params": {
          "priceAddress": "New address of the Chainlink price feed.",
          "tokenAddress": "Address of the token whose price feed is being updated."
        }
      },
      "getLoanedTokens(address)": {
        "details": "Provides insight into the tokens a specific user has contributed for lending.",
        "params": {
          "user": "The address of the user whose lent tokens are being queried."
        },
        "returns": {
          "_0": "An array containing the addresses of tokens lent by the user."
        }
      },
      "getYield(address)": {
        "details": "Calculates the yield based on the amount lent and the time passed, then transfers the yield to the user.",
        "params": {
          "tokenAddress": "The address of the token for which yield is being claimed."
        }
      },
      "lendToken(address,uint256)": {
        "details": "Transfers tokens from the user to the lending pool contract and updates the tracking of lent amounts. Requires token approval from the user to the LendingTracker contract.",
        "params": {
          "tokenAddress": "The address of the token being lent.",
          "tokenAmount": "The amount of tokens the user is lending."
        }
      },
      "withdrawLendedToken(address,uint256)": {
        "details": "Ensures the user cannot withdraw more than they have lent. Adjusts the user's lent amount record accordingly.",
        "params": {
          "tokenAddress": "The address of the token to withdraw from the lending pool.",
          "tokenAmount": "The amount of tokens to withdraw."
        }
      }
    },
    "title": "LendingTracker",
    "version": 1
  },
  "userdoc": {
    "kind": "user",
    "methods": {
      "addBorrowingContract(address)": {
        "notice": "Sets the address of the borrowing contract."
      },
      "addTokenPool(address,address)": {
        "notice": "Adds a new token pool for lending and borrowing."
      },
      "allAvailableTokens()": {
        "notice": "Retrieves an array of all available tokens for lending and borrowing."
      },
      "changeBorrowingAPY(address,uint256)": {
        "notice": "Updates the borrowing APY for a specified token pool."
      },
      "changePriceFeed(address,address)": {
        "notice": "Changes the price feed for a given token."
      },
      "getLoanedTokens(address)": {
        "notice": "Retrieves an array of tokens that a user has lent to the lending pools."
      },
      "getYield(address)": {
        "notice": "Claims yield for the user based on the tokens they have lent to the pool."
      },
      "lendToken(address,uint256)": {
        "notice": "Enables a user to lend tokens to a specific pool."
      },
      "withdrawLendedToken(address,uint256)": {
        "notice": "Withdraws tokens previously lent to the lending pool by the user."
      }
    },
    "version": 1
  },
  "storageLayout": {
    "storage": [
      {
        "astId": 4937,
        "contract": "contracts/Lending/LendingTracker.sol:LendingTracker",
        "label": "owner",
        "offset": 0,
        "slot": "0",
        "type": "t_address"
      },
      {
        "astId": 4939,
        "contract": "contracts/Lending/LendingTracker.sol:LendingTracker",
        "label": "borrowingContract",
        "offset": 0,
        "slot": "1",
        "type": "t_address"
      },
      {
        "astId": 4968,
        "contract": "contracts/Lending/LendingTracker.sol:LendingTracker",
        "label": "tokenToPool",
        "offset": 0,
        "slot": "2",
        "type": "t_mapping(t_address,t_struct(tokenPool)4954_storage)"
      },
      {
        "astId": 4971,
        "contract": "contracts/Lending/LendingTracker.sol:LendingTracker",
        "label": "availableTokens",
        "offset": 0,
        "slot": "3",
        "type": "t_array(t_address)dyn_storage"
      },
      {
        "astId": 4977,
        "contract": "contracts/Lending/LendingTracker.sol:LendingTracker",
        "label": "userLendedAmount",
        "offset": 0,
        "slot": "4",
        "type": "t_mapping(t_address,t_mapping(t_address,t_uint256))"
      },
      {
        "astId": 4982,
        "contract": "contracts/Lending/LendingTracker.sol:LendingTracker",
        "label": "userLendedTokens",
        "offset": 0,
        "slot": "5",
        "type": "t_mapping(t_address,t_array(t_address)dyn_storage)"
      }
    ],
    "types": {
      "t_address": {
        "encoding": "inplace",
        "label": "address",
        "numberOfBytes": "20"
      },
      "t_array(t_address)dyn_storage": {
        "base": "t_address",
        "encoding": "dynamic_array",
        "label": "address[]",
        "numberOfBytes": "32"
      },
      "t_contract(Pool)5763": {
        "encoding": "inplace",
        "label": "contract Pool",
        "numberOfBytes": "20"
      },
      "t_mapping(t_address,t_array(t_address)dyn_storage)": {
        "encoding": "mapping",
        "key": "t_address",
        "label": "mapping(address => address[])",
        "numberOfBytes": "32",
        "value": "t_array(t_address)dyn_storage"
      },
      "t_mapping(t_address,t_mapping(t_address,t_uint256))": {
        "encoding": "mapping",
        "key": "t_address",
        "label": "mapping(address => mapping(address => uint256))",
        "numberOfBytes": "32",
        "value": "t_mapping(t_address,t_uint256)"
      },
      "t_mapping(t_address,t_struct(tokenPool)4954_storage)": {
        "encoding": "mapping",
        "key": "t_address",
        "label": "mapping(address => struct LendingTracker.tokenPool)",
        "numberOfBytes": "32",
        "value": "t_struct(tokenPool)4954_storage"
      },
      "t_mapping(t_address,t_uint256)": {
        "encoding": "mapping",
        "key": "t_address",
        "label": "mapping(address => uint256)",
        "numberOfBytes": "32",
        "value": "t_uint256"
      },
      "t_struct(tokenPool)4954_storage": {
        "encoding": "inplace",
        "label": "struct LendingTracker.tokenPool",
        "members": [
          {
            "astId": 4951,
            "contract": "contracts/Lending/LendingTracker.sol:LendingTracker",
            "label": "poolAddress",
            "offset": 0,
            "slot": "0",
            "type": "t_contract(Pool)5763"
          },
          {
            "astId": 4953,
            "contract": "contracts/Lending/LendingTracker.sol:LendingTracker",
            "label": "priceAddress",
            "offset": 0,
            "slot": "1",
            "type": "t_address"
          }
        ],
        "numberOfBytes": "64"
      },
      "t_uint256": {
        "encoding": "inplace",
        "label": "uint256",
        "numberOfBytes": "32"
      }
    }
  }
}