{
  "address": "0xCFa1b4381C4C62cf4B92e955dB1AEDA04bf55F81",
  "abi": [
    {
      "inputs": [
        {
          "internalType": "address",
          "name": "_poolTracker",
          "type": "address"
        },
        {
          "internalType": "address",
          "name": "_ethPriceFeed",
          "type": "address"
        }
      ],
      "stateMutability": "nonpayable",
      "type": "constructor"
    },
    {
      "inputs": [
        {
          "internalType": "address",
          "name": "tokenAddress",
          "type": "address"
        },
        {
          "internalType": "address",
          "name": "tokenAddress2",
          "type": "address"
        }
      ],
      "name": "dailyRate",
      "outputs": [
        {
          "internalType": "uint256",
          "name": "",
          "type": "uint256"
        }
      ],
      "stateMutability": "view",
      "type": "function"
    },
    {
      "inputs": [
        {
          "internalType": "address",
          "name": "tokenAddress",
          "type": "address"
        },
        {
          "internalType": "address",
          "name": "tokenAddress2",
          "type": "address"
        }
      ],
      "name": "dailyRoi",
      "outputs": [
        {
          "internalType": "uint256",
          "name": "",
          "type": "uint256"
        }
      ],
      "stateMutability": "view",
      "type": "function"
    },
    {
      "inputs": [],
      "name": "ethPriceFeed",
      "outputs": [
        {
          "internalType": "address",
          "name": "",
          "type": "address"
        }
      ],
      "stateMutability": "view",
      "type": "function"
    },
    {
      "inputs": [
        {
          "internalType": "address",
          "name": "tokenAddress",
          "type": "address"
        }
      ],
      "name": "marketCap",
      "outputs": [
        {
          "internalType": "uint256",
          "name": "",
          "type": "uint256"
        }
      ],
      "stateMutability": "view",
      "type": "function"
    },
    {
      "inputs": [
        {
          "internalType": "address",
          "name": "tokenAddress",
          "type": "address"
        },
        {
          "internalType": "address",
          "name": "tokenAddress2",
          "type": "address"
        }
      ],
      "name": "pairMarketCap",
      "outputs": [
        {
          "internalType": "uint256",
          "name": "",
          "type": "uint256"
        }
      ],
      "stateMutability": "view",
      "type": "function"
    },
    {
      "inputs": [
        {
          "internalType": "address",
          "name": "tokenAddress",
          "type": "address"
        },
        {
          "internalType": "address",
          "name": "tokenAddress2",
          "type": "address"
        }
      ],
      "name": "pairTvl",
      "outputs": [
        {
          "internalType": "uint256",
          "name": "",
          "type": "uint256"
        }
      ],
      "stateMutability": "view",
      "type": "function"
    },
    {
      "inputs": [],
      "name": "poolTracker",
      "outputs": [
        {
          "internalType": "contract PoolTracker",
          "name": "",
          "type": "address"
        }
      ],
      "stateMutability": "view",
      "type": "function"
    },
    {
      "inputs": [
        {
          "internalType": "address",
          "name": "tokenAddress",
          "type": "address"
        },
        {
          "internalType": "address",
          "name": "tokenAddress2",
          "type": "address"
        }
      ],
      "name": "totalRoi",
      "outputs": [
        {
          "internalType": "uint256",
          "name": "",
          "type": "uint256"
        }
      ],
      "stateMutability": "view",
      "type": "function"
    },
    {
      "inputs": [
        {
          "internalType": "address",
          "name": "tokenAddress",
          "type": "address"
        }
      ],
      "name": "tvl",
      "outputs": [
        {
          "internalType": "uint256",
          "name": "",
          "type": "uint256"
        }
      ],
      "stateMutability": "view",
      "type": "function"
    },
    {
      "inputs": [
        {
          "internalType": "address",
          "name": "tokenAddress",
          "type": "address"
        }
      ],
      "name": "tvlRatio",
      "outputs": [
        {
          "internalType": "uint256",
          "name": "",
          "type": "uint256"
        }
      ],
      "stateMutability": "view",
      "type": "function"
    },
    {
      "inputs": [
        {
          "internalType": "address",
          "name": "tokenAddress",
          "type": "address"
        },
        {
          "internalType": "uint256",
          "name": "tokenAmount",
          "type": "uint256"
        }
      ],
      "name": "usdValue",
      "outputs": [
        {
          "internalType": "uint256",
          "name": "",
          "type": "uint256"
        }
      ],
      "stateMutability": "view",
      "type": "function"
    }
  ],
  "transactionHash": "0xebfe143bf02aa6a0e0a90636471091c30a5a82d3557609ed911224907795ea2e",
  "args": [
    "0x46439AdBfA62FF3DC6Cd66A95e36279956ea32ba",
    "0x143db3CEEfbdfe5631aDD3E50f7614B6ba708BA7"
  ],
  "numDeployments": 5,
  "solcInputHash": "a491286b4e87cc4d72fac35e4211eb53",
  "bytecode": "0x60806040523480156200001157600080fd5b5060405162001dd638038062001dd683398181016040528101906200003791906200012a565b816000806101000a81548173ffffffffffffffffffffffffffffffffffffffff021916908373ffffffffffffffffffffffffffffffffffffffff16021790555080600160006101000a81548173ffffffffffffffffffffffffffffffffffffffff021916908373ffffffffffffffffffffffffffffffffffffffff160217905550505062000171565b600080fd5b600073ffffffffffffffffffffffffffffffffffffffff82169050919050565b6000620000f282620000c5565b9050919050565b6200010481620000e5565b81146200011057600080fd5b50565b6000815190506200012481620000f9565b92915050565b60008060408385031215620001445762000143620000c0565b5b6000620001548582860162000113565b9250506020620001678582860162000113565b9150509250929050565b611c5580620001816000396000f3fe608060405234801561001057600080fd5b50600436106100a95760003560e01c8063af7665ce11610071578063af7665ce1461018c578063bca04ec4146101aa578063c26fa28d146101da578063c4fb32c31461020a578063e75db6161461023a578063ef610d8d1461026a576100a9565b80631212033b146100ae57806328a724ac146100de5780634e5a9729146100fc5780636d3e08b71461012c578063931f63f81461015c575b600080fd5b6100c860048036038101906100c391906115c8565b61029a565b6040516100d59190611621565b60405180910390f35b6100e66103cd565b6040516100f3919061169b565b60405180910390f35b610116600480360381019061011191906115c8565b6103f1565b6040516101239190611621565b60405180910390f35b610146600480360381019061014191906115c8565b6105ea565b6040516101539190611621565b60405180910390f35b610176600480360381019061017191906115c8565b610866565b6040516101839190611621565b60405180910390f35b610194610b28565b6040516101a191906116c5565b60405180910390f35b6101c460048036038101906101bf91906116e0565b610b4e565b6040516101d19190611621565b60405180910390f35b6101f460048036038101906101ef91906115c8565b610b7f565b6040516102019190611621565b60405180910390f35b610224600480360381019061021f91906116e0565b610bef565b6040516102319190611621565b60405180910390f35b610254600480360381019061024f91906116e0565b610c7f565b6040516102619190611621565b60405180910390f35b610284600480360381019061027f9190611739565b610f5a565b6040516102919190611621565b60405180910390f35b6000808373ffffffffffffffffffffffffffffffffffffffff166318160ddd6040518163ffffffff1660e01b815260040160206040518083038186803b1580156102e357600080fd5b505afa1580156102f7573d6000803e3d6000fd5b505050506040513d601f19601f8201168201806040525081019061031b919061178e565b905060008373ffffffffffffffffffffffffffffffffffffffff166318160ddd6040518163ffffffff1660e01b815260040160206040518083038186803b15801561036557600080fd5b505afa158015610379573d6000803e3d6000fd5b505050506040513d601f19601f8201168201806040525081019061039d919061178e565b905060006103ab8583610f5a565b6103b58785610f5a565b6103bf91906117ea565b905080935050505092915050565b60008054906101000a900473ffffffffffffffffffffffffffffffffffffffff1681565b60008060008054906101000a900473ffffffffffffffffffffffffffffffffffffffff1673ffffffffffffffffffffffffffffffffffffffff16638b273a6885856040518363ffffffff1660e01b815260040161044f929190611840565b60206040518083038186803b15801561046757600080fd5b505afa15801561047b573d6000803e3d6000fd5b505050506040513d601f19601f8201168201806040525081019061049f91906118b9565b905060008473ffffffffffffffffffffffffffffffffffffffff166370a08231836040518263ffffffff1660e01b81526004016104dc91906116c5565b60206040518083038186803b1580156104f457600080fd5b505afa158015610508573d6000803e3d6000fd5b505050506040513d601f19601f8201168201806040525081019061052c919061178e565b905060008473ffffffffffffffffffffffffffffffffffffffff166370a08231846040518263ffffffff1660e01b815260040161056991906116c5565b60206040518083038186803b15801561058157600080fd5b505afa158015610595573d6000803e3d6000fd5b505050506040513d601f19601f820116820180604052508101906105b9919061178e565b905060006105c78683610f5a565b6105d18885610f5a565b6105db91906117ea565b90508094505050505092915050565b60008060008054906101000a900473ffffffffffffffffffffffffffffffffffffffff1673ffffffffffffffffffffffffffffffffffffffff16638b273a6885856040518363ffffffff1660e01b8152600401610648929190611840565b60206040518083038186803b15801561066057600080fd5b505afa158015610674573d6000803e3d6000fd5b505050506040513d601f19601f8201168201806040525081019061069891906118b9565b905060008173ffffffffffffffffffffffffffffffffffffffff1663285939846040518163ffffffff1660e01b815260040160206040518083038186803b1580156106e257600080fd5b505afa1580156106f6573d6000803e3d6000fd5b505050506040513d601f19601f8201168201806040525081019061071a919061178e565b905060008273ffffffffffffffffffffffffffffffffffffffff16638477a6348473ffffffffffffffffffffffffffffffffffffffff16638da5cb5b6040518163ffffffff1660e01b815260040160206040518083038186803b15801561078057600080fd5b505afa158015610794573d6000803e3d6000fd5b505050506040513d601f19601f820116820180604052508101906107b891906118fb565b6040518263ffffffff1660e01b81526004016107d491906116c5565b60206040518083038186803b1580156107ec57600080fd5b505afa158015610800573d6000803e3d6000fd5b505050506040513d601f19601f82011682018060405250810190610824919061178e565b905060006018603c83426108389190611928565b610842919061198b565b61084c919061198b565b9050808361085a919061198b565b94505050505092915050565b60008060008054906101000a900473ffffffffffffffffffffffffffffffffffffffff1673ffffffffffffffffffffffffffffffffffffffff16638b273a6885856040518363ffffffff1660e01b81526004016108c4929190611840565b60206040518083038186803b1580156108dc57600080fd5b505afa1580156108f0573d6000803e3d6000fd5b505050506040513d601f19601f8201168201806040525081019061091491906118b9565b90506000610943600160009054906101000a900473ffffffffffffffffffffffffffffffffffffffff166114d5565b8273ffffffffffffffffffffffffffffffffffffffff1663285939846040518163ffffffff1660e01b815260040160206040518083038186803b15801561098957600080fd5b505afa15801561099d573d6000803e3d6000fd5b505050506040513d601f19601f820116820180604052508101906109c1919061178e565b6109cb91906119bc565b905060008573ffffffffffffffffffffffffffffffffffffffff166370a08231846040518263ffffffff1660e01b8152600401610a0891906116c5565b60206040518083038186803b158015610a2057600080fd5b505afa158015610a34573d6000803e3d6000fd5b505050506040513d601f19601f82011682018060405250810190610a58919061178e565b905060008573ffffffffffffffffffffffffffffffffffffffff166370a08231856040518263ffffffff1660e01b8152600401610a9591906116c5565b60206040518083038186803b158015610aad57600080fd5b505afa158015610ac1573d6000803e3d6000fd5b505050506040513d601f19601f82011682018060405250810190610ae5919061178e565b9050610af18682610f5a565b610afb8884610f5a565b610b0591906117ea565b606484610b1291906119bc565b610b1c919061198b565b94505050505092915050565b600160009054906101000a900473ffffffffffffffffffffffffffffffffffffffff1681565b6000610b5982610bef565b6064610b6484610c7f565b610b6e91906119bc565b610b78919061198b565b9050919050565b6000610b8b83836103f1565b670de0b6b3a7640000610b9e85856105ea565b610bc9600160009054906101000a900473ffffffffffffffffffffffffffffffffffffffff166114d5565b610bd391906119bc565b610bdd91906119bc565b610be7919061198b565b905092915050565b6000610c78828373ffffffffffffffffffffffffffffffffffffffff166318160ddd6040518163ffffffff1660e01b815260040160206040518083038186803b158015610c3b57600080fd5b505afa158015610c4f573d6000803e3d6000fd5b505050506040513d601f19601f82011682018060405250810190610c73919061178e565b610f5a565b9050919050565b60008060008060009054906101000a900473ffffffffffffffffffffffffffffffffffffffff1673ffffffffffffffffffffffffffffffffffffffff1663f5ff5061856040518263ffffffff1660e01b8152600401610cde91906116c5565b60206040518083038186803b158015610cf657600080fd5b505afa158015610d0a573d6000803e3d6000fd5b505050506040513d601f19601f82011682018060405250810190610d2e919061178e565b905060005b81811015610f465760008060009054906101000a900473ffffffffffffffffffffffffffffffffffffffff1673ffffffffffffffffffffffffffffffffffffffff16638c75d89d87846040518363ffffffff1660e01b8152600401610d99929190611a16565b60206040518083038186803b158015610db157600080fd5b505afa158015610dc5573d6000803e3d6000fd5b505050506040513d601f19601f82011682018060405250810190610de991906118fb565b905060008060009054906101000a900473ffffffffffffffffffffffffffffffffffffffff1673ffffffffffffffffffffffffffffffffffffffff16638b273a6888846040518363ffffffff1660e01b8152600401610e49929190611840565b60206040518083038186803b158015610e6157600080fd5b505afa158015610e75573d6000803e3d6000fd5b505050506040513d601f19601f82011682018060405250810190610e9991906118b9565b90508673ffffffffffffffffffffffffffffffffffffffff166370a08231826040518263ffffffff1660e01b8152600401610ed491906116c5565b60206040518083038186803b158015610eec57600080fd5b505afa158015610f00573d6000803e3d6000fd5b505050506040513d601f19601f82011682018060405250810190610f24919061178e565b85610f2f91906117ea565b945050508080610f3e90611a3f565b915050610d33565b50610f518483610f5a565b92505050919050565b6000805b60008054906101000a900473ffffffffffffffffffffffffffffffffffffffff1673ffffffffffffffffffffffffffffffffffffffff1663941230606040518163ffffffff1660e01b815260040160206040518083038186803b158015610fc457600080fd5b505afa158015610fd8573d6000803e3d6000fd5b505050506040513d601f19601f82011682018060405250810190610ffc919061178e565b8110156111195760008060008054906101000a900473ffffffffffffffffffffffffffffffffffffffff1673ffffffffffffffffffffffffffffffffffffffff1663930186f2846040518263ffffffff1660e01b815260040161105f9190611621565b604080518083038186803b15801561107657600080fd5b505afa15801561108a573d6000803e3d6000fd5b505050506040513d601f19601f820116820180604052508101906110ae9190611a88565b915091508573ffffffffffffffffffffffffffffffffffffffff168273ffffffffffffffffffffffffffffffffffffffff16141561110457846110f0826114d5565b6110fa91906119bc565b93505050506114cf565b5050808061111190611a3f565b915050610f5e565b5060005b60008054906101000a900473ffffffffffffffffffffffffffffffffffffffff1673ffffffffffffffffffffffffffffffffffffffff1663941230606040518163ffffffff1660e01b815260040160206040518083038186803b15801561118357600080fd5b505afa158015611197573d6000803e3d6000fd5b505050506040513d601f19601f820116820180604052508101906111bb919061178e565b8110156114c95760008060008054906101000a900473ffffffffffffffffffffffffffffffffffffffff1673ffffffffffffffffffffffffffffffffffffffff1663930186f2846040518263ffffffff1660e01b815260040161121e9190611621565b604080518083038186803b15801561123557600080fd5b505afa158015611249573d6000803e3d6000fd5b505050506040513d601f19601f8201168201806040525081019061126d9190611a88565b91509150600073ffffffffffffffffffffffffffffffffffffffff1660008054906101000a900473ffffffffffffffffffffffffffffffffffffffff1673ffffffffffffffffffffffffffffffffffffffff16638b273a6888856040518363ffffffff1660e01b81526004016112e4929190611840565b60206040518083038186803b1580156112fc57600080fd5b505afa158015611310573d6000803e3d6000fd5b505050506040513d601f19601f8201168201806040525081019061133491906118b9565b73ffffffffffffffffffffffffffffffffffffffff16146114b45760008060009054906101000a900473ffffffffffffffffffffffffffffffffffffffff1673ffffffffffffffffffffffffffffffffffffffff16638b273a6888856040518363ffffffff1660e01b81526004016113ad929190611840565b60206040518083038186803b1580156113c557600080fd5b505afa1580156113d9573d6000803e3d6000fd5b505050506040513d601f19601f820116820180604052508101906113fd91906118b9565b73ffffffffffffffffffffffffffffffffffffffff166328da1aef8860016040518363ffffffff1660e01b8152600401611438929190611b03565b60206040518083038186803b15801561145057600080fd5b505afa158015611464573d6000803e3d6000fd5b505050506040513d601f19601f82011682018060405250810190611488919061178e565b90508581611495846114d5565b61149f91906119bc565b6114a991906119bc565b9450505050506114cf565b505080806114c190611a3f565b91505061111d565b50600090505b92915050565b6000808273ffffffffffffffffffffffffffffffffffffffff1663feaf968c6040518163ffffffff1660e01b815260040160a06040518083038186803b15801561151e57600080fd5b505afa158015611532573d6000803e3d6000fd5b505050506040513d601f19601f820116820180604052508101906115569190611ba4565b50505091505080915050919050565b600080fd5b600073ffffffffffffffffffffffffffffffffffffffff82169050919050565b60006115958261156a565b9050919050565b6115a58161158a565b81146115b057600080fd5b50565b6000813590506115c28161159c565b92915050565b600080604083850312156115df576115de611565565b5b60006115ed858286016115b3565b92505060206115fe858286016115b3565b9150509250929050565b6000819050919050565b61161b81611608565b82525050565b60006020820190506116366000830184611612565b92915050565b6000819050919050565b600061166161165c6116578461156a565b61163c565b61156a565b9050919050565b600061167382611646565b9050919050565b600061168582611668565b9050919050565b6116958161167a565b82525050565b60006020820190506116b0600083018461168c565b92915050565b6116bf8161158a565b82525050565b60006020820190506116da60008301846116b6565b92915050565b6000602082840312156116f6576116f5611565565b5b6000611704848285016115b3565b91505092915050565b61171681611608565b811461172157600080fd5b50565b6000813590506117338161170d565b92915050565b600080604083850312156117505761174f611565565b5b600061175e858286016115b3565b925050602061176f85828601611724565b9150509250929050565b6000815190506117888161170d565b92915050565b6000602082840312156117a4576117a3611565565b5b60006117b284828501611779565b91505092915050565b7f4e487b7100000000000000000000000000000000000000000000000000000000600052601160045260246000fd5b60006117f582611608565b915061180083611608565b9250827fffffffffffffffffffffffffffffffffffffffffffffffffffffffffffffffff03821115611835576118346117bb565b5b828201905092915050565b600060408201905061185560008301856116b6565b61186260208301846116b6565b9392505050565b60006118748261156a565b9050919050565b600061188682611869565b9050919050565b6118968161187b565b81146118a157600080fd5b50565b6000815190506118b38161188d565b92915050565b6000602082840312156118cf576118ce611565565b5b60006118dd848285016118a4565b91505092915050565b6000815190506118f58161159c565b92915050565b60006020828403121561191157611910611565565b5b600061191f848285016118e6565b91505092915050565b600061193382611608565b915061193e83611608565b925082821015611951576119506117bb565b5b828203905092915050565b7f4e487b7100000000000000000000000000000000000000000000000000000000600052601260045260246000fd5b600061199682611608565b91506119a183611608565b9250826119b1576119b061195c565b5b828204905092915050565b60006119c782611608565b91506119d283611608565b9250817fffffffffffffffffffffffffffffffffffffffffffffffffffffffffffffffff0483118215151615611a0b57611a0a6117bb565b5b828202905092915050565b6000604082019050611a2b60008301856116b6565b611a386020830184611612565b9392505050565b6000611a4a82611608565b91507fffffffffffffffffffffffffffffffffffffffffffffffffffffffffffffffff821415611a7d57611a7c6117bb565b5b600182019050919050565b60008060408385031215611a9f57611a9e611565565b5b6000611aad858286016118e6565b9250506020611abe858286016118e6565b9150509250929050565b6000819050919050565b6000611aed611ae8611ae384611ac8565b61163c565b611608565b9050919050565b611afd81611ad2565b82525050565b6000604082019050611b1860008301856116b6565b611b256020830184611af4565b9392505050565b600069ffffffffffffffffffff82169050919050565b611b4b81611b2c565b8114611b5657600080fd5b50565b600081519050611b6881611b42565b92915050565b6000819050919050565b611b8181611b6e565b8114611b8c57600080fd5b50565b600081519050611b9e81611b78565b92915050565b600080600080600060a08688031215611bc057611bbf611565565b5b6000611bce88828901611b59565b9550506020611bdf88828901611b8f565b9450506040611bf088828901611779565b9350506060611c0188828901611779565b9250506080611c1288828901611b59565b915050929550929590935056fea264697066735822122088d23d4cd26adc74dec07d722d6602011112c2ba3f9f511db0bd2a44cdbc5b2e64736f6c63430008090033",
  "devdoc": {
    "details": "Smart contract for computing various on chain metrics related to liquidity pools and tokens.",
    "kind": "dev",
    "methods": {
      "constructor": {
        "details": "Constructor function initializes the PoolTracker and ETH price feed addresses.",
        "params": {
          "_ethPriceFeed": "Address of the ETH price feed contract.",
          "_poolTracker": "Address of the PoolTracker contract."
        }
      },
      "dailyRate(address,address)": {
        "details": "Computes the daily yield rate for a liquidity pool with two tokens.",
        "params": {
          "tokenAddress": "Address of the first token.",
          "tokenAddress2": "Address of the second token."
        },
        "returns": {
          "_0": "The daily yield rate of the liquidity pool."
        }
      },
      "dailyRoi(address,address)": {
        "details": "Computes the daily ROI for a liquidity pool with two tokens.",
        "params": {
          "tokenAddress": "Address of the first token.",
          "tokenAddress2": "Address of the second token."
        },
        "returns": {
          "_0": "The daily ROI of the liquidity pool."
        }
      },
      "marketCap(address)": {
        "details": "Computes the market capitalization of a token.",
        "params": {
          "tokenAddress": "Address of the token."
        },
        "returns": {
          "_0": "The market capitalization of the token."
        }
      },
      "pairMarketCap(address,address)": {
        "details": "Computes the combined market capitalization of two tokens.",
        "params": {
          "tokenAddress": "Address of the first token.",
          "tokenAddress2": "Address of the second token."
        },
        "returns": {
          "_0": "The combined market capitalization of the two tokens."
        }
      },
      "pairTvl(address,address)": {
        "details": "Computes the combined TVL of two tokens in a liquidity pool.",
        "params": {
          "tokenAddress": "Address of the first token.",
          "tokenAddress2": "Address of the second token."
        },
        "returns": {
          "_0": "The combined TVL of the two tokens."
        }
      },
      "totalRoi(address,address)": {
        "details": "Computes the total return on investment (ROI) for a liquidity pool with two tokens.",
        "params": {
          "tokenAddress": "Address of the first token.",
          "tokenAddress2": "Address of the second token."
        },
        "returns": {
          "_0": "The total ROI of the liquidity pool."
        }
      },
      "tvl(address)": {
        "details": "Computes the total value locked (TVL) in a liquidity pool for a given token.",
        "params": {
          "tokenAddress": "Address of the token."
        },
        "returns": {
          "_0": "The TVL of the token."
        }
      },
      "tvlRatio(address)": {
        "details": "Computes the TVL ratio of a token, which is TVL divided by market capitalization.",
        "params": {
          "tokenAddress": "Address of the token."
        },
        "returns": {
          "_0": "The TVL ratio of the token."
        }
      },
      "usdValue(address,uint256)": {
        "details": "Computes the USD value of a token based on its amount and price feed.",
        "params": {
          "tokenAddress": "Address of the token.",
          "tokenAmount": "Amount of the token."
        },
        "returns": {
          "_0": "The USD value of the token."
        }
      }
    },
    "title": "PoolMetrics",
    "version": 1
  },
  "userdoc": {
    "kind": "user",
    "methods": {},
    "version": 1
  },
  "storageLayout": {
    "storage": [
      {
        "astId": 1285,
        "contract": "contracts/Dex/PoolMetrics.sol:PoolMetrics",
        "label": "poolTracker",
        "offset": 0,
        "slot": "0",
        "type": "t_contract(PoolTracker)2469"
      },
      {
        "astId": 1287,
        "contract": "contracts/Dex/PoolMetrics.sol:PoolMetrics",
        "label": "ethPriceFeed",
        "offset": 0,
        "slot": "1",
        "type": "t_address"
      }
    ],
    "types": {
      "t_address": {
        "encoding": "inplace",
        "label": "address",
        "numberOfBytes": "20"
      },
      "t_contract(PoolTracker)2469": {
        "encoding": "inplace",
        "label": "contract PoolTracker",
        "numberOfBytes": "20"
      }
    }
  }
}