{
  "address": "0xD35315f1ef1135070Eb2E4095773ED853E4638d7",
  "abi": [
    {
      "inputs": [
        {
          "internalType": "address",
          "name": "_token",
          "type": "address"
        },
        {
          "internalType": "address",
          "name": "newBorrowingContract",
          "type": "address"
        }
      ],
      "stateMutability": "nonpayable",
      "type": "constructor"
    },
    {
      "inputs": [],
      "name": "lending_addressNotAllowed",
      "type": "error"
    },
    {
      "inputs": [],
      "name": "lending_notEnoughTimePassed",
      "type": "error"
    },
    {
      "inputs": [],
      "name": "lending_outOfReserve",
      "type": "error"
    },
    {
      "inputs": [],
      "name": "lending_reserveNotAvailable",
      "type": "error"
    },
    {
      "inputs": [],
      "name": "amoutLended",
      "outputs": [
        {
          "internalType": "uint256",
          "name": "",
          "type": "uint256"
        }
      ],
      "stateMutability": "view",
      "type": "function"
    },
    {
      "inputs": [
        {
          "internalType": "uint256",
          "name": "_yield",
          "type": "uint256"
        }
      ],
      "name": "bookYield",
      "outputs": [],
      "stateMutability": "nonpayable",
      "type": "function"
    },
    {
      "inputs": [
        {
          "internalType": "uint256",
          "name": "amount",
          "type": "uint256"
        }
      ],
      "name": "borrow",
      "outputs": [],
      "stateMutability": "nonpayable",
      "type": "function"
    },
    {
      "inputs": [],
      "name": "borrowingAPY",
      "outputs": [
        {
          "internalType": "uint256",
          "name": "",
          "type": "uint256"
        }
      ],
      "stateMutability": "view",
      "type": "function"
    },
    {
      "inputs": [],
      "name": "borrowingContract",
      "outputs": [
        {
          "internalType": "address",
          "name": "",
          "type": "address"
        }
      ],
      "stateMutability": "view",
      "type": "function"
    },
    {
      "inputs": [],
      "name": "farmedYield",
      "outputs": [
        {
          "internalType": "uint256",
          "name": "",
          "type": "uint256"
        }
      ],
      "stateMutability": "view",
      "type": "function"
    },
    {
      "inputs": [
        {
          "internalType": "address",
          "name": "user",
          "type": "address"
        },
        {
          "internalType": "uint256",
          "name": "tokenAmount",
          "type": "uint256"
        }
      ],
      "name": "getYield",
      "outputs": [
        {
          "internalType": "uint256",
          "name": "",
          "type": "uint256"
        }
      ],
      "stateMutability": "nonpayable",
      "type": "function"
    },
    {
      "inputs": [
        {
          "internalType": "address",
          "name": "user",
          "type": "address"
        }
      ],
      "name": "isTime",
      "outputs": [
        {
          "internalType": "bool",
          "name": "",
          "type": "bool"
        }
      ],
      "stateMutability": "view",
      "type": "function"
    },
    {
      "inputs": [
        {
          "internalType": "address",
          "name": "",
          "type": "address"
        }
      ],
      "name": "lastYieldFarmedTime",
      "outputs": [
        {
          "internalType": "uint256",
          "name": "",
          "type": "uint256"
        }
      ],
      "stateMutability": "view",
      "type": "function"
    },
    {
      "inputs": [
        {
          "internalType": "uint256",
          "name": "amount",
          "type": "uint256"
        }
      ],
      "name": "lend",
      "outputs": [],
      "stateMutability": "nonpayable",
      "type": "function"
    },
    {
      "inputs": [],
      "name": "ownerContract",
      "outputs": [
        {
          "internalType": "address",
          "name": "",
          "type": "address"
        }
      ],
      "stateMutability": "view",
      "type": "function"
    },
    {
      "inputs": [],
      "name": "reserve",
      "outputs": [
        {
          "internalType": "uint256",
          "name": "",
          "type": "uint256"
        }
      ],
      "stateMutability": "view",
      "type": "function"
    },
    {
      "inputs": [
        {
          "internalType": "uint256",
          "name": "newAPY",
          "type": "uint256"
        }
      ],
      "name": "setBorrowingAPY",
      "outputs": [],
      "stateMutability": "nonpayable",
      "type": "function"
    },
    {
      "inputs": [],
      "name": "token",
      "outputs": [
        {
          "internalType": "contract IERC20",
          "name": "",
          "type": "address"
        }
      ],
      "stateMutability": "view",
      "type": "function"
    },
    {
      "inputs": [
        {
          "internalType": "uint256",
          "name": "amount",
          "type": "uint256"
        }
      ],
      "name": "withdraw",
      "outputs": [],
      "stateMutability": "nonpayable",
      "type": "function"
    },
    {
      "inputs": [],
      "name": "yield",
      "outputs": [
        {
          "internalType": "uint256",
          "name": "",
          "type": "uint256"
        }
      ],
      "stateMutability": "view",
      "type": "function"
    },
    {
      "inputs": [
        {
          "internalType": "address",
          "name": "",
          "type": "address"
        }
      ],
      "name": "yieldTaken",
      "outputs": [
        {
          "internalType": "uint256",
          "name": "",
          "type": "uint256"
        }
      ],
      "stateMutability": "view",
      "type": "function"
    }
  ],
  "transactionHash": "0x3189347b04500790b3bbcaefcc6c47de68c9f1a81e96f5784f5b2f096845d6da",
  "args": [
    "0x1F06aB1B322AcF25D52f9210c227692B8Bfac58F",
    "0x58e28BA182fF5C326c8c3d18aeb29bbA7A5529ac"
  ],
  "numDeployments": 2,
  "solcInputHash": "4c4dc27a0c4eb0b6af394260e8a57951",
  "bytecode": "0x60806040523480156200001157600080fd5b50604051620015583803806200155883398181016040528101906200003791906200016b565b80600260006101000a81548173ffffffffffffffffffffffffffffffffffffffff021916908373ffffffffffffffffffffffffffffffffffffffff160217905550816000806101000a81548173ffffffffffffffffffffffffffffffffffffffff021916908373ffffffffffffffffffffffffffffffffffffffff16021790555033600160006101000a81548173ffffffffffffffffffffffffffffffffffffffff021916908373ffffffffffffffffffffffffffffffffffffffff1602179055505050620001b2565b600080fd5b600073ffffffffffffffffffffffffffffffffffffffff82169050919050565b6000620001338262000106565b9050919050565b620001458162000126565b81146200015157600080fd5b50565b60008151905062000165816200013a565b92915050565b6000806040838503121562000185576200018462000101565b5b6000620001958582860162000154565b9250506020620001a88582860162000154565b9150509250929050565b61139680620001c26000396000f3fe608060405234801561001057600080fd5b506004361061010b5760003560e01c8063a2b2c32a116100a2578063cd68206011610071578063cd68206014610294578063ed433abc146102b0578063f88cc4a2146102ce578063fc0c546a146102fe578063ffebfc8c1461031c5761010b565b8063a2b2c32a14610220578063a6aa57ce1461023e578063c5ebeaec1461025a578063cd3293de146102765761010b565b80637f74ac15116100de5780637f74ac151461019857806384a965ed146101b65780639770b125146101d45780639a61c36a146101f05761010b565b806328593984146101105780632e1a7d4d1461012e57806359eec95b1461014a5780636140dfd01461017a575b600080fd5b61011861034c565b6040516101259190610f16565b60405180910390f35b61014860048036038101906101439190610f62565b610352565b005b610164600480360381019061015f9190610fed565b610547565b6040516101719190611035565b60405180910390f35b6101826105f8565b60405161018f9190610f16565b60405180910390f35b6101a06105fe565b6040516101ad919061105f565b60405180910390f35b6101be610624565b6040516101cb919061105f565b60405180910390f35b6101ee60048036038101906101e99190610f62565b61064a565b005b61020a60048036038101906102059190610fed565b610737565b6040516102179190610f16565b60405180910390f35b61022861074f565b6040516102359190610f16565b60405180910390f35b61025860048036038101906102539190610f62565b610755565b005b610274600480360381019061026f9190610f62565b610904565b005b61027e610ae0565b60405161028b9190610f16565b60405180910390f35b6102ae60048036038101906102a99190610f62565b610ae6565b005b6102b8610be5565b6040516102c59190610f16565b60405180910390f35b6102e860048036038101906102e3919061107a565b610beb565b6040516102f59190610f16565b60405180910390f35b610306610ec1565b6040516103139190611119565b60405180910390f35b61033660048036038101906103319190610fed565b610ee5565b6040516103439190610f16565b60405180910390f35b60065481565b600160009054906101000a900473ffffffffffffffffffffffffffffffffffffffff1673ffffffffffffffffffffffffffffffffffffffff163373ffffffffffffffffffffffffffffffffffffffff16141580156103fe5750600260009054906101000a900473ffffffffffffffffffffffffffffffffffffffff1673ffffffffffffffffffffffffffffffffffffffff163373ffffffffffffffffffffffffffffffffffffffff1614155b15610435576040517feed3ab2300000000000000000000000000000000000000000000000000000000815260040160405180910390fd5b6000816004546104459190611163565b101561047d576040517f5a6c8ab300000000000000000000000000000000000000000000000000000000815260040160405180910390fd5b60008054906101000a900473ffffffffffffffffffffffffffffffffffffffff1673ffffffffffffffffffffffffffffffffffffffff1663a9059cbb33836040518363ffffffff1660e01b81526004016104d8929190611197565b602060405180830381600087803b1580156104f257600080fd5b505af1158015610506573d6000803e3d6000fd5b505050506040513d601f19601f8201168201806040525081019061052a91906111ec565b50806004600082825461053d9190611163565b9250508190555050565b6000600860008373ffffffffffffffffffffffffffffffffffffffff1673ffffffffffffffffffffffffffffffffffffffff1681526020019081526020016000205060004290508062015180600860008673ffffffffffffffffffffffffffffffffffffffff1673ffffffffffffffffffffffffffffffffffffffff168152602001908152602001600020546105dd9190611219565b10156105ed5760019150506105f3565b60009150505b919050565b60055481565b600160009054906101000a900473ffffffffffffffffffffffffffffffffffffffff1681565b600260009054906101000a900473ffffffffffffffffffffffffffffffffffffffff1681565b600160009054906101000a900473ffffffffffffffffffffffffffffffffffffffff1673ffffffffffffffffffffffffffffffffffffffff163373ffffffffffffffffffffffffffffffffffffffff16141580156106f65750600260009054906101000a900473ffffffffffffffffffffffffffffffffffffffff1673ffffffffffffffffffffffffffffffffffffffff163373ffffffffffffffffffffffffffffffffffffffff1614155b1561072d576040517feed3ab2300000000000000000000000000000000000000000000000000000000815260040160405180910390fd5b8060058190555050565b60096020528060005260406000206000915090505481565b60035481565b600160009054906101000a900473ffffffffffffffffffffffffffffffffffffffff1673ffffffffffffffffffffffffffffffffffffffff163373ffffffffffffffffffffffffffffffffffffffff16141580156108015750600260009054906101000a900473ffffffffffffffffffffffffffffffffffffffff1673ffffffffffffffffffffffffffffffffffffffff163373ffffffffffffffffffffffffffffffffffffffff1614155b15610838576040517feed3ab2300000000000000000000000000000000000000000000000000000000815260040160405180910390fd5b60008054906101000a900473ffffffffffffffffffffffffffffffffffffffff1673ffffffffffffffffffffffffffffffffffffffff166323b872dd3330846040518463ffffffff1660e01b81526004016108959392919061126f565b602060405180830381600087803b1580156108af57600080fd5b505af11580156108c3573d6000803e3d6000fd5b505050506040513d601f19601f820116820180604052508101906108e791906111ec565b5080600460008282546108fa9190611219565b9250508190555050565b600160009054906101000a900473ffffffffffffffffffffffffffffffffffffffff1673ffffffffffffffffffffffffffffffffffffffff163373ffffffffffffffffffffffffffffffffffffffff16141580156109b05750600260009054906101000a900473ffffffffffffffffffffffffffffffffffffffff1673ffffffffffffffffffffffffffffffffffffffff163373ffffffffffffffffffffffffffffffffffffffff1614155b156109e7576040517feed3ab2300000000000000000000000000000000000000000000000000000000815260040160405180910390fd5b6000816004546109f79190611163565b1015610a2f576040517f810ffca300000000000000000000000000000000000000000000000000000000815260040160405180910390fd5b60008054906101000a900473ffffffffffffffffffffffffffffffffffffffff1673ffffffffffffffffffffffffffffffffffffffff1663a9059cbb33836040518363ffffffff1660e01b8152600401610a8a929190611197565b602060405180830381600087803b158015610aa457600080fd5b505af1158015610ab8573d6000803e3d6000fd5b505050506040513d601f19601f82011682018060405250810190610adc91906111ec565b5050565b60045481565b600160009054906101000a900473ffffffffffffffffffffffffffffffffffffffff1673ffffffffffffffffffffffffffffffffffffffff163373ffffffffffffffffffffffffffffffffffffffff1614158015610b925750600260009054906101000a900473ffffffffffffffffffffffffffffffffffffffff1673ffffffffffffffffffffffffffffffffffffffff163373ffffffffffffffffffffffffffffffffffffffff1614155b15610bc9576040517feed3ab2300000000000000000000000000000000000000000000000000000000815260040160405180910390fd5b8060066000828254610bdb9190611219565b9250508190555050565b60075481565b6000600160009054906101000a900473ffffffffffffffffffffffffffffffffffffffff1673ffffffffffffffffffffffffffffffffffffffff163373ffffffffffffffffffffffffffffffffffffffff1614158015610c995750600260009054906101000a900473ffffffffffffffffffffffffffffffffffffffff1673ffffffffffffffffffffffffffffffffffffffff163373ffffffffffffffffffffffffffffffffffffffff1614155b15610cd0576040517feed3ab2300000000000000000000000000000000000000000000000000000000815260040160405180910390fd5b60001515610cdd84610547565b15151415610d17576040517f1fa8d33700000000000000000000000000000000000000000000000000000000815260040160405180910390fd5b42600860008573ffffffffffffffffffffffffffffffffffffffff1673ffffffffffffffffffffffffffffffffffffffff168152602001908152602001600020819055506000600960008573ffffffffffffffffffffffffffffffffffffffff1673ffffffffffffffffffffffffffffffffffffffff1681526020019081526020016000205490506000600354606485610db191906112a6565b610dbb919061132f565b9050600060648283606486610dd091906112a6565b610dda919061132f565b600654610de79190611163565b610df191906112a6565b610dfb919061132f565b9050600754600654610e0d9190611163565b811115610e46576040517f1fa8d33700000000000000000000000000000000000000000000000000000000815260040160405180910390fd5b80600960003373ffffffffffffffffffffffffffffffffffffffff1673ffffffffffffffffffffffffffffffffffffffff1681526020019081526020016000206000828254610e959190611219565b925050819055508060076000828254610eae9190611219565b9250508190555080935050505092915050565b60008054906101000a900473ffffffffffffffffffffffffffffffffffffffff1681565b60086020528060005260406000206000915090505481565b6000819050919050565b610f1081610efd565b82525050565b6000602082019050610f2b6000830184610f07565b92915050565b600080fd5b610f3f81610efd565b8114610f4a57600080fd5b50565b600081359050610f5c81610f36565b92915050565b600060208284031215610f7857610f77610f31565b5b6000610f8684828501610f4d565b91505092915050565b600073ffffffffffffffffffffffffffffffffffffffff82169050919050565b6000610fba82610f8f565b9050919050565b610fca81610faf565b8114610fd557600080fd5b50565b600081359050610fe781610fc1565b92915050565b60006020828403121561100357611002610f31565b5b600061101184828501610fd8565b91505092915050565b60008115159050919050565b61102f8161101a565b82525050565b600060208201905061104a6000830184611026565b92915050565b61105981610faf565b82525050565b60006020820190506110746000830184611050565b92915050565b6000806040838503121561109157611090610f31565b5b600061109f85828601610fd8565b92505060206110b085828601610f4d565b9150509250929050565b6000819050919050565b60006110df6110da6110d584610f8f565b6110ba565b610f8f565b9050919050565b60006110f1826110c4565b9050919050565b6000611103826110e6565b9050919050565b611113816110f8565b82525050565b600060208201905061112e600083018461110a565b92915050565b7f4e487b7100000000000000000000000000000000000000000000000000000000600052601160045260246000fd5b600061116e82610efd565b915061117983610efd565b92508282101561118c5761118b611134565b5b828203905092915050565b60006040820190506111ac6000830185611050565b6111b96020830184610f07565b9392505050565b6111c98161101a565b81146111d457600080fd5b50565b6000815190506111e6816111c0565b92915050565b60006020828403121561120257611201610f31565b5b6000611210848285016111d7565b91505092915050565b600061122482610efd565b915061122f83610efd565b9250827fffffffffffffffffffffffffffffffffffffffffffffffffffffffffffffffff0382111561126457611263611134565b5b828201905092915050565b60006060820190506112846000830186611050565b6112916020830185611050565b61129e6040830184610f07565b949350505050565b60006112b182610efd565b91506112bc83610efd565b9250817fffffffffffffffffffffffffffffffffffffffffffffffffffffffffffffffff04831182151516156112f5576112f4611134565b5b828202905092915050565b7f4e487b7100000000000000000000000000000000000000000000000000000000600052601260045260246000fd5b600061133a82610efd565b915061134583610efd565b92508261135557611354611300565b5b82820490509291505056fea26469706673582212203967d8b5db79bfbded4c52563adf75c7a27d247add181573115d4df3256bece964736f6c63430008090033",
  "devdoc": {
    "details": "Implements lending and yield farming functionalities for a specific ERC20 token. This contract allows tokens to be lent out and borrowed, tracks yield farming activities, and allows for the accumulation and withdrawal of yield based on predefined APY.",
    "kind": "dev",
    "methods": {
      "borrow(uint256)": {
        "params": {
          "amount": "The amount of tokens to borrow."
        }
      },
      "constructor": {
        "params": {
          "_token": "The ERC20 token address for lending and borrowing."
        }
      },
      "getYield(address,uint256)": {
        "params": {
          "tokenAmount": "The amount of tokens used for calculating the user's share of the yield.",
          "user": "The address of the user farming yield."
        },
        "returns": {
          "_0": "uint256 The amount of yield available for the user."
        }
      },
      "isTime(address)": {
        "params": {
          "user": "The address of the user."
        },
        "returns": {
          "_0": "bool True if enough time has passed, false otherwise."
        }
      },
      "lend(uint256)": {
        "params": {
          "amount": "The amount of tokens to lend."
        }
      },
      "setBorrowingAPY(uint256)": {
        "params": {
          "newAPY": "The new APY value."
        }
      },
      "withdraw(uint256)": {
        "params": {
          "amount": "The amount of tokens to withdraw from the reserve."
        }
      }
    },
    "title": "Lending",
    "version": 1
  },
  "userdoc": {
    "kind": "user",
    "methods": {
      "borrow(uint256)": {
        "notice": "Allows the owner to borrow tokens from the reserve."
      },
      "getYield(address,uint256)": {
        "notice": "Calculates and returns the available yield for a user. This function updates the yield taken and farmed yield accordingly."
      },
      "isTime(address)": {
        "notice": "Checks if enough time has passed for a user to farm yield again."
      },
      "lend(uint256)": {
        "notice": "Allows the owner to lend tokens to the contract."
      },
      "setBorrowingAPY(uint256)": {
        "notice": "Sets the borrowing APY."
      },
      "withdraw(uint256)": {
        "notice": "Withdraws tokens from the reserve. This function allows the owner to withdraw tokens from the available reserve, reducing the reserve balance."
      }
    },
    "version": 1
  },
  "storageLayout": {
    "storage": [
      {
        "astId": 5529,
        "contract": "contracts/Lending/Pool.sol:Pool",
        "label": "token",
        "offset": 0,
        "slot": "0",
        "type": "t_contract(IERC20)1089"
      },
      {
        "astId": 5531,
        "contract": "contracts/Lending/Pool.sol:Pool",
        "label": "ownerContract",
        "offset": 0,
        "slot": "1",
        "type": "t_address"
      },
      {
        "astId": 5533,
        "contract": "contracts/Lending/Pool.sol:Pool",
        "label": "borrowingContract",
        "offset": 0,
        "slot": "2",
        "type": "t_address"
      },
      {
        "astId": 5535,
        "contract": "contracts/Lending/Pool.sol:Pool",
        "label": "amoutLended",
        "offset": 0,
        "slot": "3",
        "type": "t_uint256"
      },
      {
        "astId": 5537,
        "contract": "contracts/Lending/Pool.sol:Pool",
        "label": "reserve",
        "offset": 0,
        "slot": "4",
        "type": "t_uint256"
      },
      {
        "astId": 5539,
        "contract": "contracts/Lending/Pool.sol:Pool",
        "label": "borrowingAPY",
        "offset": 0,
        "slot": "5",
        "type": "t_uint256"
      },
      {
        "astId": 5541,
        "contract": "contracts/Lending/Pool.sol:Pool",
        "label": "yield",
        "offset": 0,
        "slot": "6",
        "type": "t_uint256"
      },
      {
        "astId": 5543,
        "contract": "contracts/Lending/Pool.sol:Pool",
        "label": "farmedYield",
        "offset": 0,
        "slot": "7",
        "type": "t_uint256"
      },
      {
        "astId": 5547,
        "contract": "contracts/Lending/Pool.sol:Pool",
        "label": "lastYieldFarmedTime",
        "offset": 0,
        "slot": "8",
        "type": "t_mapping(t_address,t_uint256)"
      },
      {
        "astId": 5551,
        "contract": "contracts/Lending/Pool.sol:Pool",
        "label": "yieldTaken",
        "offset": 0,
        "slot": "9",
        "type": "t_mapping(t_address,t_uint256)"
      }
    ],
    "types": {
      "t_address": {
        "encoding": "inplace",
        "label": "address",
        "numberOfBytes": "20"
      },
      "t_contract(IERC20)1089": {
        "encoding": "inplace",
        "label": "contract IERC20",
        "numberOfBytes": "20"
      },
      "t_mapping(t_address,t_uint256)": {
        "encoding": "mapping",
        "key": "t_address",
        "label": "mapping(address => uint256)",
        "numberOfBytes": "32",
        "value": "t_uint256"
      },
      "t_uint256": {
        "encoding": "inplace",
        "label": "uint256",
        "numberOfBytes": "32"
      }
    }
  }
}